{
  "_format": "hh-sol-artifact-1",
  "contractName": "AaveYield",
  "sourceName": "contracts/yield/AaveYield.sol",
  "abi": [
    {
      "anonymous": false,
      "inputs": [
        {
          "indexed": false,
          "internalType": "address",
          "name": "user",
          "type": "address"
        },
        {
          "indexed": false,
          "internalType": "address",
          "name": "investedTo",
          "type": "address"
        },
        {
          "indexed": false,
          "internalType": "uint256",
          "name": "lpTokensReceived",
          "type": "uint256"
        }
      ],
      "name": "LockedTokens",
      "type": "event"
    },
    {
      "anonymous": false,
      "inputs": [
        {
          "indexed": true,
          "internalType": "address",
          "name": "previousOwner",
          "type": "address"
        },
        {
          "indexed": true,
          "internalType": "address",
          "name": "newOwner",
          "type": "address"
        }
      ],
      "name": "OwnershipTransferred",
      "type": "event"
    },
    {
      "anonymous": false,
      "inputs": [
        {
          "indexed": false,
          "internalType": "address",
          "name": "investedTo",
          "type": "address"
        },
        {
          "indexed": false,
          "internalType": "uint256",
          "name": "collateralReceived",
          "type": "uint256"
        }
      ],
      "name": "UnlockedTokens",
      "type": "event"
    },
    {
      "inputs": [
        {
          "internalType": "address",
          "name": "_asset",
          "type": "address"
        },
        {
          "internalType": "address payable",
          "name": "_wallet",
          "type": "address"
        }
      ],
      "name": "emergencyWithdraw",
      "outputs": [
        {
          "internalType": "uint256",
          "name": "received",
          "type": "uint256"
        }
      ],
      "stateMutability": "nonpayable",
      "type": "function"
    },
    {
      "inputs": [
        {
          "internalType": "uint256",
          "name": "shares",
          "type": "uint256"
        },
        {
          "internalType": "address",
          "name": "asset",
          "type": "address"
        }
      ],
      "name": "getTokensForShares",
      "outputs": [
        {
          "internalType": "uint256",
          "name": "amount",
          "type": "uint256"
        }
      ],
      "stateMutability": "view",
      "type": "function"
    },
    {
      "inputs": [
        {
          "internalType": "address",
          "name": "_owner",
          "type": "address"
        },
        {
          "internalType": "address payable",
          "name": "_savingsAccount",
          "type": "address"
        },
        {
          "internalType": "address",
          "name": "_wethGateway",
          "type": "address"
        },
        {
          "internalType": "address",
          "name": "_protocolDataProvider",
          "type": "address"
        },
        {
          "internalType": "address",
          "name": "_lendingPoolAddressesProvider",
          "type": "address"
        }
      ],
      "name": "initialize",
      "outputs": [],
      "stateMutability": "nonpayable",
      "type": "function"
    },
    {
      "inputs": [],
      "name": "lendingPoolAddressesProvider",
      "outputs": [
        {
          "internalType": "address",
          "name": "",
          "type": "address"
        }
      ],
      "stateMutability": "view",
      "type": "function"
    },
    {
      "inputs": [
        {
          "internalType": "address",
          "name": "asset",
          "type": "address"
        }
      ],
      "name": "liquidityToken",
      "outputs": [
        {
          "internalType": "address",
          "name": "aToken",
          "type": "address"
        }
      ],
      "stateMutability": "view",
      "type": "function"
    },
    {
      "inputs": [
        {
          "internalType": "address",
          "name": "user",
          "type": "address"
        },
        {
          "internalType": "address",
          "name": "asset",
          "type": "address"
        },
        {
          "internalType": "uint256",
          "name": "amount",
          "type": "uint256"
        }
      ],
      "name": "lockTokens",
      "outputs": [
        {
          "internalType": "uint256",
          "name": "sharesReceived",
          "type": "uint256"
        }
      ],
      "stateMutability": "payable",
      "type": "function"
    },
    {
      "inputs": [],
      "name": "owner",
      "outputs": [
        {
          "internalType": "address",
          "name": "",
          "type": "address"
        }
      ],
      "stateMutability": "view",
      "type": "function"
    },
    {
      "inputs": [],
      "name": "protocolDataProvider",
      "outputs": [
        {
          "internalType": "address",
          "name": "",
          "type": "address"
        }
      ],
      "stateMutability": "view",
      "type": "function"
    },
    {
      "inputs": [],
      "name": "referralCode",
      "outputs": [
        {
          "internalType": "uint16",
          "name": "",
          "type": "uint16"
        }
      ],
      "stateMutability": "view",
      "type": "function"
    },
    {
      "inputs": [],
      "name": "renounceOwnership",
      "outputs": [],
      "stateMutability": "nonpayable",
      "type": "function"
    },
    {
      "inputs": [],
      "name": "savingsAccount",
      "outputs": [
        {
          "internalType": "address payable",
          "name": "",
          "type": "address"
        }
      ],
      "stateMutability": "view",
      "type": "function"
    },
    {
      "inputs": [
        {
          "internalType": "address",
          "name": "newOwner",
          "type": "address"
        }
      ],
      "name": "transferOwnership",
      "outputs": [],
      "stateMutability": "nonpayable",
      "type": "function"
    },
    {
      "inputs": [
        {
          "internalType": "address",
          "name": "asset",
          "type": "address"
        },
        {
          "internalType": "uint256",
          "name": "amount",
          "type": "uint256"
        }
      ],
      "name": "unlockTokens",
      "outputs": [
        {
          "internalType": "uint256",
          "name": "received",
          "type": "uint256"
        }
      ],
      "stateMutability": "nonpayable",
      "type": "function"
    },
    {
      "inputs": [
        {
          "internalType": "address",
          "name": "_wethGateway",
          "type": "address"
        },
        {
          "internalType": "address",
          "name": "_protocolDataProvider",
          "type": "address"
        },
        {
          "internalType": "address",
          "name": "_lendingPoolAddressesProvider",
          "type": "address"
        }
      ],
      "name": "updateAaveAddresses",
      "outputs": [],
      "stateMutability": "nonpayable",
      "type": "function"
    },
    {
      "inputs": [
        {
          "internalType": "uint16",
          "name": "_referralCode",
          "type": "uint16"
        }
      ],
      "name": "updateReferralCode",
      "outputs": [],
      "stateMutability": "nonpayable",
      "type": "function"
    },
    {
      "inputs": [
        {
          "internalType": "address payable",
          "name": "_savingsAccount",
          "type": "address"
        }
      ],
      "name": "updateSavingsAccount",
      "outputs": [],
      "stateMutability": "nonpayable",
      "type": "function"
    },
    {
      "inputs": [],
      "name": "wethGateway",
      "outputs": [
        {
          "internalType": "address",
          "name": "",
          "type": "address"
        }
      ],
      "stateMutability": "view",
      "type": "function"
    },
    {
      "stateMutability": "payable",
      "type": "receive"
    }
  ],
  "bytecode": "0x608060405234801561001057600080fd5b5061233e806100206000396000f3fe6080604052600436106101025760003560e01c8063715018a611610095578063c5e10eef11610064578063c5e10eef1461035e578063d8b6d25214610373578063ecced6231461039f578063f2fde38b146103b4578063fdca23c1146103e757610109565b8063715018a6146102e65780638da5cb5b146102fb5780639d564d9a14610310578063bba00ba51461034957610109565b80634767ceee116100d15780634767ceee146101f757806359846d291461023f5780636382d9ad146102785780636cf14f9d146102b357610109565b8063059bd0e71461010e5780631391abc71461013e5780631459457a1461018d5780633f843bce146101e257610109565b3661010957005b600080fd5b34801561011a57600080fd5b5061013c6004803603602081101561013157600080fd5b503561ffff1661042c565b005b34801561014a57600080fd5b506101716004803603602081101561016157600080fd5b50356001600160a01b03166104b0565b604080516001600160a01b039092168252519081900360200190f35b34801561019957600080fd5b5061013c600480360360a08110156101b057600080fd5b506001600160a01b03813581169160208101358216916040820135811691606081013582169160809091013516610533565b3480156101ee57600080fd5b50610171610749565b61022d6004803603606081101561020d57600080fd5b506001600160a01b03813581169160208101359091169060400135610758565b60408051918252519081900360200190f35b34801561024b57600080fd5b5061022d6004803603604081101561026257600080fd5b50803590602001356001600160a01b03166108d8565b34801561028457600080fd5b5061022d6004803603604081101561029b57600080fd5b506001600160a01b0381358116916020013516610a8a565b3480156102bf57600080fd5b5061013c600480360360208110156102d657600080fd5b50356001600160a01b0316610c60565b3480156102f257600080fd5b5061013c610d36565b34801561030757600080fd5b50610171610de2565b34801561031c57600080fd5b5061022d6004803603604081101561033357600080fd5b506001600160a01b038135169060200135610df1565b34801561035557600080fd5b50610171610fc2565b34801561036a57600080fd5b50610171610fd1565b34801561037f57600080fd5b50610388610fe0565b6040805161ffff9092168252519081900360200190f35b3480156103ab57600080fd5b50610171610ff1565b3480156103c057600080fd5b5061013c600480360360208110156103d757600080fd5b50356001600160a01b0316611000565b3480156103f357600080fd5b5061013c6004803603606081101561040a57600080fd5b506001600160a01b038135811691602081013582169160409091013516611103565b610434611273565b6001600160a01b0316610445610de2565b6001600160a01b03161461048e576040805162461bcd60e51b8152602060048201819052602482015260008051602061228c833981519152604482015290519081900360640190fd5b6068805461ffff909216600160a01b0261ffff60a01b19909216919091179055565b606654604080516334924edb60e21b81526001600160a01b0384811660048301529151600093929092169163d2493b6c91602480820192606092909190829003018186803b15801561050157600080fd5b505afa158015610515573d6000803e3d6000fd5b505050506040513d606081101561052b57600080fd5b505192915050565b600054610100900460ff168061054c575061054c611277565b8061055a575060005460ff16155b6105955760405162461bcd60e51b815260040180806020018281038252602e81526020018061223d602e913960400191505060405180910390fd5b600054610100900460ff161580156105c0576000805460ff1961ff0019909116610100171660011790555b6105c8611288565b6105d186611000565b6001600160a01b0385166106165760405162461bcd60e51b81526004018080602001828103825260258152602001806122186025913960400191505060405180910390fd5b6001600160a01b03841661065b5760405162461bcd60e51b815260040180806020018281038252602281526020018061217e6022913960400191505060405180910390fd5b6001600160a01b0383166106a05760405162461bcd60e51b815260040180806020018281038252602b8152602001806121a0602b913960400191505060405180910390fd5b6001600160a01b0382166106e55760405162461bcd60e51b81526004018080602001828103825260338152602001806122ac6033913960400191505060405180910390fd5b606880546001600160a01b038088166001600160a01b031992831617909255606580548784169083161790556066805486841690831617905560678054928516929091169190911790558015610741576000805461ff00191690555b505050505050565b6066546001600160a01b031681565b6068546000906001600160a01b031661076f611273565b6001600160a01b0316146107b45760405162461bcd60e51b81526004018080602001828103825260278152602001806121cb6027913960400191505060405180910390fd5b816107f7576040805162461bcd60e51b815260206004820152600e60248201526d125b9d995cdd0e88185b5bdd5b9d60921b604482015290519081900360640190fd5b60006001600160a01b03841661086257823414610850576040805162461bcd60e51b8152602060048201526012602482015271125b9d995cdd0e8811551208185b5bdd5b9d60721b604482015290519081900360640190fd5b6108598361133a565b92509050610886565b6108776001600160a01b038516863086611536565b6108818484611596565b925090505b604080516001600160a01b0380881682528316602082015280820184905290517f71538b5e30c18b86003771476b5887a8f118d796b2a4a2a5960e0ac1b10962d39181900360600190a1509392505050565b6000826108e757506000610a84565b60006108f2836104b0565b606654604080516335ea6a7560e01b81526001600160a01b038781166004830152915193945060009391909216916335ea6a7591602480830192610140929190829003018186803b15801561094657600080fd5b505afa15801561095a573d6000803e3d6000fd5b505050506040513d61014081101561097157600080fd5b5060e00151604080516370a0823160e01b81523060048201529051919250610a7f916001600160a01b038516916370a08231916024808301926020929190829003018186803b1580156109c357600080fd5b505afa1580156109d7573d6000803e3d6000fd5b505050506040513d60208110156109ed57600080fd5b505160408051630ed1279f60e11b81523060048201529051610a79918991610a739187916001600160a01b038a1691631da24f3e916024808301926020929190829003018186803b158015610a4157600080fd5b505afa158015610a55573d6000803e3d6000fd5b505050506040513d6020811015610a6b57600080fd5b5051906117f8565b906117f8565b90611858565b925050505b92915050565b6000610a94611273565b6001600160a01b0316610aa5610de2565b6001600160a01b031614610aee576040805162461bcd60e51b8152602060048201819052602482015260008051602061228c833981519152604482015290519081900360640190fd5b6000610af9846104b0565b6001600160a01b03166370a08231306040518263ffffffff1660e01b815260040180826001600160a01b0316815260200191505060206040518083038186803b158015610b4557600080fd5b505afa158015610b59573d6000803e3d6000fd5b505050506040513d6020811015610b6f57600080fd5b505190506001600160a01b038416610bc957610b8a816118bf565b6040519092506001600160a01b0384169083156108fc029084906000818181858888f19350505050158015610bc3573d6000803e3d6000fd5b50610c59565b610bd38482611a2f565b9150836001600160a01b031663a9059cbb84846040518363ffffffff1660e01b815260040180836001600160a01b0316815260200182815260200192505050602060405180830381600087803b158015610c2c57600080fd5b505af1158015610c40573d6000803e3d6000fd5b505050506040513d6020811015610c5657600080fd5b50505b5092915050565b610c68611273565b6001600160a01b0316610c79610de2565b6001600160a01b031614610cc2576040805162461bcd60e51b8152602060048201819052602482015260008051602061228c833981519152604482015290519081900360640190fd5b6001600160a01b038116610d14576040805162461bcd60e51b8152602060048201526014602482015273496e766573743a207a65726f206164647265737360601b604482015290519081900360640190fd5b606880546001600160a01b0319166001600160a01b0392909216919091179055565b610d3e611273565b6001600160a01b0316610d4f610de2565b6001600160a01b031614610d98576040805162461bcd60e51b8152602060048201819052602482015260008051602061228c833981519152604482015290519081900360640190fd5b6033546040516000916001600160a01b0316907f8be0079c531659141344cd1fd0a4f28419497f9722a3daafe3b4186f6b6457e0908390a3603380546001600160a01b0319169055565b6033546001600160a01b031690565b6068546000906001600160a01b0316610e08611273565b6001600160a01b031614610e4d5760405162461bcd60e51b81526004018080602001828103825260278152602001806121cb6027913960400191505060405180910390fd5b81610e90576040805162461bcd60e51b815260206004820152600e60248201526d125b9d995cdd0e88185b5bdd5b9d60921b604482015290519081900360640190fd5b6001600160a01b038316610ee857610ea7826118bf565b6068546040519192506001600160a01b03169082156108fc029083906000818181858888f19350505050158015610ee2573d6000803e3d6000fd5b50610f78565b610ef28383611a2f565b6068546040805163a9059cbb60e01b81526001600160a01b0392831660048201526024810184905290519293509085169163a9059cbb916044808201926020929091908290030181600087803b158015610f4b57600080fd5b505af1158015610f5f573d6000803e3d6000fd5b505050506040513d6020811015610f7557600080fd5b50505b604080516001600160a01b03851681526020810183905281517faf08a4db36432bb5cbbfdfcf5af1040246483dc0dae8a9616cc79816c432fee9929181900390910190a192915050565b6067546001600160a01b031681565b6065546001600160a01b031681565b606854600160a01b900461ffff1681565b6068546001600160a01b031681565b611008611273565b6001600160a01b0316611019610de2565b6001600160a01b031614611062576040805162461bcd60e51b8152602060048201819052602482015260008051602061228c833981519152604482015290519081900360640190fd5b6001600160a01b0381166110a75760405162461bcd60e51b81526004018080602001828103825260268152602001806121586026913960400191505060405180910390fd5b6033546040516001600160a01b038084169216907f8be0079c531659141344cd1fd0a4f28419497f9722a3daafe3b4186f6b6457e090600090a3603380546001600160a01b0319166001600160a01b0392909216919091179055565b61110b611273565b6001600160a01b031661111c610de2565b6001600160a01b031614611165576040805162461bcd60e51b8152602060048201819052602482015260008051602061228c833981519152604482015290519081900360640190fd5b6001600160a01b0383166111aa5760405162461bcd60e51b815260040180806020018281038252602281526020018061217e6022913960400191505060405180910390fd5b6001600160a01b0382166111ef5760405162461bcd60e51b815260040180806020018281038252602b8152602001806121a0602b913960400191505060405180910390fd5b6001600160a01b0381166112345760405162461bcd60e51b81526004018080602001828103825260338152602001806122ac6033913960400191505060405180910390fd5b606580546001600160a01b039485166001600160a01b031991821617909155606680549385169382169390931790925560678054919093169116179055565b3390565b600061128230611c8e565b15905090565b600054610100900460ff16806112a157506112a1611277565b806112af575060005460ff16155b6112ea5760405162461bcd60e51b815260040180806020018281038252602e81526020018061223d602e913960400191505060405180910390fd5b600054610100900460ff16158015611315576000805460ff1961ff0019909116610100171660011790555b61131d611c94565b611325611d34565b8015611337576000805461ff00191690555b50565b600080606560009054906101000a90046001600160a01b03166001600160a01b0316633a21afac6040518163ffffffff1660e01b815260040160206040518083038186803b15801561138b57600080fd5b505afa15801561139f573d6000803e3d6000fd5b505050506040513d60208110156113b557600080fd5b5051604080516370a0823160e01b815230600482015290519193506000916001600160a01b038516916370a08231916024808301926020929190829003018186803b15801561140357600080fd5b505afa158015611417573d6000803e3d6000fd5b505050506040513d602081101561142d57600080fd5b5051606554606854604080516358c22be760e01b8152306004820152600160a01b90920461ffff166024830152519293506001600160a01b03909116916358c22be7918791604480830192600092919082900301818588803b15801561149257600080fd5b505af11580156114a6573d6000803e3d6000fd5b505050505061152e81846001600160a01b03166370a08231306040518263ffffffff1660e01b815260040180826001600160a01b0316815260200191505060206040518083038186803b1580156114fc57600080fd5b505afa158015611510573d6000803e3d6000fd5b505050506040513d602081101561152657600080fd5b505190611e2d565b915050915091565b604080516001600160a01b0380861660248301528416604482015260648082018490528251808303909101815260849091019091526020810180516001600160e01b03166323b872dd60e01b179052611590908590611e8a565b50505050565b6000806115a2846104b0565b91506000826001600160a01b03166370a08231306040518263ffffffff1660e01b815260040180826001600160a01b0316815260200191505060206040518083038186803b1580156115f357600080fd5b505afa158015611607573d6000803e3d6000fd5b505050506040513d602081101561161d57600080fd5b505160675460408051630261bf8b60e01b815290519293506000926001600160a01b0390921691630261bf8b91600480820192602092909190829003018186803b15801561166a57600080fd5b505afa15801561167e573d6000803e3d6000fd5b505050506040513d602081101561169457600080fd5b50516040805163095ea7b360e01b81526001600160a01b0380841660048301526024820189905291519293509088169163095ea7b3916044808201926020929091908290030181600087803b1580156116ec57600080fd5b505af1158015611700573d6000803e3d6000fd5b505050506040513d602081101561171657600080fd5b50506068546040805163e8eda9df60e01b81526001600160a01b03898116600483015260248201899052306044830152600160a01b90930461ffff16606482015290519183169163e8eda9df9160848082019260009290919082900301818387803b15801561178457600080fd5b505af1158015611798573d6000803e3d6000fd5b505050506117ed82856001600160a01b03166370a08231306040518263ffffffff1660e01b815260040180826001600160a01b0316815260200191505060206040518083038186803b1580156114fc57600080fd5b925050509250929050565b60008261180757506000610a84565b8282028284828161181457fe5b04146118515760405162461bcd60e51b815260040180806020018281038252602181526020018061226b6021913960400191505060405180910390fd5b9392505050565b60008082116118ae576040805162461bcd60e51b815260206004820152601a60248201527f536166654d6174683a206469766973696f6e206279207a65726f000000000000604482015290519081900360640190fd5b8183816118b757fe5b049392505050565b60655460408051630e886beb60e21b815290516000926001600160a01b031691633a21afac916004808301926020929190829003018186803b15801561190457600080fd5b505afa158015611918573d6000803e3d6000fd5b505050506040513d602081101561192e57600080fd5b50516065546040805163095ea7b360e01b81526001600160a01b039283166004820152602481018690529051919092169163095ea7b39160448083019260209291908290030181600087803b15801561198657600080fd5b505af115801561199a573d6000803e3d6000fd5b505050506040513d60208110156119b057600080fd5b505060655460408051631b08c5a960e11b815260048101859052306024820152905147926001600160a01b0316916336118b5291604480830192600092919082900301818387803b158015611a0457600080fd5b505af1158015611a18573d6000803e3d6000fd5b505050506118518147611e2d90919063ffffffff16565b600080611a3b846104b0565b90506000606760009054906101000a90046001600160a01b03166001600160a01b0316630261bf8b6040518163ffffffff1660e01b815260040160206040518083038186803b158015611a8d57600080fd5b505afa158015611aa1573d6000803e3d6000fd5b505050506040513d6020811015611ab757600080fd5b5051604080516370a0823160e01b815230600482015290519192506000916001600160a01b038816916370a08231916024808301926020929190829003018186803b158015611b0557600080fd5b505afa158015611b19573d6000803e3d6000fd5b505050506040513d6020811015611b2f57600080fd5b50516040805163095ea7b360e01b81526001600160a01b0385811660048301526024820189905291519293509085169163095ea7b3916044808201926020929091908290030181600087803b158015611b8757600080fd5b505af1158015611b9b573d6000803e3d6000fd5b505050506040513d6020811015611bb157600080fd5b505060408051631a4ca37b60e21b81526001600160a01b038881166004830152602482018890523060448301529151918416916369328dec916064808201926020929091908290030181600087803b158015611c0c57600080fd5b505af1158015611c20573d6000803e3d6000fd5b505050506040513d6020811015611c3657600080fd5b5050604080516370a0823160e01b81523060048201529051611c849183916001600160a01b038a16916370a08231916024808301926020929190829003018186803b1580156114fc57600080fd5b9695505050505050565b3b151590565b600054610100900460ff1680611cad5750611cad611277565b80611cbb575060005460ff16155b611cf65760405162461bcd60e51b815260040180806020018281038252602e81526020018061223d602e913960400191505060405180910390fd5b600054610100900460ff16158015611325576000805460ff1961ff0019909116610100171660011790558015611337576000805461ff001916905550565b600054610100900460ff1680611d4d5750611d4d611277565b80611d5b575060005460ff16155b611d965760405162461bcd60e51b815260040180806020018281038252602e81526020018061223d602e913960400191505060405180910390fd5b600054610100900460ff16158015611dc1576000805460ff1961ff0019909116610100171660011790555b6000611dcb611273565b603380546001600160a01b0319166001600160a01b038316908117909155604051919250906000907f8be0079c531659141344cd1fd0a4f28419497f9722a3daafe3b4186f6b6457e0908290a3508015611337576000805461ff001916905550565b600082821115611e84576040805162461bcd60e51b815260206004820152601e60248201527f536166654d6174683a207375627472616374696f6e206f766572666c6f770000604482015290519081900360640190fd5b50900390565b6060611edf826040518060400160405280602081526020017f5361666545524332303a206c6f772d6c6576656c2063616c6c206661696c6564815250856001600160a01b0316611f409092919063ffffffff16565b805190915015611f3b57808060200190516020811015611efe57600080fd5b5051611f3b5760405162461bcd60e51b815260040180806020018281038252602a8152602001806122df602a913960400191505060405180910390fd5b505050565b6060611f4f8484600085611f57565b949350505050565b606082471015611f985760405162461bcd60e51b81526004018080602001828103825260268152602001806121f26026913960400191505060405180910390fd5b611fa185611c8e565b611ff2576040805162461bcd60e51b815260206004820152601d60248201527f416464726573733a2063616c6c20746f206e6f6e2d636f6e7472616374000000604482015290519081900360640190fd5b60006060866001600160a01b031685876040518082805190602001908083835b602083106120315780518252601f199092019160209182019101612012565b6001836020036101000a03801982511681845116808217855250505050505090500191505060006040518083038185875af1925050503d8060008114612093576040519150601f19603f3d011682016040523d82523d6000602084013e612098565b606091505b50915091506120a88282866120b3565b979650505050505050565b606083156120c2575081611851565b8251156120d25782518084602001fd5b8160405162461bcd60e51b81526004018080602001828103825283818151815260200191508051906020019080838360005b8381101561211c578181015183820152602001612104565b50505050905090810190601f1680156121495780820380516001836020036101000a031916815260200191505b509250505060405180910390fdfe4f776e61626c653a206e6577206f776e657220697320746865207a65726f2061646472657373496e766573743a2057455448476174657761793a3a207a65726f2061646472657373496e766573743a2070726f746f636f6c4461746150726f76696465723a3a207a65726f2061646472657373496e766573743a204f6e6c7920736176696e6773206163636f756e742063616e20696e766f6b65416464726573733a20696e73756666696369656e742062616c616e636520666f722063616c6c496e766573743a20536176696e67734163636f756e743a3a207a65726f2061646472657373496e697469616c697a61626c653a20636f6e747261637420697320616c726561647920696e697469616c697a6564536166654d6174683a206d756c7469706c69636174696f6e206f766572666c6f774f776e61626c653a2063616c6c6572206973206e6f7420746865206f776e6572496e766573743a206c656e64696e67506f6f6c41646472657373657350726f76696465723a3a207a65726f20616464726573735361666545524332303a204552433230206f7065726174696f6e20646964206e6f742073756363656564a2646970667358221220e427287a93777ca6e921899c8ada89b0d6092e320dbcf42c863ae53877e1412e64736f6c63430007000033",
  "linkReferences": {},
  "deployedLinkReferences": {}
}