{
  "_format": "hh-sol-artifact-1",
  "contractName": "TokenLogic",
  "sourceName": "contracts/governance/TokenLogic.sol",
  "abi": [
    {
      "anonymous": false,
      "inputs": [
        {
          "indexed": true,
          "internalType": "address",
          "name": "owner",
          "type": "address"
        },
        {
          "indexed": true,
          "internalType": "address",
          "name": "spender",
          "type": "address"
        },
        {
          "indexed": false,
          "internalType": "uint256",
          "name": "amount",
          "type": "uint256"
        }
      ],
      "name": "Approval",
      "type": "event"
    },
    {
      "anonymous": false,
      "inputs": [
        {
          "indexed": true,
          "internalType": "address",
          "name": "delegator",
          "type": "address"
        },
        {
          "indexed": true,
          "internalType": "address",
          "name": "fromDelegate",
          "type": "address"
        },
        {
          "indexed": true,
          "internalType": "address",
          "name": "toDelegate",
          "type": "address"
        }
      ],
      "name": "DelegateChanged",
      "type": "event"
    },
    {
      "anonymous": false,
      "inputs": [
        {
          "indexed": true,
          "internalType": "address",
          "name": "delegate",
          "type": "address"
        },
        {
          "indexed": false,
          "internalType": "uint256",
          "name": "previousBalance",
          "type": "uint256"
        },
        {
          "indexed": false,
          "internalType": "uint256",
          "name": "newBalance",
          "type": "uint256"
        }
      ],
      "name": "DelegateVotesChanged",
      "type": "event"
    },
    {
      "anonymous": false,
      "inputs": [
        {
          "indexed": true,
          "internalType": "address",
          "name": "from",
          "type": "address"
        },
        {
          "indexed": true,
          "internalType": "address",
          "name": "to",
          "type": "address"
        },
        {
          "indexed": false,
          "internalType": "uint256",
          "name": "amount",
          "type": "uint256"
        }
      ],
      "name": "Transfer",
      "type": "event"
    },
    {
      "inputs": [],
      "name": "DELEGATION_TYPEHASH",
      "outputs": [
        {
          "internalType": "bytes32",
          "name": "",
          "type": "bytes32"
        }
      ],
      "stateMutability": "view",
      "type": "function"
    },
    {
      "inputs": [],
      "name": "DOMAIN_TYPEHASH",
      "outputs": [
        {
          "internalType": "bytes32",
          "name": "",
          "type": "bytes32"
        }
      ],
      "stateMutability": "view",
      "type": "function"
    },
    {
      "inputs": [],
      "name": "UNDELEGATION_TYPEHASH",
      "outputs": [
        {
          "internalType": "bytes32",
          "name": "",
          "type": "bytes32"
        }
      ],
      "stateMutability": "view",
      "type": "function"
    },
    {
      "inputs": [],
      "name": "admin",
      "outputs": [
        {
          "internalType": "address",
          "name": "",
          "type": "address"
        }
      ],
      "stateMutability": "view",
      "type": "function"
    },
    {
      "inputs": [
        {
          "internalType": "address",
          "name": "account",
          "type": "address"
        },
        {
          "internalType": "address",
          "name": "spender",
          "type": "address"
        }
      ],
      "name": "allowance",
      "outputs": [
        {
          "internalType": "uint256",
          "name": "",
          "type": "uint256"
        }
      ],
      "stateMutability": "view",
      "type": "function"
    },
    {
      "inputs": [
        {
          "internalType": "address",
          "name": "spender",
          "type": "address"
        },
        {
          "internalType": "uint256",
          "name": "rawAmount",
          "type": "uint256"
        }
      ],
      "name": "approve",
      "outputs": [
        {
          "internalType": "bool",
          "name": "",
          "type": "bool"
        }
      ],
      "stateMutability": "nonpayable",
      "type": "function"
    },
    {
      "inputs": [
        {
          "internalType": "address",
          "name": "account",
          "type": "address"
        }
      ],
      "name": "balanceOf",
      "outputs": [
        {
          "internalType": "uint256",
          "name": "",
          "type": "uint256"
        }
      ],
      "stateMutability": "view",
      "type": "function"
    },
    {
      "inputs": [],
      "name": "bridgeSupply",
      "outputs": [
        {
          "internalType": "uint256",
          "name": "",
          "type": "uint256"
        }
      ],
      "stateMutability": "view",
      "type": "function"
    },
    {
      "inputs": [
        {
          "internalType": "address",
          "name": "",
          "type": "address"
        },
        {
          "internalType": "uint32",
          "name": "",
          "type": "uint32"
        }
      ],
      "name": "checkpoints",
      "outputs": [
        {
          "internalType": "uint32",
          "name": "fromBlock",
          "type": "uint32"
        },
        {
          "internalType": "uint96",
          "name": "votes",
          "type": "uint96"
        }
      ],
      "stateMutability": "view",
      "type": "function"
    },
    {
      "inputs": [],
      "name": "decimals",
      "outputs": [
        {
          "internalType": "uint8",
          "name": "",
          "type": "uint8"
        }
      ],
      "stateMutability": "view",
      "type": "function"
    },
    {
      "inputs": [
        {
          "internalType": "address",
          "name": "spender",
          "type": "address"
        },
        {
          "internalType": "uint256",
          "name": "removedAmount",
          "type": "uint256"
        }
      ],
      "name": "decreaseAllowance",
      "outputs": [
        {
          "internalType": "bool",
          "name": "",
          "type": "bool"
        }
      ],
      "stateMutability": "nonpayable",
      "type": "function"
    },
    {
      "inputs": [
        {
          "internalType": "address",
          "name": "delegatee",
          "type": "address"
        },
        {
          "internalType": "uint96",
          "name": "amount",
          "type": "uint96"
        }
      ],
      "name": "delegate",
      "outputs": [],
      "stateMutability": "nonpayable",
      "type": "function"
    },
    {
      "inputs": [
        {
          "internalType": "address",
          "name": "delegatee",
          "type": "address"
        },
        {
          "internalType": "uint256",
          "name": "nonce",
          "type": "uint256"
        },
        {
          "internalType": "uint256",
          "name": "expiry",
          "type": "uint256"
        },
        {
          "internalType": "uint8",
          "name": "v",
          "type": "uint8"
        },
        {
          "internalType": "bytes32",
          "name": "r",
          "type": "bytes32"
        },
        {
          "internalType": "bytes32",
          "name": "s",
          "type": "bytes32"
        },
        {
          "internalType": "uint96",
          "name": "amount",
          "type": "uint96"
        }
      ],
      "name": "delegateBySig",
      "outputs": [],
      "stateMutability": "nonpayable",
      "type": "function"
    },
    {
      "inputs": [
        {
          "internalType": "address",
          "name": "",
          "type": "address"
        },
        {
          "internalType": "address",
          "name": "",
          "type": "address"
        }
      ],
      "name": "delegates",
      "outputs": [
        {
          "internalType": "uint96",
          "name": "",
          "type": "uint96"
        }
      ],
      "stateMutability": "view",
      "type": "function"
    },
    {
      "inputs": [
        {
          "internalType": "address",
          "name": "account",
          "type": "address"
        }
      ],
      "name": "getCurrentVotes",
      "outputs": [
        {
          "internalType": "uint96",
          "name": "",
          "type": "uint96"
        }
      ],
      "stateMutability": "view",
      "type": "function"
    },
    {
      "inputs": [
        {
          "internalType": "address",
          "name": "account",
          "type": "address"
        },
        {
          "internalType": "uint256",
          "name": "blockNumber",
          "type": "uint256"
        }
      ],
      "name": "getPriorVotes",
      "outputs": [
        {
          "internalType": "uint96",
          "name": "",
          "type": "uint96"
        }
      ],
      "stateMutability": "view",
      "type": "function"
    },
    {
      "inputs": [
        {
          "internalType": "address",
          "name": "spender",
          "type": "address"
        },
        {
          "internalType": "uint256",
          "name": "addedAmount",
          "type": "uint256"
        }
      ],
      "name": "increaseAllowance",
      "outputs": [
        {
          "internalType": "bool",
          "name": "",
          "type": "bool"
        }
      ],
      "stateMutability": "nonpayable",
      "type": "function"
    },
    {
      "inputs": [
        {
          "internalType": "address",
          "name": "account",
          "type": "address"
        },
        {
          "internalType": "address",
          "name": "bridge",
          "type": "address"
        }
      ],
      "name": "initialize",
      "outputs": [],
      "stateMutability": "nonpayable",
      "type": "function"
    },
    {
      "inputs": [],
      "name": "name",
      "outputs": [
        {
          "internalType": "string",
          "name": "",
          "type": "string"
        }
      ],
      "stateMutability": "view",
      "type": "function"
    },
    {
      "inputs": [
        {
          "internalType": "address",
          "name": "",
          "type": "address"
        }
      ],
      "name": "nonces",
      "outputs": [
        {
          "internalType": "uint256",
          "name": "",
          "type": "uint256"
        }
      ],
      "stateMutability": "view",
      "type": "function"
    },
    {
      "inputs": [
        {
          "internalType": "address",
          "name": "",
          "type": "address"
        }
      ],
      "name": "numCheckpoints",
      "outputs": [
        {
          "internalType": "uint32",
          "name": "",
          "type": "uint32"
        }
      ],
      "stateMutability": "view",
      "type": "function"
    },
    {
      "inputs": [],
      "name": "symbol",
      "outputs": [
        {
          "internalType": "string",
          "name": "",
          "type": "string"
        }
      ],
      "stateMutability": "view",
      "type": "function"
    },
    {
      "inputs": [],
      "name": "totalSupply",
      "outputs": [
        {
          "internalType": "uint256",
          "name": "",
          "type": "uint256"
        }
      ],
      "stateMutability": "view",
      "type": "function"
    },
    {
      "inputs": [
        {
          "internalType": "address",
          "name": "dst",
          "type": "address"
        },
        {
          "internalType": "uint256",
          "name": "rawAmount",
          "type": "uint256"
        }
      ],
      "name": "transfer",
      "outputs": [
        {
          "internalType": "bool",
          "name": "",
          "type": "bool"
        }
      ],
      "stateMutability": "nonpayable",
      "type": "function"
    },
    {
      "inputs": [
        {
          "internalType": "address",
          "name": "src",
          "type": "address"
        },
        {
          "internalType": "address",
          "name": "dst",
          "type": "address"
        },
        {
          "internalType": "uint256",
          "name": "rawAmount",
          "type": "uint256"
        }
      ],
      "name": "transferFrom",
      "outputs": [
        {
          "internalType": "bool",
          "name": "",
          "type": "bool"
        }
      ],
      "stateMutability": "nonpayable",
      "type": "function"
    },
    {
      "inputs": [
        {
          "internalType": "address",
          "name": "delegatee",
          "type": "address"
        },
        {
          "internalType": "uint96",
          "name": "amount",
          "type": "uint96"
        }
      ],
      "name": "undelegate",
      "outputs": [],
      "stateMutability": "nonpayable",
      "type": "function"
    },
    {
      "inputs": [
        {
          "internalType": "address",
          "name": "delegatee",
          "type": "address"
        },
        {
          "internalType": "uint256",
          "name": "nonce",
          "type": "uint256"
        },
        {
          "internalType": "uint256",
          "name": "expiry",
          "type": "uint256"
        },
        {
          "internalType": "uint8",
          "name": "v",
          "type": "uint8"
        },
        {
          "internalType": "bytes32",
          "name": "r",
          "type": "bytes32"
        },
        {
          "internalType": "bytes32",
          "name": "s",
          "type": "bytes32"
        },
        {
          "internalType": "uint96",
          "name": "amount",
          "type": "uint96"
        }
      ],
      "name": "undelegateBySig",
      "outputs": [],
      "stateMutability": "nonpayable",
      "type": "function"
    }
  ],
  "bytecode": "0x608060405234801561001057600080fd5b50612783806100206000396000f3fe608060405234801561001057600080fd5b50600436106101a95760003560e01c80637ecebe00116100f9578063b937134311610097578063e584324211610071578063e58432421461036f578063e7a324dc14610382578063f1127ed81461038a578063f851a440146103ab576101a9565b8063b937134314610341578063dd62ed3e14610349578063e1032b831461035c576101a9565b8063a457c2d7116100d3578063a457c2d7146102f5578063a65835da14610308578063a9059cbb1461031b578063b4b5ea571461032e576101a9565b80637ecebe00146102c75780638b41166c146102da57806395d89b41146102ed576101a9565b806323b872dd11610166578063485cc95511610140578063485cc955146102615780636fcfff451461027457806370a0823114610294578063782d6fe1146102a7576101a9565b806323b872dd14610226578063313ce56714610239578063395093511461024e576101a9565b806302cb3a88146101ae57806306fdde03146101c3578063095ea7b3146101e157806316aeac201461020157806318160ddd1461021657806320606b701461021e575b600080fd5b6101c16101bc366004611de8565b6103c0565b005b6101cb61056c565b6040516101d89190611fee565b60405180910390f35b6101f46101ef366004611dbe565b6105f9565b6040516101d89190611f63565b6102096106b8565b6040516101d89190611f6e565b6102096106be565b6102096106c4565b6101f4610234366004611d7e565b6106ca565b610241610811565b6040516101d89190612431565b6101f461025c366004611dbe565b61081a565b6101c161026f366004611d4a565b61091b565b610287610282366004611d2f565b610b2a565b6040516101d89190612401565b6102096102a2366004611d2f565b610b42565b6102ba6102b5366004611dbe565b610b66565b6040516101d8919061243f565b6102096102d5366004611d2f565b610d74565b6101c16102e8366004611e99565b610d86565b6101cb610d95565b6101f4610303366004611dbe565b610ded565b6101c1610316366004611de8565b610e7b565b6101f4610329366004611dbe565b611011565b6102ba61033c366004611d2f565b61104d565b6102096110be565b610209610357366004611d4a565b6110c4565b6101c161036a366004611e99565b6110f8565b6102ba61037d366004611d4a565b611103565b610209611129565b61039d610398366004611e5a565b61112f565b6040516101d8929190612412565b6103b3611164565b6040516101d89190611f4f565b6000600b5460016040516103d49190611ec4565b60405180910390206103e4611173565b306040516020016103f89493929190611fac565b6040516020818303038152906040528051906020012090506000600d548989898660405160200161042d959493929190611f77565b6040516020818303038152906040528051906020012090506000828260405160200161045a929190611f34565b6040516020818303038152906040528051906020012090506000600182898989604051600081526020016040526040516104979493929190611fd0565b6020604051602081039080840390855afa1580156104b9573d6000803e3d6000fd5b5050604051601f1901519150506001600160a01b0381166104f55760405162461bcd60e51b81526004016104ec906123b8565b60405180910390fd5b6001600160a01b0381166000908152600e602052604090208054600181019091558a146105345760405162461bcd60e51b81526004016104ec90612373565b884211156105545760405162461bcd60e51b81526004016104ec9061232a565b61055f818c87611177565b5050505050505050505050565b60018054604080516020600284861615610100026000190190941693909304601f810184900484028201840190925281815292918301828280156105f15780601f106105c6576101008083540402835291602001916105f1565b820191906000526020600020905b8154815290600101906020018083116105d457829003601f168201915b505050505081565b60008060001983141561060f5750600019610634565b610631836040518060600160405280602681526020016125be602691396112f0565b90505b3360008181526006602090815260408083206001600160a01b03891680855292529182902080546001600160601b0319166001600160601b03861617905590519091907f8c5be1e5ebec7d5bd14f71427d1e84f3dd0314c0f7b2291e5b200ac8c7c3b925906106a490859061243f565b60405180910390a360019150505b92915050565b600d5481565b60045481565b600b5481565b6001600160a01b03831660009081526006602090815260408083203380855290835281842054825160608101909352602680845291936001600160601b0390911692859261072292889291906125be908301396112f0565b9050866001600160a01b0316836001600160a01b03161415801561074f57506001600160601b0382811614155b156107f957600061077983836040518060600160405280603e81526020016124ef603e913961131f565b6001600160a01b038981166000818152600660209081526040808320948a16808452949091529081902080546001600160601b0319166001600160601b0386161790555192935090917f8c5be1e5ebec7d5bd14f71427d1e84f3dd0314c0f7b2291e5b200ac8c7c3b925906107ef90859061243f565b60405180910390a3505b61080487878361135e565b5060019695505050505050565b60035460ff1681565b6000806000198314156108305750600019610855565b610852836040518060600160405280602b81526020016125e4602b91396112f0565b90505b3360009081526006602090815260408083206001600160a01b03881684528252918290205482516060810190935260328084526108a8936001600160601b0390921692859291906124bd90830139611619565b3360008181526006602090815260408083206001600160a01b038a1680855292529182902080546001600160601b0319166001600160601b039586161790819055915190937f8c5be1e5ebec7d5bd14f71427d1e84f3dd0314c0f7b2291e5b200ac8c7c3b925926106a49291169061243f565b600054610100900460ff16806109345750610934611655565b80610942575060005460ff16155b61095e5760405162461bcd60e51b81526004016104ec90612295565b600054610100900460ff16158015610989576000805460ff1961ff0019909116610100171660011790555b610991611666565b816001600160a01b0316836001600160a01b031614156109c35760405162461bcd60e51b81526004016104ec906121ba565b600580546001600160a01b038416600081815260076020908152604080832080546001600160601b039687166001600160601b031991821617909155865460088452828520858052909352818420805493909616921691909117909355925491519092917fddf252ad1be2c89b69c2b068fc378daa952ba7f163c4a11628f55a4df523b3ef91610a539190611f6e565b60405180910390a36000610a846004546005546040518060600160405280602e815260200161266d602e913961131f565b6001600160a01b038516600081815260076020908152604080832080546001600160601b0387166001600160601b03199182168117909255600884528285208580529093528184208054909316811790925551939450919290917fddf252ad1be2c89b69c2b068fc378daa952ba7f163c4a11628f55a4df523b3ef91610b0a9190611f6e565b60405180910390a3508015610b25576000805461ff00191690555b505050565b600a6020526000908152604090205463ffffffff1681565b6001600160a01b03166000908152600760205260409020546001600160601b031690565b6000438210610b875760405162461bcd60e51b81526004016104ec90612041565b6001600160a01b0383166000908152600a602052604090205463ffffffff1680610bb55760009150506106b2565b6001600160a01b038416600090815260096020908152604080832063ffffffff600019860181168552925290912054168310610c31576001600160a01b03841660009081526009602090815260408083206000199490940163ffffffff1683529290522054600160201b90046001600160601b031690506106b2565b6001600160a01b038416600090815260096020908152604080832083805290915290205463ffffffff16831015610c6c5760009150506106b2565b600060001982015b8163ffffffff168163ffffffff161115610d2f57600282820363ffffffff16048103610c9e611c57565b506001600160a01b038716600090815260096020908152604080832063ffffffff858116855290835292819020815180830190925254928316808252600160201b9093046001600160601b03169181019190915290871415610d0a576020015194506106b29350505050565b805163ffffffff16871115610d2157819350610d28565b6001820392505b5050610c74565b506001600160a01b038516600090815260096020908152604080832063ffffffff909416835292905220546001600160601b03600160201b9091041691505092915050565b600e6020526000908152604090205481565b610d9133838361176a565b5050565b6002805460408051602060018416156101000260001901909316849004601f810184900484028201840190925281815292918301828280156105f15780601f106105c6576101008083540402835291602001916105f1565b600080600019831415610e035750600019610e28565b610e25836040518060600160405280602d8152602001612591602d91396112f0565b90505b3360009081526006602090815260408083206001600160a01b03881684528252918290205482516060810190935260338084526108a8936001600160601b0390921692859291906126cc9083013961131f565b6000600b546001604051610e8f9190611ec4565b6040518091039020610e9f611173565b30604051602001610eb39493929190611fac565b6040516020818303038152906040528051906020012090506000600c5489898986604051602001610ee8959493929190611f77565b60405160208183030381529060405280519060200120905060008282604051602001610f15929190611f34565b604051602081830303815290604052805190602001209050600060018289898960405160008152602001604052604051610f529493929190611fd0565b6020604051602081039080840390855afa158015610f74573d6000803e3d6000fd5b5050604051601f1901519150506001600160a01b038116610fa75760405162461bcd60e51b81526004016104ec9061220b565b6001600160a01b0381166000908152600e602052604090208054600181019091558a14610fe65760405162461bcd60e51b81526004016104ec90612252565b884211156110065760405162461bcd60e51b81526004016104ec906122e3565b61055f818c8761176a565b60008061103683604051806060016040528060278152602001612727602791396112f0565b905061104333858361135e565b5060019392505050565b6001600160a01b0381166000908152600a602052604081205463ffffffff16806110785760006110b7565b6001600160a01b0383166000908152600960209081526040808320600019850163ffffffff168452909152902054600160201b90046001600160601b03165b9392505050565b60055481565b6001600160a01b0391821660009081526006602090815260408083209390941682529190915220546001600160601b031690565b610d91338383611177565b60086020908152600092835260408084209091529082529020546001600160601b031681565b600c5481565b600960209081526000928352604080842090915290825290205463ffffffff811690600160201b90046001600160601b031682565b600f546001600160a01b031681565b4690565b6001600160a01b038084166000908152600860209081526040808320938616835292815290829020548251808401909352601c83527f546f6b656e3a20756e64656c65676174657320756e646572666c6f7700000000918301919091526111eb916001600160601b0390911690839061131f565b6001600160a01b038481166000908152600860209081526040808320938716835292815282822080546001600160601b0319166001600160601b0395861617905581805290829020548251808401909352601a83527f546f6b656e3a2064656c65676174657320756e646572666c6f77000000000000918301919091526112759216908390611619565b6001600160a01b03848116600081815260086020908152604080832083805290915280822080546001600160601b0319166001600160601b0396909616959095179094559251918516917f3134e8a2e6d97e929a7e54011ea5485d7d196dd5f0ba4d4ef95803e8e3fc257f908490a4610b25826000836118dd565b600081600160601b84106113175760405162461bcd60e51b81526004016104ec9190611fee565b509192915050565b6000836001600160601b0316836001600160601b0316111582906113565760405162461bcd60e51b81526004016104ec9190611fee565b505050900390565b6001600160a01b0383166113845760405162461bcd60e51b81526004016104ec90612089565b6001600160a01b03831660009081526008602090815260408083208380529091529020546001600160601b03808316911610156113d35760405162461bcd60e51b81526004016104ec90612143565b6001600160a01b0382166113f95760405162461bcd60e51b81526004016104ec906120e6565b6001600160a01b038316600090815260076020908152604091829020548251606081019093526037808452611444936001600160601b0390921692859291906124869083013961131f565b6001600160a01b038416600090815260076020908152604080832080546001600160601b0319166001600160601b03958616179055600882528083208380528252918290205482516060810190935260338084526114b2949190911692859290919061252d9083013961131f565b6001600160a01b038481166000908152600860209081526040808320838052825280832080546001600160601b0319166001600160601b0396871617905592861682526007815290829020548251606081019093526031808452611526949190911692859290919061256090830139611619565b6001600160a01b038316600090815260076020908152604080832080546001600160601b0319166001600160601b0395861617905560088252808320838052825291829020548251606081019093526031808452611594949190911692859290919061269b90830139611619565b6001600160a01b0383811660008181526008602090815260408083208380529091529081902080546001600160601b0319166001600160601b0395909516949094179093559151908516907fddf252ad1be2c89b69c2b068fc378daa952ba7f163c4a11628f55a4df523b3ef9061160c90859061243f565b60405180910390a3505050565b6000838301826001600160601b03808716908316101561164c5760405162461bcd60e51b81526004016104ec9190611fee565b50949350505050565b600061166030611a76565b15905090565b604080518082019091526007808252665375626c696d6560c81b602090920191825261169491600191611c6e565b50604080518082019091526004808252634c494d4560e01b60209092019182526116c091600291611c6e565b506003805460ff1916601217905569021e19e0c9bab240000060045569017b7883c069166000006005557f8cad95687ba82c2ce50e74f7b754645e5117c3a5bec8151c0726d5857980a866600b557fee15044614b31d47e846313dae86ff14f14a42386a492dcc6b086cdd1600a14a600c557f3001685306e2a9f6f760b7c5c2d24b3cda3fd7534488f2cedcaf2728fb7d99d6600d55600f80546001600160a01b03191633179055565b6001600160a01b0383166000908152600860209081526040808320838052825291829020548251808401909352601a83527f546f6b656e3a2064656c65676174657320756e646572666c6f77000000000000918301919091526117da916001600160601b0390911690839061131f565b6001600160a01b038481166000908152600860209081526040808320838052825280832080546001600160601b0319166001600160601b03968716179055928616825290829020548251808401909352601983527f546f6b656e3a2064656c656761746573206f766572666c6f7700000000000000918301919091526118639216908390611619565b6001600160a01b0384811660008181526008602090815260408083209488168084529490915280822080546001600160601b0319166001600160601b03969096169590951790945592519192917f3134e8a2e6d97e929a7e54011ea5485d7d196dd5f0ba4d4ef95803e8e3fc257f908390a4610b25600083835b816001600160a01b0316836001600160a01b03161415801561190757506001600160601b03811615155b15610b25576001600160a01b038316156119bf576001600160a01b0383166000908152600a602052604081205463ffffffff169081611947576000611986565b6001600160a01b0385166000908152600960209081526040808320600019860163ffffffff168452909152902054600160201b90046001600160601b03165b905060006119ad82856040518060600160405280602981526020016126446029913961131f565b90506119bb86848484611a7c565b5050505b6001600160a01b03821615610b25576001600160a01b0382166000908152600a602052604081205463ffffffff1690816119fa576000611a39565b6001600160a01b0384166000908152600960209081526040808320600019860163ffffffff168452909152902054600160201b90046001600160601b03165b90506000611a6082856040518060600160405280602881526020016126ff60289139611619565b9050611a6e85848484611a7c565b505050505050565b3b151590565b6000611aa04360405180606001604052806035815260200161260f60359139611c30565b905063ffffffff841615801590611ae857506001600160a01b038516600090815260096020908152604080832063ffffffff6000198901811685529252909120548282169116145b15611b47576001600160a01b0385166000908152600960209081526040808320600019880163ffffffff168452909152902080546fffffffffffffffffffffffff000000001916600160201b6001600160601b03851602179055611be6565b60408051808201825263ffffffff80841682526001600160601b0380861660208085019182526001600160a01b038b166000818152600983528781208c871682528352878120965187549451909516600160201b026fffffffffffffffffffffffff000000001995871663ffffffff19958616179590951694909417909555938252600a90935292909220805460018801909316929091169190911790555b846001600160a01b03167fdec2bacdd2f05b59de34da9b523dff8be42e5e38e818c82fdb0bae774387a7248484604051611c21929190612453565b60405180910390a25050505050565b600081600160201b84106113175760405162461bcd60e51b81526004016104ec9190611fee565b604080518082019091526000808252602082015290565b828054600181600116156101000203166002900490600052602060002090601f016020900481019282601f10611caf57805160ff1916838001178555611cdc565b82800160010185558215611cdc579182015b82811115611cdc578251825591602001919060010190611cc1565b50611ce8929150611cec565b5090565b5b80821115611ce85760008155600101611ced565b80356001600160a01b03811681146106b257600080fd5b80356001600160601b03811681146106b257600080fd5b600060208284031215611d40578081fd5b6110b78383611d01565b60008060408385031215611d5c578081fd5b611d668484611d01565b9150611d758460208501611d01565b90509250929050565b600080600060608486031215611d92578081fd5b8335611d9d8161246d565b92506020840135611dad8161246d565b929592945050506040919091013590565b60008060408385031215611dd0578182fd5b611dda8484611d01565b946020939093013593505050565b600080600080600080600060e0888a031215611e02578283fd5b611e0c8989611d01565b96506020880135955060408801359450606088013560ff81168114611e2f578384fd5b93506080880135925060a08801359150611e4c8960c08a01611d18565b905092959891949750929550565b60008060408385031215611e6c578182fd5b611e768484611d01565b9150602083013563ffffffff81168114611e8e578182fd5b809150509250929050565b60008060408385031215611eab578182fd5b611eb58484611d01565b9150611d758460208501611d18565b6000808354600180821660008114611ee35760018114611efa57611f29565b60ff198316865260028304607f1686019350611f29565b600283048786526020808720875b83811015611f215781548a820152908501908201611f08565b505050860193505b509195945050505050565b61190160f01b81526002810192909252602282015260420190565b6001600160a01b0391909116815260200190565b901515815260200190565b90815260200190565b9485526001600160a01b03939093166020850152604084019190915260608301526001600160601b0316608082015260a00190565b938452602084019290925260408301526001600160a01b0316606082015260800190565b93845260ff9290921660208401526040830152606082015260800190565b6000602080835283518082850152825b8181101561201a57858101830151858201604001528201611ffe565b8181111561202b5783604083870101525b50601f01601f1916929092016040019392505050565b60208082526028908201527f546f6b656e3a3a6765745072696f72566f7465733a206e6f74207965742064656040820152671d195c9b5a5b995960c21b606082015260800190565b6020808252603d908201527f546f6b656e3a3a5f7472616e73666572546f6b656e733a2063616e6e6f74207460408201527f72616e736665722066726f6d20746865207a65726f2061646472657373000000606082015260800190565b6020808252603b908201527f546f6b656e3a3a5f7472616e73666572546f6b656e733a2063616e6e6f74207460408201527f72616e7366657220746f20746865207a65726f20616464726573730000000000606082015260800190565b60208082526051908201527f546f6b656e3a205f7472616e73666572546f6b656e733a20756e64656c65676160408201527f74656420616d6f756e742073686f756c642062652067726561746572207468616060820152701b881d1c985b9cd9995c88185b5bdd5b9d607a1b608082015260a00190565b60208082526031908201527f42726964676520616e64206163636f756e742073686f756c64206e6f74206265604082015270207468652073616d65206164647265737360781b606082015260800190565b60208082526027908201527f546f6b656e3a3a64656c656761746542795369673a20696e76616c6964207369604082015266676e617475726560c81b606082015260800190565b60208082526023908201527f546f6b656e3a3a64656c656761746542795369673a20696e76616c6964206e6f6040820152626e636560e81b606082015260800190565b6020808252602e908201527f496e697469616c697a61626c653a20636f6e747261637420697320616c72656160408201526d191e481a5b9a5d1a585b1a5e995960921b606082015260800190565b60208082526027908201527f546f6b656e3a3a64656c656761746542795369673a207369676e617475726520604082015266195e1c1a5c995960ca1b606082015260800190565b60208082526029908201527f546f6b656e3a3a756e64656c656761746542795369673a207369676e617475726040820152681948195e1c1a5c995960ba1b606082015260800190565b60208082526025908201527f546f6b656e3a3a756e64656c656761746542795369673a20696e76616c6964206040820152646e6f6e636560d81b606082015260800190565b60208082526029908201527f546f6b656e3a3a756e64656c656761746542795369673a20696e76616c6964206040820152687369676e617475726560b81b606082015260800190565b63ffffffff91909116815260200190565b63ffffffff9290921682526001600160601b0316602082015260400190565b60ff91909116815260200190565b6001600160601b0391909116815260200190565b6001600160601b0392831681529116602082015260400190565b6001600160a01b038116811461248257600080fd5b5056fe546f6b656e3a3a5f7472616e73666572546f6b656e733a207472616e7366657220616d6f756e7420657863656564732062616c616e6365546f6b656e3a20696e637265617365416c6c6f77616e636520616c6c6f77616e63652076616c7565206f766572666c6f7773546f6b656e3a3a7472616e7366657246726f6d3a207472616e7366657220616d6f756e742065786365656473207370656e64657220616c6c6f77616e6365546f6b656e3a205f7472616e666572546f6b656e733a20756e64656c6567617465207375627472616374696f6e206572726f72546f6b656e3a3a5f7472616e73666572546f6b656e733a207472616e7366657220616d6f756e74206f766572666c6f7773546f6b656e3a3a617070726f76653a2072656d6f766564416d6f756e7420657863656564732039362062697473546f6b656e3a3a617070726f76653a20616d6f756e7420657863656564732039362062697473546f6b656e3a3a617070726f76653a206164646564416d6f756e7420657863656564732039362062697473546f6b656e3a3a5f7772697465436865636b706f696e743a20626c6f636b206e756d62657220657863656564732033322062697473546f6b656e3a3a5f6d6f7665566f7465733a20766f746520616d6f756e7420756e646572666c6f7773546f6b656e3a205375627472616374696f6e206f766572666c6f7720696e2074686520636f6e7374727563746f72546f6b656e3a205f7472616e73666572546f6b656e733a20756e64656c6567617465206164646974696f6e206572726f72546f6b656e3a206465637265617365416c6c6f77616e636520616c6c6f77616e63652076616c756520756e646572666c6f7773546f6b656e3a3a5f6d6f7665566f7465733a20766f746520616d6f756e74206f766572666c6f7773546f6b656e3a3a7472616e736665723a20616d6f756e7420657863656564732039362062697473a264697066735822122036bc000a0c9e5e5e4a1783e9940f2993f77209de39a8d3ffd815a3ac9d333c8b64736f6c63430007000033",
  "linkReferences": {},
  "deployedLinkReferences": {}
}