{
  "_format": "hh-sol-artifact-1",
  "contractName": "PoolToken",
  "sourceName": "contracts/Pool/PoolToken.sol",
  "abi": [
    {
      "inputs": [
        {
          "internalType": "string",
          "name": "name",
          "type": "string"
        },
        {
          "internalType": "string",
          "name": "symbol",
          "type": "string"
        },
        {
          "internalType": "address",
          "name": "_pool",
          "type": "address"
        }
      ],
      "stateMutability": "nonpayable",
      "type": "constructor"
    },
    {
      "anonymous": false,
      "inputs": [
        {
          "indexed": true,
          "internalType": "address",
          "name": "owner",
          "type": "address"
        },
        {
          "indexed": true,
          "internalType": "address",
          "name": "spender",
          "type": "address"
        },
        {
          "indexed": false,
          "internalType": "uint256",
          "name": "value",
          "type": "uint256"
        }
      ],
      "name": "Approval",
      "type": "event"
    },
    {
      "anonymous": false,
      "inputs": [
        {
          "indexed": false,
          "internalType": "address",
          "name": "account",
          "type": "address"
        }
      ],
      "name": "Paused",
      "type": "event"
    },
    {
      "anonymous": false,
      "inputs": [
        {
          "indexed": true,
          "internalType": "bytes32",
          "name": "role",
          "type": "bytes32"
        },
        {
          "indexed": true,
          "internalType": "bytes32",
          "name": "previousAdminRole",
          "type": "bytes32"
        },
        {
          "indexed": true,
          "internalType": "bytes32",
          "name": "newAdminRole",
          "type": "bytes32"
        }
      ],
      "name": "RoleAdminChanged",
      "type": "event"
    },
    {
      "anonymous": false,
      "inputs": [
        {
          "indexed": true,
          "internalType": "bytes32",
          "name": "role",
          "type": "bytes32"
        },
        {
          "indexed": true,
          "internalType": "address",
          "name": "account",
          "type": "address"
        },
        {
          "indexed": true,
          "internalType": "address",
          "name": "sender",
          "type": "address"
        }
      ],
      "name": "RoleGranted",
      "type": "event"
    },
    {
      "anonymous": false,
      "inputs": [
        {
          "indexed": true,
          "internalType": "bytes32",
          "name": "role",
          "type": "bytes32"
        },
        {
          "indexed": true,
          "internalType": "address",
          "name": "account",
          "type": "address"
        },
        {
          "indexed": true,
          "internalType": "address",
          "name": "sender",
          "type": "address"
        }
      ],
      "name": "RoleRevoked",
      "type": "event"
    },
    {
      "anonymous": false,
      "inputs": [
        {
          "indexed": true,
          "internalType": "address",
          "name": "from",
          "type": "address"
        },
        {
          "indexed": true,
          "internalType": "address",
          "name": "to",
          "type": "address"
        },
        {
          "indexed": false,
          "internalType": "uint256",
          "name": "value",
          "type": "uint256"
        }
      ],
      "name": "Transfer",
      "type": "event"
    },
    {
      "anonymous": false,
      "inputs": [
        {
          "indexed": false,
          "internalType": "address",
          "name": "account",
          "type": "address"
        }
      ],
      "name": "Unpaused",
      "type": "event"
    },
    {
      "inputs": [],
      "name": "BURNER_ROLE",
      "outputs": [
        {
          "internalType": "bytes32",
          "name": "",
          "type": "bytes32"
        }
      ],
      "stateMutability": "view",
      "type": "function"
    },
    {
      "inputs": [],
      "name": "DEFAULT_ADMIN_ROLE",
      "outputs": [
        {
          "internalType": "bytes32",
          "name": "",
          "type": "bytes32"
        }
      ],
      "stateMutability": "view",
      "type": "function"
    },
    {
      "inputs": [],
      "name": "MINTER_ROLE",
      "outputs": [
        {
          "internalType": "bytes32",
          "name": "",
          "type": "bytes32"
        }
      ],
      "stateMutability": "view",
      "type": "function"
    },
    {
      "inputs": [],
      "name": "PAUSER_ROLE",
      "outputs": [
        {
          "internalType": "bytes32",
          "name": "",
          "type": "bytes32"
        }
      ],
      "stateMutability": "view",
      "type": "function"
    },
    {
      "inputs": [
        {
          "internalType": "address",
          "name": "owner",
          "type": "address"
        },
        {
          "internalType": "address",
          "name": "spender",
          "type": "address"
        }
      ],
      "name": "allowance",
      "outputs": [
        {
          "internalType": "uint256",
          "name": "",
          "type": "uint256"
        }
      ],
      "stateMutability": "view",
      "type": "function"
    },
    {
      "inputs": [
        {
          "internalType": "address",
          "name": "spender",
          "type": "address"
        },
        {
          "internalType": "uint256",
          "name": "amount",
          "type": "uint256"
        }
      ],
      "name": "approve",
      "outputs": [
        {
          "internalType": "bool",
          "name": "",
          "type": "bool"
        }
      ],
      "stateMutability": "nonpayable",
      "type": "function"
    },
    {
      "inputs": [
        {
          "internalType": "address",
          "name": "account",
          "type": "address"
        }
      ],
      "name": "balanceOf",
      "outputs": [
        {
          "internalType": "uint256",
          "name": "",
          "type": "uint256"
        }
      ],
      "stateMutability": "view",
      "type": "function"
    },
    {
      "inputs": [
        {
          "internalType": "uint256",
          "name": "amount",
          "type": "uint256"
        }
      ],
      "name": "burn",
      "outputs": [],
      "stateMutability": "nonpayable",
      "type": "function"
    },
    {
      "inputs": [
        {
          "internalType": "address",
          "name": "user",
          "type": "address"
        },
        {
          "internalType": "uint256",
          "name": "amount",
          "type": "uint256"
        }
      ],
      "name": "burn",
      "outputs": [],
      "stateMutability": "nonpayable",
      "type": "function"
    },
    {
      "inputs": [
        {
          "internalType": "address",
          "name": "account",
          "type": "address"
        },
        {
          "internalType": "uint256",
          "name": "amount",
          "type": "uint256"
        }
      ],
      "name": "burnFrom",
      "outputs": [],
      "stateMutability": "nonpayable",
      "type": "function"
    },
    {
      "inputs": [],
      "name": "decimals",
      "outputs": [
        {
          "internalType": "uint8",
          "name": "",
          "type": "uint8"
        }
      ],
      "stateMutability": "view",
      "type": "function"
    },
    {
      "inputs": [
        {
          "internalType": "address",
          "name": "spender",
          "type": "address"
        },
        {
          "internalType": "uint256",
          "name": "subtractedValue",
          "type": "uint256"
        }
      ],
      "name": "decreaseAllowance",
      "outputs": [
        {
          "internalType": "bool",
          "name": "",
          "type": "bool"
        }
      ],
      "stateMutability": "nonpayable",
      "type": "function"
    },
    {
      "inputs": [
        {
          "internalType": "bytes32",
          "name": "role",
          "type": "bytes32"
        }
      ],
      "name": "getRoleAdmin",
      "outputs": [
        {
          "internalType": "bytes32",
          "name": "",
          "type": "bytes32"
        }
      ],
      "stateMutability": "view",
      "type": "function"
    },
    {
      "inputs": [
        {
          "internalType": "bytes32",
          "name": "role",
          "type": "bytes32"
        },
        {
          "internalType": "uint256",
          "name": "index",
          "type": "uint256"
        }
      ],
      "name": "getRoleMember",
      "outputs": [
        {
          "internalType": "address",
          "name": "",
          "type": "address"
        }
      ],
      "stateMutability": "view",
      "type": "function"
    },
    {
      "inputs": [
        {
          "internalType": "bytes32",
          "name": "role",
          "type": "bytes32"
        }
      ],
      "name": "getRoleMemberCount",
      "outputs": [
        {
          "internalType": "uint256",
          "name": "",
          "type": "uint256"
        }
      ],
      "stateMutability": "view",
      "type": "function"
    },
    {
      "inputs": [
        {
          "internalType": "bytes32",
          "name": "role",
          "type": "bytes32"
        },
        {
          "internalType": "address",
          "name": "account",
          "type": "address"
        }
      ],
      "name": "grantRole",
      "outputs": [],
      "stateMutability": "nonpayable",
      "type": "function"
    },
    {
      "inputs": [
        {
          "internalType": "bytes32",
          "name": "role",
          "type": "bytes32"
        },
        {
          "internalType": "address",
          "name": "account",
          "type": "address"
        }
      ],
      "name": "hasRole",
      "outputs": [
        {
          "internalType": "bool",
          "name": "",
          "type": "bool"
        }
      ],
      "stateMutability": "view",
      "type": "function"
    },
    {
      "inputs": [
        {
          "internalType": "address",
          "name": "spender",
          "type": "address"
        },
        {
          "internalType": "uint256",
          "name": "addedValue",
          "type": "uint256"
        }
      ],
      "name": "increaseAllowance",
      "outputs": [
        {
          "internalType": "bool",
          "name": "",
          "type": "bool"
        }
      ],
      "stateMutability": "nonpayable",
      "type": "function"
    },
    {
      "inputs": [
        {
          "internalType": "address",
          "name": "to",
          "type": "address"
        },
        {
          "internalType": "uint256",
          "name": "amount",
          "type": "uint256"
        }
      ],
      "name": "mint",
      "outputs": [],
      "stateMutability": "nonpayable",
      "type": "function"
    },
    {
      "inputs": [],
      "name": "name",
      "outputs": [
        {
          "internalType": "string",
          "name": "",
          "type": "string"
        }
      ],
      "stateMutability": "view",
      "type": "function"
    },
    {
      "inputs": [],
      "name": "pause",
      "outputs": [],
      "stateMutability": "nonpayable",
      "type": "function"
    },
    {
      "inputs": [],
      "name": "paused",
      "outputs": [
        {
          "internalType": "bool",
          "name": "",
          "type": "bool"
        }
      ],
      "stateMutability": "view",
      "type": "function"
    },
    {
      "inputs": [],
      "name": "pool",
      "outputs": [
        {
          "internalType": "address",
          "name": "",
          "type": "address"
        }
      ],
      "stateMutability": "view",
      "type": "function"
    },
    {
      "inputs": [
        {
          "internalType": "bytes32",
          "name": "role",
          "type": "bytes32"
        },
        {
          "internalType": "address",
          "name": "account",
          "type": "address"
        }
      ],
      "name": "renounceRole",
      "outputs": [],
      "stateMutability": "nonpayable",
      "type": "function"
    },
    {
      "inputs": [
        {
          "internalType": "bytes32",
          "name": "role",
          "type": "bytes32"
        },
        {
          "internalType": "address",
          "name": "account",
          "type": "address"
        }
      ],
      "name": "revokeRole",
      "outputs": [],
      "stateMutability": "nonpayable",
      "type": "function"
    },
    {
      "inputs": [],
      "name": "symbol",
      "outputs": [
        {
          "internalType": "string",
          "name": "",
          "type": "string"
        }
      ],
      "stateMutability": "view",
      "type": "function"
    },
    {
      "inputs": [],
      "name": "totalSupply",
      "outputs": [
        {
          "internalType": "uint256",
          "name": "",
          "type": "uint256"
        }
      ],
      "stateMutability": "view",
      "type": "function"
    },
    {
      "inputs": [
        {
          "internalType": "address",
          "name": "_recipient",
          "type": "address"
        },
        {
          "internalType": "uint256",
          "name": "_amount",
          "type": "uint256"
        }
      ],
      "name": "transfer",
      "outputs": [
        {
          "internalType": "bool",
          "name": "",
          "type": "bool"
        }
      ],
      "stateMutability": "nonpayable",
      "type": "function"
    },
    {
      "inputs": [
        {
          "internalType": "address",
          "name": "_sender",
          "type": "address"
        },
        {
          "internalType": "address",
          "name": "_recipient",
          "type": "address"
        },
        {
          "internalType": "uint256",
          "name": "_amount",
          "type": "uint256"
        }
      ],
      "name": "transferFrom",
      "outputs": [
        {
          "internalType": "bool",
          "name": "",
          "type": "bool"
        }
      ],
      "stateMutability": "nonpayable",
      "type": "function"
    },
    {
      "inputs": [],
      "name": "unpause",
      "outputs": [],
      "stateMutability": "nonpayable",
      "type": "function"
    }
  ],
  "bytecode": "0x60806040523480156200001157600080fd5b5060405162001f5438038062001f54833981810160405260608110156200003757600080fd5b81019080805160405193929190846401000000008211156200005857600080fd5b9083019060208201858111156200006e57600080fd5b82516401000000008111828201881017156200008957600080fd5b82525081516020918201929091019080838360005b83811015620000b85781810151838201526020016200009e565b50505050905090810190601f168015620000e65780820380516001836020036101000a031916815260200191505b50604052602001805160405193929190846401000000008211156200010a57600080fd5b9083019060208201858111156200012057600080fd5b82516401000000008111828201881017156200013b57600080fd5b82525081516020918201929091019080838360005b838110156200016a57818101518382015260200162000150565b50505050905090810190601f168015620001985780820380516001836020036101000a031916815260200191505b506040526020908101518551909350859250849183918391620001c191600491850190620003ea565b508051620001d7906005906020840190620003ea565b50506006805461ff001960ff1990911660121716905550620002046000620001fe620002d6565b620002da565b6200022260008051602062001f34833981519152620001fe620002d6565b6200024060008051602062001f14833981519152620001fe620002d6565b506200025e905060008051602062001f3483398151915282620002da565b6200027960008051602062001f1483398151915282620002da565b620002a57f3c11d16cbaffd01df69ce1c404f6340ee057498f5f00246190ea54220576a84882620002da565b600680546001600160a01b03909216620100000262010000600160b01b031990921691909117905550620004869050565b3390565b620002e68282620002ea565b5050565b6000828152602081815260409091206200030f91839062000d9f62000363821b17901c565b15620002e6576200031f620002d6565b6001600160a01b0316816001600160a01b0316837f2f8788117e7eff1d82e926ec794901d17c78024a50270940304540a733656f0d60405160405180910390a45050565b60006200037a836001600160a01b03841662000383565b90505b92915050565b6000620003918383620003d2565b620003c9575081546001818101845560008481526020808220909301849055845484825282860190935260409020919091556200037d565b5060006200037d565b60009081526001919091016020526040902054151590565b828054600181600116156101000203166002900490600052602060002090601f016020900481019282601f106200042d57805160ff19168380011785556200045d565b828001600101855582156200045d579182015b828111156200045d57825182559160200191906001019062000440565b506200046b9291506200046f565b5090565b5b808211156200046b576000815560010162000470565b611a7e80620004966000396000f3fe608060405234801561001057600080fd5b50600436106101da5760003560e01c806370a0823111610104578063a217fddf116100a2578063d539139311610071578063d53913931461058c578063d547741f14610594578063dd62ed3e146105c0578063e63ab1e9146105ee576101da565b8063a217fddf1461050f578063a457c2d714610517578063a9059cbb14610543578063ca15c8731461056f576101da565b80639010d07c116100de5780639010d07c1461048c57806391d14854146104af57806395d89b41146104db5780639dc29fac146104e3576101da565b806370a082311461043257806379cc6790146104585780638456cb5914610484576101da565b80632f2ff15d1161017c5780633f4ba83a1161014b5780633f4ba83a146103d957806340c10f19146103e157806342966c681461040d5780635c975abb1461042a576101da565b80632f2ff15d14610335578063313ce5671461036357806336568abe1461038157806339509351146103ad576101da565b806318160ddd116101b857806318160ddd146102c057806323b872dd146102da578063248a9ca314610310578063282c51f31461032d576101da565b806306fdde03146101df578063095ea7b31461025c57806316f0115b1461029c575b600080fd5b6101e76105f6565b6040805160208082528351818301528351919283929083019185019080838360005b83811015610221578181015183820152602001610209565b50505050905090810190601f16801561024e5780820380516001836020036101000a031916815260200191505b509250505060405180910390f35b6102886004803603604081101561027257600080fd5b506001600160a01b03813516906020013561068c565b604080519115158252519081900360200190f35b6102a46106aa565b604080516001600160a01b039092168252519081900360200190f35b6102c86106bf565b60408051918252519081900360200190f35b610288600480360360608110156102f057600080fd5b506001600160a01b038135811691602081013590911690604001356106c5565b6102c86004803603602081101561032657600080fd5b503561079d565b6102c86107b2565b6103616004803603604081101561034b57600080fd5b50803590602001356001600160a01b03166107d6565b005b61036b610842565b6040805160ff9092168252519081900360200190f35b6103616004803603604081101561039757600080fd5b50803590602001356001600160a01b031661084b565b610288600480360360408110156103c357600080fd5b506001600160a01b0381351690602001356108ac565b6103616108fa565b610361600480360360408110156103f757600080fd5b506001600160a01b03813516906020013561096b565b6103616004803603602081101561042357600080fd5b50356109dc565b6102886109f0565b6102c86004803603602081101561044857600080fd5b50356001600160a01b03166109fe565b6103616004803603604081101561046e57600080fd5b506001600160a01b038135169060200135610a19565b610361610a67565b6102a4600480360360408110156104a257600080fd5b5080359060200135610ad6565b610288600480360360408110156104c557600080fd5b50803590602001356001600160a01b0316610af5565b6101e7610b0d565b610361600480360360408110156104f957600080fd5b506001600160a01b038135169060200135610b6e565b6102c8610bab565b6102886004803603604081101561052d57600080fd5b506001600160a01b038135169060200135610bb0565b6102886004803603604081101561055957600080fd5b506001600160a01b038135169060200135610c18565b6102c86004803603602081101561058557600080fd5b5035610cbc565b6102c8610cd3565b610361600480360360408110156105aa57600080fd5b50803590602001356001600160a01b0316610cf7565b6102c8600480360360408110156105d657600080fd5b506001600160a01b0381358116916020013516610d50565b6102c8610d7b565b60048054604080516020601f60026000196101006001881615020190951694909404938401819004810282018101909252828152606093909290918301828280156106825780601f1061065757610100808354040283529160200191610682565b820191906000526020600020905b81548152906001019060200180831161066557829003601f168201915b5050505050905090565b60006106a0610699610db4565b8484610db8565b5060015b92915050565b6006546201000090046001600160a01b031681565b60035490565b60065460408051631ffb811f60e01b81526001600160a01b038681166004830152858116602483015260448201859052915160009362010000900490921691631ffb811f91606480820192869290919082900301818387803b15801561072a57600080fd5b505af115801561073e573d6000803e3d6000fd5b5050505061074d848484610ea4565b61079384610759610db4565b61078e856040518060600160405280602881526020016118a8602891396107878a610782610db4565b610d50565b9190611001565b610db8565b5060019392505050565b60009081526020819052604090206002015490565b7f3c11d16cbaffd01df69ce1c404f6340ee057498f5f00246190ea54220576a84881565b6000828152602081905260409020600201546107f9906107f4610db4565b610af5565b6108345760405162461bcd60e51b815260040180806020018281038252602f8152602001806117a6602f913960400191505060405180910390fd5b61083e8282611098565b5050565b60065460ff1690565b610853610db4565b6001600160a01b0316816001600160a01b0316146108a25760405162461bcd60e51b815260040180806020018281038252602f8152602001806119f0602f913960400191505060405180910390fd5b61083e8282611101565b60006106a06108b9610db4565b8461078e85600260006108ca610db4565b6001600160a01b03908116825260208083019390935260409182016000908120918c16815292529020549061116a565b6109267f65d7a28e3265b37a6474929f336521b332c1681b933f6cb9f3376673440d862a6107f4610db4565b6109615760405162461bcd60e51b81526004018080602001828103825260398152602001806117f76039913960400191505060405180910390fd5b6109696111c4565b565b6109977f9f2df0fed2c77648de5860a4cc508cd0818c85b8b8a1ab4ceeef8d981c8956a66107f4610db4565b6109d25760405162461bcd60e51b81526004018080602001828103825260368152602001806118d06036913960400191505060405180910390fd5b61083e8282611265565b6109ed6109e7610db4565b82611357565b50565b600654610100900460ff1690565b6001600160a01b031660009081526001602052604090205490565b6000610a44826040518060600160405280602481526020016119066024913961078786610782610db4565b9050610a5883610a52610db4565b83610db8565b610a628383611357565b505050565b610a937f65d7a28e3265b37a6474929f336521b332c1681b933f6cb9f3376673440d862a6107f4610db4565b610ace5760405162461bcd60e51b81526004018080602001828103825260378152602001806119946037913960400191505060405180910390fd5b610969611453565b6000828152602081905260408120610aee90836114d8565b9392505050565b6000828152602081905260408120610aee90836114e4565b60058054604080516020601f60026000196101006001881615020190951694909404938401819004810282018101909252828152606093909290918301828280156106825780601f1061065757610100808354040283529160200191610682565b610b987f3c11d16cbaffd01df69ce1c404f6340ee057498f5f00246190ea54220576a84833610af5565b610ba157600080fd5b61083e8282611357565b600081565b60006106a0610bbd610db4565b8461078e856040518060600160405280602581526020016119cb6025913960026000610be7610db4565b6001600160a01b03908116825260208083019390935260409182016000908120918d16815292529020549190611001565b6006546000906201000090046001600160a01b0316631ffb811f610c3a610db4565b85856040518463ffffffff1660e01b815260040180846001600160a01b03168152602001836001600160a01b031681526020018281526020019350505050600060405180830381600087803b158015610c9257600080fd5b505af1158015610ca6573d6000803e3d6000fd5b505050506106a0610cb5610db4565b8484610ea4565b60008181526020819052604081206106a4906114f9565b7f9f2df0fed2c77648de5860a4cc508cd0818c85b8b8a1ab4ceeef8d981c8956a681565b600082815260208190526040902060020154610d15906107f4610db4565b6108a25760405162461bcd60e51b81526004018080602001828103825260308152602001806118786030913960400191505060405180910390fd5b6001600160a01b03918216600090815260026020908152604080832093909416825291909152205490565b7f65d7a28e3265b37a6474929f336521b332c1681b933f6cb9f3376673440d862a81565b6000610aee836001600160a01b038416611504565b3390565b6001600160a01b038316610dfd5760405162461bcd60e51b81526004018080602001828103825260248152602001806119706024913960400191505060405180910390fd5b6001600160a01b038216610e425760405162461bcd60e51b81526004018080602001828103825260228152602001806118306022913960400191505060405180910390fd5b6001600160a01b03808416600081815260026020908152604080832094871680845294825291829020859055815185815291517f8c5be1e5ebec7d5bd14f71427d1e84f3dd0314c0f7b2291e5b200ac8c7c3b9259281900390910190a3505050565b6001600160a01b038316610ee95760405162461bcd60e51b815260040180806020018281038252602581526020018061194b6025913960400191505060405180910390fd5b6001600160a01b038216610f2e5760405162461bcd60e51b81526004018080602001828103825260238152602001806117836023913960400191505060405180910390fd5b610f3983838361154e565b610f7681604051806060016040528060268152602001611852602691396001600160a01b0386166000908152600160205260409020549190611001565b6001600160a01b038085166000908152600160205260408082209390935590841681522054610fa5908261116a565b6001600160a01b0380841660008181526001602090815260409182902094909455805185815290519193928716927fddf252ad1be2c89b69c2b068fc378daa952ba7f163c4a11628f55a4df523b3ef92918290030190a3505050565b600081848411156110905760405162461bcd60e51b81526004018080602001828103825283818151815260200191508051906020019080838360005b8381101561105557818101518382015260200161103d565b50505050905090810190601f1680156110825780820380516001836020036101000a031916815260200191505b509250505060405180910390fd5b505050900390565b60008281526020819052604090206110b09082610d9f565b1561083e576110bd610db4565b6001600160a01b0316816001600160a01b0316837f2f8788117e7eff1d82e926ec794901d17c78024a50270940304540a733656f0d60405160405180910390a45050565b60008281526020819052604090206111199082611559565b1561083e57611126610db4565b6001600160a01b0316816001600160a01b0316837ff6391f5c32d9c69d2a47ea670b442974b53935d1edc7fd64eb21e047a839171b60405160405180910390a45050565b600082820183811015610aee576040805162461bcd60e51b815260206004820152601b60248201527f536166654d6174683a206164646974696f6e206f766572666c6f770000000000604482015290519081900360640190fd5b6111cc6109f0565b611214576040805162461bcd60e51b815260206004820152601460248201527314185d5cd8589b194e881b9bdd081c185d5cd95960621b604482015290519081900360640190fd5b6006805461ff00191690557f5db9ee0a495bf2e6ff9c91a7834c1ba4fdd244a5e8aa4e537bd38aeae4b073aa611248610db4565b604080516001600160a01b039092168252519081900360200190a1565b6001600160a01b0382166112c0576040805162461bcd60e51b815260206004820152601f60248201527f45524332303a206d696e7420746f20746865207a65726f206164647265737300604482015290519081900360640190fd5b6112cc6000838361154e565b6003546112d9908261116a565b6003556001600160a01b0382166000908152600160205260409020546112ff908261116a565b6001600160a01b03831660008181526001602090815260408083209490945583518581529351929391927fddf252ad1be2c89b69c2b068fc378daa952ba7f163c4a11628f55a4df523b3ef9281900390910190a35050565b6001600160a01b03821661139c5760405162461bcd60e51b815260040180806020018281038252602181526020018061192a6021913960400191505060405180910390fd5b6113a88260008361154e565b6113e5816040518060600160405280602281526020016117d5602291396001600160a01b0385166000908152600160205260409020549190611001565b6001600160a01b03831660009081526001602052604090205560035461140b908261156e565b6003556040805182815290516000916001600160a01b038516917fddf252ad1be2c89b69c2b068fc378daa952ba7f163c4a11628f55a4df523b3ef9181900360200190a35050565b61145b6109f0565b156114a0576040805162461bcd60e51b815260206004820152601060248201526f14185d5cd8589b194e881c185d5cd95960821b604482015290519081900360640190fd5b6006805461ff0019166101001790557f62e78cea01bee320cd4e420270b5ea74000d11b0c9f74754ebdbfc544b05a258611248610db4565b6000610aee83836115cb565b6000610aee836001600160a01b03841661162f565b60006106a482611647565b6000611510838361162f565b611546575081546001818101845560008481526020808220909301849055845484825282860190935260409020919091556106a4565b5060006106a4565b610a6283838361164b565b6000610aee836001600160a01b03841661169a565b6000828211156115c5576040805162461bcd60e51b815260206004820152601e60248201527f536166654d6174683a207375627472616374696f6e206f766572666c6f770000604482015290519081900360640190fd5b50900390565b8154600090821061160d5760405162461bcd60e51b81526004018080602001828103825260228152602001806117616022913960400191505060405180910390fd5b82600001828154811061161c57fe5b9060005260206000200154905092915050565b60009081526001919091016020526040902054151590565b5490565b611656838383610a62565b61165e6109f0565b15610a625760405162461bcd60e51b815260040180806020018281038252602a815260200180611a1f602a913960400191505060405180910390fd5b6000818152600183016020526040812054801561175657835460001980830191908101906000908790839081106116cd57fe5b90600052602060002001549050808760000184815481106116ea57fe5b60009182526020808320909101929092558281526001898101909252604090209084019055865487908061171a57fe5b600190038181906000526020600020016000905590558660010160008781526020019081526020016000206000905560019450505050506106a4565b60009150506106a456fe456e756d657261626c655365743a20696e646578206f7574206f6620626f756e647345524332303a207472616e7366657220746f20746865207a65726f2061646472657373416363657373436f6e74726f6c3a2073656e646572206d75737420626520616e2061646d696e20746f206772616e7445524332303a206275726e20616d6f756e7420657863656564732062616c616e636545524332305072657365744d696e7465725061757365723a206d75737420686176652070617573657220726f6c6520746f20756e706175736545524332303a20617070726f766520746f20746865207a65726f206164647265737345524332303a207472616e7366657220616d6f756e7420657863656564732062616c616e6365416363657373436f6e74726f6c3a2073656e646572206d75737420626520616e2061646d696e20746f207265766f6b6545524332303a207472616e7366657220616d6f756e74206578636565647320616c6c6f77616e636545524332305072657365744d696e7465725061757365723a206d7573742068617665206d696e74657220726f6c6520746f206d696e7445524332303a206275726e20616d6f756e74206578636565647320616c6c6f77616e636545524332303a206275726e2066726f6d20746865207a65726f206164647265737345524332303a207472616e736665722066726f6d20746865207a65726f206164647265737345524332303a20617070726f76652066726f6d20746865207a65726f206164647265737345524332305072657365744d696e7465725061757365723a206d75737420686176652070617573657220726f6c6520746f20706175736545524332303a2064656372656173656420616c6c6f77616e63652062656c6f77207a65726f416363657373436f6e74726f6c3a2063616e206f6e6c792072656e6f756e636520726f6c657320666f722073656c6645524332305061757361626c653a20746f6b656e207472616e73666572207768696c6520706175736564a2646970667358221220dd0db2081d480b0eb25fcfb4ef0aa1e62b1d10c2304752d3e3a32b36faa2010264736f6c6343000700003365d7a28e3265b37a6474929f336521b332c1681b933f6cb9f3376673440d862a9f2df0fed2c77648de5860a4cc508cd0818c85b8b8a1ab4ceeef8d981c8956a6",
  "linkReferences": {},
  "deployedLinkReferences": {}
}