{
  "_format": "hh-sol-artifact-1",
  "contractName": "Verification",
  "sourceName": "contracts/Verification/Verification.sol",
  "abi": [
    {
      "anonymous": false,
      "inputs": [
        {
          "indexed": false,
          "internalType": "bytes32",
          "name": "poolHash",
          "type": "bytes32"
        },
        {
          "indexed": false,
          "internalType": "address",
          "name": "user",
          "type": "address"
        },
        {
          "indexed": false,
          "internalType": "uint256",
          "name": "amount",
          "type": "uint256"
        },
        {
          "indexed": false,
          "internalType": "uint256",
          "name": "time",
          "type": "uint256"
        }
      ],
      "name": "AmountBorrowed",
      "type": "event"
    },
    {
      "anonymous": false,
      "inputs": [
        {
          "indexed": false,
          "internalType": "bytes32",
          "name": "poolHash",
          "type": "bytes32"
        },
        {
          "indexed": false,
          "internalType": "uint256",
          "name": "amount",
          "type": "uint256"
        }
      ],
      "name": "CollateralAdded",
      "type": "event"
    },
    {
      "anonymous": false,
      "inputs": [
        {
          "indexed": false,
          "internalType": "bytes32",
          "name": "poolHash",
          "type": "bytes32"
        },
        {
          "indexed": false,
          "internalType": "address",
          "name": "user",
          "type": "address"
        },
        {
          "indexed": false,
          "internalType": "uint256",
          "name": "amount",
          "type": "uint256"
        }
      ],
      "name": "CollateralWithdrawn",
      "type": "event"
    },
    {
      "anonymous": false,
      "inputs": [
        {
          "indexed": true,
          "internalType": "address",
          "name": "previousOwner",
          "type": "address"
        },
        {
          "indexed": true,
          "internalType": "address",
          "name": "newOwner",
          "type": "address"
        }
      ],
      "name": "OwnershipTransferred",
      "type": "event"
    },
    {
      "anonymous": false,
      "inputs": [
        {
          "indexed": false,
          "internalType": "address",
          "name": "user",
          "type": "address"
        },
        {
          "indexed": false,
          "internalType": "bytes32",
          "name": "offChainDetails",
          "type": "bytes32"
        }
      ],
      "name": "UserDetailsUpdated",
      "type": "event"
    },
    {
      "anonymous": false,
      "inputs": [
        {
          "indexed": false,
          "internalType": "address",
          "name": "user",
          "type": "address"
        },
        {
          "indexed": false,
          "internalType": "bytes32",
          "name": "offChainDetails",
          "type": "bytes32"
        }
      ],
      "name": "UserRegistered",
      "type": "event"
    },
    {
      "anonymous": false,
      "inputs": [
        {
          "indexed": false,
          "internalType": "address",
          "name": "user",
          "type": "address"
        }
      ],
      "name": "UserUnregistered",
      "type": "event"
    },
    {
      "inputs": [
        {
          "internalType": "address",
          "name": "_admin",
          "type": "address"
        }
      ],
      "name": "initialize",
      "outputs": [],
      "stateMutability": "nonpayable",
      "type": "function"
    },
    {
      "inputs": [
        {
          "internalType": "address",
          "name": "_user",
          "type": "address"
        }
      ],
      "name": "isUser",
      "outputs": [
        {
          "internalType": "bool",
          "name": "",
          "type": "bool"
        }
      ],
      "stateMutability": "view",
      "type": "function"
    },
    {
      "inputs": [],
      "name": "owner",
      "outputs": [
        {
          "internalType": "address",
          "name": "",
          "type": "address"
        }
      ],
      "stateMutability": "view",
      "type": "function"
    },
    {
      "inputs": [
        {
          "internalType": "address",
          "name": "_user",
          "type": "address"
        },
        {
          "internalType": "bytes32",
          "name": "_offChainDetails",
          "type": "bytes32"
        }
      ],
      "name": "registerUser",
      "outputs": [],
      "stateMutability": "nonpayable",
      "type": "function"
    },
    {
      "inputs": [
        {
          "internalType": "address",
          "name": "",
          "type": "address"
        }
      ],
      "name": "registeredUsers",
      "outputs": [
        {
          "internalType": "bytes32",
          "name": "",
          "type": "bytes32"
        }
      ],
      "stateMutability": "view",
      "type": "function"
    },
    {
      "inputs": [],
      "name": "renounceOwnership",
      "outputs": [],
      "stateMutability": "nonpayable",
      "type": "function"
    },
    {
      "inputs": [
        {
          "internalType": "address",
          "name": "newOwner",
          "type": "address"
        }
      ],
      "name": "transferOwnership",
      "outputs": [],
      "stateMutability": "nonpayable",
      "type": "function"
    },
    {
      "inputs": [
        {
          "internalType": "address",
          "name": "_user",
          "type": "address"
        }
      ],
      "name": "unregisterUser",
      "outputs": [],
      "stateMutability": "nonpayable",
      "type": "function"
    },
    {
      "inputs": [
        {
          "internalType": "address",
          "name": "_user",
          "type": "address"
        },
        {
          "internalType": "bytes32",
          "name": "_offChainDetails",
          "type": "bytes32"
        }
      ],
      "name": "updateUserDetails",
      "outputs": [],
      "stateMutability": "nonpayable",
      "type": "function"
    }
  ],
  "bytecode": "0x608060405234801561001057600080fd5b50610c3e806100206000396000f3fe608060405234801561001057600080fd5b50600436106100935760003560e01c8063715018a611610066578063715018a61461015e5780638da5cb5b14610166578063c4d66de81461018a578063d7e0b6e3146101b0578063f2fde38b146101dc57610093565b80630e50cee51461009857806321f2ca3b146100d05780634209fff1146100f85780636f624ff914610132575b600080fd5b6100be600480360360208110156100ae57600080fd5b50356001600160a01b0316610202565b60408051918252519081900360200190f35b6100f6600480360360208110156100e657600080fd5b50356001600160a01b0316610214565b005b61011e6004803603602081101561010e57600080fd5b50356001600160a01b0316610320565b604080519115158252519081900360200190f35b6100f66004803603604081101561014857600080fd5b506001600160a01b03813516906020013561033d565b6100f661048b565b61016e610537565b604080516001600160a01b039092168252519081900360200190f35b6100f6600480360360208110156101a057600080fd5b50356001600160a01b0316610546565b6100f6600480360360408110156101c657600080fd5b506001600160a01b0381351690602001356105fa565b6100f6600480360360208110156101f257600080fd5b50356001600160a01b031661078b565b60656020526000908152604090205481565b61021c61088e565b6001600160a01b031661022d610537565b6001600160a01b031614610276576040805162461bcd60e51b81526020600482018190526024820152600080516020610be9833981519152604482015290519081900360640190fd5b6001600160a01b03811660009081526065602052604090205481906102cc5760405162461bcd60e51b8152600401808060200182810382526025815260200180610b276025913960400191505060405180910390fd5b6001600160a01b038216600081815260656020908152604080832092909255815192835290517f69c4cef1aa574ae7852ac8b784ab60926951c604b70049150e4091759ea980769281900390910190a15050565b6001600160a01b0316600090815260656020526040902054151590565b61034561088e565b6001600160a01b0316610356610537565b6001600160a01b03161461039f576040805162461bcd60e51b81526020600482018190526024820152600080516020610be9833981519152604482015290519081900360640190fd5b6001600160a01b03821660009081526065602052604090205482906103f55760405162461bcd60e51b8152600401808060200182810382526025815260200180610b276025913960400191505060405180910390fd5b816104315760405162461bcd60e51b8152600401808060200182810382526032815260200180610af56032913960400191505060405180910390fd5b6001600160a01b0383166000818152606560209081526040918290208590558151928352820184905280517f0856857a89fa525be03ca52fb939d79da17206ceb5bd353adcfd510ae751249c9281900390910190a1505050565b61049361088e565b6001600160a01b03166104a4610537565b6001600160a01b0316146104ed576040805162461bcd60e51b81526020600482018190526024820152600080516020610be9833981519152604482015290519081900360640190fd5b6033546040516000916001600160a01b0316907f8be0079c531659141344cd1fd0a4f28419497f9722a3daafe3b4186f6b6457e0908390a3603380546001600160a01b0319169055565b6033546001600160a01b031690565b600054610100900460ff168061055f575061055f610892565b8061056d575060005460ff16155b6105a85760405162461bcd60e51b815260040180806020018281038252602e815260200180610bbb602e913960400191505060405180910390fd5b600054610100900460ff161580156105d3576000805460ff1961ff0019909116610100171660011790555b6105db6108a3565b6105e48261078b565b80156105f6576000805461ff00191690555b5050565b61060261088e565b6001600160a01b0316610613610537565b6001600160a01b03161461065c576040805162461bcd60e51b81526020600482018190526024820152600080516020610be9833981519152604482015290519081900360640190fd5b6001600160a01b038216600090815260656020526040902054156106b15760405162461bcd60e51b8152600401808060200182810382526025815260200180610b4c6025913960400191505060405180910390fd5b6001600160a01b0382166106f65760405162461bcd60e51b8152600401808060200182810382526024815260200180610b976024913960400191505060405180910390fd5b806107325760405162461bcd60e51b8152600401808060200182810382526032815260200180610af56032913960400191505060405180910390fd5b6001600160a01b0382166000818152606560209081526040918290208490558151928352820183905280517f4c5d15f5779ae1ecd7d55bd3283d898e29c35743d172bd7b83a16e17bc0afe2a9281900390910190a15050565b61079361088e565b6001600160a01b03166107a4610537565b6001600160a01b0316146107ed576040805162461bcd60e51b81526020600482018190526024820152600080516020610be9833981519152604482015290519081900360640190fd5b6001600160a01b0381166108325760405162461bcd60e51b8152600401808060200182810382526026815260200180610b716026913960400191505060405180910390fd5b6033546040516001600160a01b038084169216907f8be0079c531659141344cd1fd0a4f28419497f9722a3daafe3b4186f6b6457e090600090a3603380546001600160a01b0319166001600160a01b0392909216919091179055565b3390565b600061089d30610955565b15905090565b600054610100900460ff16806108bc57506108bc610892565b806108ca575060005460ff16155b6109055760405162461bcd60e51b815260040180806020018281038252602e815260200180610bbb602e913960400191505060405180910390fd5b600054610100900460ff16158015610930576000805460ff1961ff0019909116610100171660011790555b61093861095b565b6109406109fb565b8015610952576000805461ff00191690555b50565b3b151590565b600054610100900460ff16806109745750610974610892565b80610982575060005460ff16155b6109bd5760405162461bcd60e51b815260040180806020018281038252602e815260200180610bbb602e913960400191505060405180910390fd5b600054610100900460ff16158015610940576000805460ff1961ff0019909116610100171660011790558015610952576000805461ff001916905550565b600054610100900460ff1680610a145750610a14610892565b80610a22575060005460ff16155b610a5d5760405162461bcd60e51b815260040180806020018281038252602e815260200180610bbb602e913960400191505060405180910390fd5b600054610100900460ff16158015610a88576000805460ff1961ff0019909116610100171660011790555b6000610a9261088e565b603380546001600160a01b0319166001600160a01b038316908117909155604051919250906000907f8be0079c531659141344cd1fd0a4f28419497f9722a3daafe3b4186f6b6457e0908290a3508015610952576000805461ff00191690555056fe566572696669636174696f6e3a204f6666636861696e2064657461696c732073686f756c64206e6f7420626520656d707479566572696669636174696f6e3a2055736572206d7573742062652072656769737465726564566572696669636174696f6e3a205573657220616c726561647920726567697374657265644f776e61626c653a206e6577206f776e657220697320746865207a65726f2061646472657373566572696669636174696f6e3a20496e76616c696420656e746974792061646472657373496e697469616c697a61626c653a20636f6e747261637420697320616c726561647920696e697469616c697a65644f776e61626c653a2063616c6c6572206973206e6f7420746865206f776e6572a264697066735822122034e5c6cea20d32a3ee8f4f94501fb066612190fd85a0709b8985fdbf468dbb2164736f6c63430007000033",
  "linkReferences": {},
  "deployedLinkReferences": {}
}