{
  "_format": "hh-sol-artifact-1",
  "contractName": "Pool",
  "sourceName": "contracts/Pool/Pool.sol",
  "abi": [
    {
      "anonymous": false,
      "inputs": [
        {
          "indexed": false,
          "internalType": "uint256",
          "name": "amount",
          "type": "uint256"
        }
      ],
      "name": "AmountBorrowed",
      "type": "event"
    },
    {
      "anonymous": false,
      "inputs": [
        {
          "indexed": false,
          "internalType": "address",
          "name": "borrower",
          "type": "address"
        },
        {
          "indexed": false,
          "internalType": "uint256",
          "name": "amount",
          "type": "uint256"
        },
        {
          "indexed": false,
          "internalType": "uint256",
          "name": "sharesReceived",
          "type": "uint256"
        }
      ],
      "name": "CollateralAdded",
      "type": "event"
    },
    {
      "anonymous": false,
      "inputs": [
        {
          "indexed": false,
          "internalType": "address",
          "name": "borrower",
          "type": "address"
        },
        {
          "indexed": false,
          "internalType": "uint256",
          "name": "amount",
          "type": "uint256"
        }
      ],
      "name": "CollateralWithdrawn",
      "type": "event"
    },
    {
      "anonymous": false,
      "inputs": [
        {
          "indexed": false,
          "internalType": "address",
          "name": "liquidator",
          "type": "address"
        },
        {
          "indexed": false,
          "internalType": "address",
          "name": "lender",
          "type": "address"
        },
        {
          "indexed": false,
          "internalType": "uint256",
          "name": "_tokenReceived",
          "type": "uint256"
        }
      ],
      "name": "LenderLiquidated",
      "type": "event"
    },
    {
      "anonymous": false,
      "inputs": [
        {
          "indexed": false,
          "internalType": "uint256",
          "name": "amountSupplied",
          "type": "uint256"
        },
        {
          "indexed": false,
          "internalType": "address",
          "name": "lenderAddress",
          "type": "address"
        }
      ],
      "name": "LiquiditySupplied",
      "type": "event"
    },
    {
      "anonymous": false,
      "inputs": [
        {
          "indexed": false,
          "internalType": "uint256",
          "name": "amount",
          "type": "uint256"
        },
        {
          "indexed": false,
          "internalType": "address",
          "name": "lenderAddress",
          "type": "address"
        }
      ],
      "name": "LiquidityWithdrawn",
      "type": "event"
    },
    {
      "anonymous": false,
      "inputs": [],
      "name": "LoanDefaulted",
      "type": "event"
    },
    {
      "anonymous": false,
      "inputs": [
        {
          "indexed": false,
          "internalType": "address",
          "name": "borrower",
          "type": "address"
        },
        {
          "indexed": false,
          "internalType": "address",
          "name": "lender",
          "type": "address"
        },
        {
          "indexed": false,
          "internalType": "uint256",
          "name": "amount",
          "type": "uint256"
        },
        {
          "indexed": false,
          "internalType": "uint256",
          "name": "sharesReceived",
          "type": "uint256"
        }
      ],
      "name": "MarginCallCollateralAdded",
      "type": "event"
    },
    {
      "anonymous": false,
      "inputs": [
        {
          "indexed": false,
          "internalType": "address",
          "name": "lenderAddress",
          "type": "address"
        }
      ],
      "name": "MarginCalled",
      "type": "event"
    },
    {
      "anonymous": false,
      "inputs": [],
      "name": "OpenBorrowPoolCancelled",
      "type": "event"
    },
    {
      "anonymous": false,
      "inputs": [],
      "name": "OpenBorrowPoolClosed",
      "type": "event"
    },
    {
      "anonymous": false,
      "inputs": [],
      "name": "OpenBorrowPoolDefaulted",
      "type": "event"
    },
    {
      "anonymous": false,
      "inputs": [],
      "name": "OpenBorrowPoolTerminated",
      "type": "event"
    },
    {
      "anonymous": false,
      "inputs": [
        {
          "indexed": false,
          "internalType": "address",
          "name": "liquidator",
          "type": "address"
        }
      ],
      "name": "PoolLiquidated",
      "type": "event"
    },
    {
      "inputs": [
        {
          "internalType": "address",
          "name": "_lender",
          "type": "address"
        },
        {
          "internalType": "uint256",
          "name": "_amount",
          "type": "uint256"
        },
        {
          "internalType": "bool",
          "name": "_transferFromSavingsAccount",
          "type": "bool"
        }
      ],
      "name": "addCollateralInMarginCall",
      "outputs": [],
      "stateMutability": "payable",
      "type": "function"
    },
    {
      "inputs": [
        {
          "internalType": "address",
          "name": "_from",
          "type": "address"
        },
        {
          "internalType": "address",
          "name": "_to",
          "type": "address"
        },
        {
          "internalType": "uint256",
          "name": "_amount",
          "type": "uint256"
        }
      ],
      "name": "beforeTransfer",
      "outputs": [],
      "stateMutability": "nonpayable",
      "type": "function"
    },
    {
      "inputs": [
        {
          "internalType": "uint256",
          "name": "_balance",
          "type": "uint256"
        },
        {
          "internalType": "uint256",
          "name": "_liquidityShares",
          "type": "uint256"
        }
      ],
      "name": "calculateCollateralRatio",
      "outputs": [
        {
          "internalType": "uint256",
          "name": "",
          "type": "uint256"
        }
      ],
      "stateMutability": "nonpayable",
      "type": "function"
    },
    {
      "inputs": [],
      "name": "calculateCurrentPeriod",
      "outputs": [
        {
          "internalType": "uint256",
          "name": "",
          "type": "uint256"
        }
      ],
      "stateMutability": "view",
      "type": "function"
    },
    {
      "inputs": [],
      "name": "cancelOpenBorrowPool",
      "outputs": [],
      "stateMutability": "nonpayable",
      "type": "function"
    },
    {
      "inputs": [],
      "name": "checkRepayment",
      "outputs": [
        {
          "internalType": "enum Pool.LoanStatus",
          "name": "",
          "type": "uint8"
        }
      ],
      "stateMutability": "nonpayable",
      "type": "function"
    },
    {
      "inputs": [],
      "name": "closeLoan",
      "outputs": [],
      "stateMutability": "payable",
      "type": "function"
    },
    {
      "inputs": [
        {
          "internalType": "uint256",
          "name": "_collateralTokens",
          "type": "uint256"
        },
        {
          "internalType": "address",
          "name": "_poolFactory",
          "type": "address"
        }
      ],
      "name": "correspondingBorrowTokens",
      "outputs": [
        {
          "internalType": "uint256",
          "name": "",
          "type": "uint256"
        }
      ],
      "stateMutability": "view",
      "type": "function"
    },
    {
      "inputs": [
        {
          "internalType": "uint256",
          "name": "_amount",
          "type": "uint256"
        },
        {
          "internalType": "bool",
          "name": "_transferFromSavingsAccount",
          "type": "bool"
        }
      ],
      "name": "depositCollateral",
      "outputs": [],
      "stateMutability": "payable",
      "type": "function"
    },
    {
      "inputs": [
        {
          "internalType": "address",
          "name": "_lender",
          "type": "address"
        }
      ],
      "name": "getBalanceDetails",
      "outputs": [
        {
          "internalType": "uint256",
          "name": "",
          "type": "uint256"
        },
        {
          "internalType": "uint256",
          "name": "",
          "type": "uint256"
        }
      ],
      "stateMutability": "view",
      "type": "function"
    },
    {
      "inputs": [
        {
          "internalType": "address",
          "name": "_lender",
          "type": "address"
        }
      ],
      "name": "getCurrentCollateralRatio",
      "outputs": [
        {
          "internalType": "uint256",
          "name": "_ratio",
          "type": "uint256"
        }
      ],
      "stateMutability": "nonpayable",
      "type": "function"
    },
    {
      "inputs": [],
      "name": "getCurrentCollateralRatio",
      "outputs": [
        {
          "internalType": "uint256",
          "name": "",
          "type": "uint256"
        }
      ],
      "stateMutability": "nonpayable",
      "type": "function"
    },
    {
      "inputs": [],
      "name": "getLoanStatus",
      "outputs": [
        {
          "internalType": "uint256",
          "name": "",
          "type": "uint256"
        }
      ],
      "stateMutability": "view",
      "type": "function"
    },
    {
      "inputs": [
        {
          "internalType": "address",
          "name": "_lender",
          "type": "address"
        }
      ],
      "name": "getMarginCallEndTime",
      "outputs": [
        {
          "internalType": "uint256",
          "name": "",
          "type": "uint256"
        }
      ],
      "stateMutability": "view",
      "type": "function"
    },
    {
      "inputs": [],
      "name": "getNextDuePeriod",
      "outputs": [
        {
          "internalType": "uint256",
          "name": "",
          "type": "uint256"
        }
      ],
      "stateMutability": "view",
      "type": "function"
    },
    {
      "inputs": [],
      "name": "getNextDueTime",
      "outputs": [
        {
          "internalType": "uint256",
          "name": "",
          "type": "uint256"
        }
      ],
      "stateMutability": "view",
      "type": "function"
    },
    {
      "inputs": [
        {
          "internalType": "address",
          "name": "_borrower",
          "type": "address"
        }
      ],
      "name": "getNextDueTimeIfBorrower",
      "outputs": [
        {
          "internalType": "uint256",
          "name": "",
          "type": "uint256"
        }
      ],
      "stateMutability": "view",
      "type": "function"
    },
    {
      "inputs": [],
      "name": "getTotalSupply",
      "outputs": [
        {
          "internalType": "uint256",
          "name": "",
          "type": "uint256"
        }
      ],
      "stateMutability": "view",
      "type": "function"
    },
    {
      "inputs": [],
      "name": "grantExtension",
      "outputs": [
        {
          "internalType": "uint256",
          "name": "",
          "type": "uint256"
        }
      ],
      "stateMutability": "nonpayable",
      "type": "function"
    },
    {
      "inputs": [
        {
          "internalType": "uint256",
          "name": "_borrowAmountRequested",
          "type": "uint256"
        },
        {
          "internalType": "uint256",
          "name": "_minborrowAmount",
          "type": "uint256"
        },
        {
          "internalType": "address",
          "name": "_borrower",
          "type": "address"
        },
        {
          "internalType": "address",
          "name": "_borrowAsset",
          "type": "address"
        },
        {
          "internalType": "address",
          "name": "_collateralAsset",
          "type": "address"
        },
        {
          "internalType": "uint256",
          "name": "_idealCollateralRatio",
          "type": "uint256"
        },
        {
          "internalType": "uint256",
          "name": "_borrowRate",
          "type": "uint256"
        },
        {
          "internalType": "uint256",
          "name": "_repaymentInterval",
          "type": "uint256"
        },
        {
          "internalType": "uint256",
          "name": "_noOfRepaymentIntervals",
          "type": "uint256"
        },
        {
          "internalType": "address",
          "name": "_poolSavingsStrategy",
          "type": "address"
        },
        {
          "internalType": "uint256",
          "name": "_collateralAmount",
          "type": "uint256"
        },
        {
          "internalType": "bool",
          "name": "_transferFromSavingsAccount",
          "type": "bool"
        },
        {
          "internalType": "uint256",
          "name": "_loanWithdrawalDuration",
          "type": "uint256"
        },
        {
          "internalType": "uint256",
          "name": "_collectionPeriod",
          "type": "uint256"
        }
      ],
      "name": "initialize",
      "outputs": [],
      "stateMutability": "payable",
      "type": "function"
    },
    {
      "inputs": [
        {
          "internalType": "uint256",
          "name": "_balance",
          "type": "uint256"
        }
      ],
      "name": "interestPerPeriod",
      "outputs": [
        {
          "internalType": "uint256",
          "name": "",
          "type": "uint256"
        }
      ],
      "stateMutability": "view",
      "type": "function"
    },
    {
      "inputs": [
        {
          "internalType": "uint256",
          "name": "_principle",
          "type": "uint256"
        }
      ],
      "name": "interestPerSecond",
      "outputs": [
        {
          "internalType": "uint256",
          "name": "",
          "type": "uint256"
        }
      ],
      "stateMutability": "view",
      "type": "function"
    },
    {
      "inputs": [
        {
          "internalType": "uint256",
          "name": "_balance",
          "type": "uint256"
        }
      ],
      "name": "interestTillNow",
      "outputs": [
        {
          "internalType": "uint256",
          "name": "",
          "type": "uint256"
        }
      ],
      "stateMutability": "view",
      "type": "function"
    },
    {
      "inputs": [
        {
          "internalType": "address",
          "name": "_lender",
          "type": "address"
        },
        {
          "internalType": "uint256",
          "name": "_amountLent",
          "type": "uint256"
        }
      ],
      "name": "lend",
      "outputs": [],
      "stateMutability": "payable",
      "type": "function"
    },
    {
      "inputs": [
        {
          "internalType": "address",
          "name": "",
          "type": "address"
        }
      ],
      "name": "lenders",
      "outputs": [
        {
          "internalType": "uint256",
          "name": "principalWithdrawn",
          "type": "uint256"
        },
        {
          "internalType": "uint256",
          "name": "interestWithdrawn",
          "type": "uint256"
        },
        {
          "internalType": "uint256",
          "name": "lastVoteTime",
          "type": "uint256"
        },
        {
          "internalType": "uint256",
          "name": "marginCallEndTime",
          "type": "uint256"
        },
        {
          "internalType": "uint256",
          "name": "extraLiquidityShares",
          "type": "uint256"
        }
      ],
      "stateMutability": "view",
      "type": "function"
    },
    {
      "inputs": [
        {
          "internalType": "address",
          "name": "lender",
          "type": "address"
        },
        {
          "internalType": "bool",
          "name": "_transferToSavingsAccount",
          "type": "bool"
        },
        {
          "internalType": "bool",
          "name": "_recieveLiquidityShare",
          "type": "bool"
        }
      ],
      "name": "liquidateLender",
      "outputs": [],
      "stateMutability": "payable",
      "type": "function"
    },
    {
      "inputs": [
        {
          "internalType": "bool",
          "name": "_transferToSavingsAccount",
          "type": "bool"
        },
        {
          "internalType": "bool",
          "name": "_recieveLiquidityShare",
          "type": "bool"
        }
      ],
      "name": "liquidatePool",
      "outputs": [],
      "stateMutability": "payable",
      "type": "function"
    },
    {
      "inputs": [],
      "name": "poolConstants",
      "outputs": [
        {
          "internalType": "address",
          "name": "borrower",
          "type": "address"
        },
        {
          "internalType": "uint256",
          "name": "borrowAmountRequested",
          "type": "uint256"
        },
        {
          "internalType": "uint256",
          "name": "minborrowAmount",
          "type": "uint256"
        },
        {
          "internalType": "uint256",
          "name": "loanStartTime",
          "type": "uint256"
        },
        {
          "internalType": "uint256",
          "name": "loanWithdrawalDeadline",
          "type": "uint256"
        },
        {
          "internalType": "address",
          "name": "borrowAsset",
          "type": "address"
        },
        {
          "internalType": "uint256",
          "name": "idealCollateralRatio",
          "type": "uint256"
        },
        {
          "internalType": "uint256",
          "name": "borrowRate",
          "type": "uint256"
        },
        {
          "internalType": "uint256",
          "name": "noOfRepaymentIntervals",
          "type": "uint256"
        },
        {
          "internalType": "uint256",
          "name": "repaymentInterval",
          "type": "uint256"
        },
        {
          "internalType": "address",
          "name": "collateralAsset",
          "type": "address"
        },
        {
          "internalType": "address",
          "name": "poolSavingsStrategy",
          "type": "address"
        }
      ],
      "stateMutability": "view",
      "type": "function"
    },
    {
      "inputs": [],
      "name": "poolVars",
      "outputs": [
        {
          "internalType": "uint256",
          "name": "baseLiquidityShares",
          "type": "uint256"
        },
        {
          "internalType": "uint256",
          "name": "extraLiquidityShares",
          "type": "uint256"
        },
        {
          "internalType": "enum Pool.LoanStatus",
          "name": "loanStatus",
          "type": "uint8"
        },
        {
          "internalType": "uint256",
          "name": "noOfGracePeriodsTaken",
          "type": "uint256"
        },
        {
          "internalType": "uint256",
          "name": "nextDuePeriod",
          "type": "uint256"
        }
      ],
      "stateMutability": "view",
      "type": "function"
    },
    {
      "inputs": [],
      "name": "requestMarginCall",
      "outputs": [],
      "stateMutability": "nonpayable",
      "type": "function"
    },
    {
      "inputs": [
        {
          "internalType": "address",
          "name": "_poolToken",
          "type": "address"
        }
      ],
      "name": "setPoolToken",
      "outputs": [],
      "stateMutability": "nonpayable",
      "type": "function"
    },
    {
      "inputs": [],
      "name": "terminateOpenBorrowPool",
      "outputs": [],
      "stateMutability": "nonpayable",
      "type": "function"
    },
    {
      "inputs": [],
      "name": "withdrawBorrowedAmount",
      "outputs": [],
      "stateMutability": "nonpayable",
      "type": "function"
    },
    {
      "inputs": [],
      "name": "withdrawLiquidity",
      "outputs": [],
      "stateMutability": "nonpayable",
      "type": "function"
    },
    {
      "inputs": [
        {
          "internalType": "bool",
          "name": "_withdrawToSavingsAccount",
          "type": "bool"
        }
      ],
      "name": "withdrawRepayment",
      "outputs": [],
      "stateMutability": "nonpayable",
      "type": "function"
    },
    {
      "stateMutability": "payable",
      "type": "receive"
    }
  ],
  "bytecode": "0x608060405234801561001057600080fd5b5061594980620000216000396000f3fe6080604052600436106102085760003560e01c80637ea382c111610118578063c145fe69116100a0578063d765a1971161006f578063d765a1971461084f578063d820d4c914610888578063daf5539e146108b2578063e70d72d7146108e5578063ea534449146108fa576102ca565b8063c145fe69146107cc578063c4e41b2214610800578063d2b93bfd14610815578063d2cc84361461083a576102ca565b8063acc1ab13116100e7578063acc1ab13146106d8578063b2c09233146106ed578063bb1a195f14610739578063bcf493921461078b578063bda9e06b146107b7576102ca565b80637ea382c11461066d57806395f3f45614610682578063969dec3414610697578063a2fb342d146106ac576102ca565b806333ce01fd1161019b5780636886c8141161016a5780636886c814146105175780636eeb146d1461059b5780636f3b84b4146105d15780637320fc291461060757806374f3e8311461063a576102ca565b806333ce01fd1461048a5780634007d4e8146104bd57806346b55fbb146104d2578063593f686f14610502576102ca565b8063232fa733116101d7578063232fa73314610375578063272edaf21461037d578063275ac2521461040257806328fd10d71461042c576102ca565b8063047103f7146102cf5780630fc72889146102f65780631ffb811f1461031d57806321006c6114610360576102ca565b366102ca57600060029054906101000a90046001600160a01b03166001600160a01b031663ecced6236040518163ffffffff1660e01b815260040160206040518083038186803b15801561025b57600080fd5b505afa15801561026f573d6000803e3d6000fd5b505050506040513d602081101561028557600080fd5b50516001600160a01b031633146102c8576040805162461bcd60e51b8152602060048201526002602482015261333560f01b604482015290519081900360640190fd5b005b600080fd5b6102c8600480360360408110156102e557600080fd5b508035151590602001351515610924565b34801561030257600080fd5b5061030b610ee3565b60408051918252519081900360200190f35b34801561032957600080fd5b506102c86004803603606081101561034057600080fd5b506001600160a01b03813581169160208101359091169060400135610f23565b34801561036c57600080fd5b5061030b6111a7565b6102c86111cd565b6102c860048036036101c081101561039457600080fd5b508035906020810135906001600160a01b0360408201358116916060810135821691608082013581169160a08101359160c08201359160e081013591610100820135916101208101359091169061014081013590610160810135151590610180810135906101a00135611559565b34801561040e57600080fd5b5061030b6004803603602081101561042557600080fd5b50356116c2565b34801561043857600080fd5b5061045f6004803603602081101561044f57600080fd5b50356001600160a01b03166116ec565b6040805195865260208601949094528484019290925260608401526080830152519081900360a00190f35b34801561049657600080fd5b506102c8600480360360208110156104ad57600080fd5b50356001600160a01b031661171b565b3480156104c957600080fd5b5061030b611786565b3480156104de57600080fd5b5061030b600480360360408110156104f557600080fd5b508035906020013561178c565b34801561050e57600080fd5b5061030b611954565b34801561052357600080fd5b5061052c611a2b565b604080516001600160a01b039d8e168152602081019c909c528b81019a909a5260608b019890985260808a019690965293891660a089015260c088019290925260e087015261010086015261012085015284166101408401529092166101608201529051908190036101800190f35b3480156105a757600080fd5b506105b0611a67565b604051808260058111156105c057fe5b815260200191505060405180910390f35b6102c8600480360360608110156105e757600080fd5b506001600160a01b03813516906020810135151590604001351515611bfb565b34801561061357600080fd5b5061030b6004803603602081101561062a57600080fd5b50356001600160a01b0316612749565b34801561064657600080fd5b5061030b6004803603602081101561065d57600080fd5b50356001600160a01b0316612767565b34801561067957600080fd5b506102c86127ba565b34801561068e57600080fd5b506102c8612c14565b3480156106a357600080fd5b506102c8613116565b6102c8600480360360408110156106c257600080fd5b506001600160a01b0381351690602001356134da565b3480156106e457600080fd5b5061030b613829565b3480156106f957600080fd5b506107206004803603602081101561071057600080fd5b50356001600160a01b031661383d565b6040805192835260208301919091528051918290030190f35b34801561074557600080fd5b5061074e613932565b6040518086815260200185815260200184600581111561076a57fe5b81526020018381526020018281526020019550505050505060405180910390f35b34801561079757600080fd5b506102c8600480360360208110156107ae57600080fd5b5035151561394a565b3480156107c357600080fd5b506102c8613a06565b6102c8600480360360608110156107e257600080fd5b506001600160a01b0381351690602081013590604001351515613cda565b34801561080c57600080fd5b5061030b613eac565b6102c86004803603604081101561082b57600080fd5b50803590602001351515613f22565b34801561084657600080fd5b506102c8613f63565b34801561085b57600080fd5b5061030b6004803603604081101561087257600080fd5b50803590602001356001600160a01b031661415f565b34801561089457600080fd5b5061030b600480360360208110156108ab57600080fd5b50356142eb565b3480156108be57600080fd5b5061030b600480360360208110156108d557600080fd5b50356001600160a01b03166142ff565b3480156108f157600080fd5b5061030b614424565b34801561090657600080fd5b5061030b6004803603602081101561091d57600080fd5b50356144bd565b600080546201000090046001600160a01b0316600460115460ff16600581111561094a57fe5b1461095a57610957611a67565b91505b600482600581111561096857fe5b146109a45760405162461bcd60e51b81526004018080602001828103825260358152602001806158096035913960400191505060405180910390fd5b6000816001600160a01b031663ecced6236040518163ffffffff1660e01b815260040160206040518083038186803b1580156109df57600080fd5b505afa1580156109f3573d6000803e3d6000fd5b505050506040513d6020811015610a0957600080fd5b5051600d54600854601054600f549394506001600160a01b03928316939190921691600091610a379161467d565b600e54604080516359846d2960e01b8152600481018490526001600160a01b038781166024830152915193945091169160009183916359846d299160448082019260209290919082900301818787803b158015610a9357600080fd5b505af1158015610aa7573d6000803e3d6000fd5b505050506040513d6020811015610abd57600080fd5b505190506000610acd828961415f565b90506001600160a01b038516610b215780341015610b1c5760405162461bcd60e51b815260040180806020018281038252602781526020018061588d6027913960400191505060405180910390fd5b610ba3565b604080516323b872dd60e01b81523360048201523060248201526044810183905290516001600160a01b038716916323b872dd9160648083019260209291908290030181600087803b158015610b7657600080fd5b505af1158015610b8a573d6000803e3d6000fd5b505050506040513d6020811015610ba057600080fd5b50505b508915610c3d5760408051633c6340f360e21b81526001600160a01b03878116600483015233602483015284811660448301526064820186905291519188169163f18d03cc916084808201926020929091908290030181600087803b158015610c0b57600080fd5b505af1158015610c1f573d6000803e3d6000fd5b505050506040513d6020811015610c3557600080fd5b50610e9a9050565b604080516396885ed360e01b8152306004820152602481018390526001600160a01b03878116604483015284811660648301528b1515608483015291516000928916916396885ed39160a480830192602092919082900301818787803b158015610ca657600080fd5b505af1158015610cba573d6000803e3d6000fd5b505050506040513d6020811015610cd057600080fd5b505190508915610ddb576000836001600160a01b0316631391abc7886040518263ffffffff1660e01b815260040180826001600160a01b0316815260200191505060206040518083038186803b158015610d2957600080fd5b505afa158015610d3d573d6000803e3d6000fd5b505050506040513d6020811015610d5357600080fd5b50516040805163a9059cbb60e01b81523360048201526024810185905290519192506001600160a01b0383169163a9059cbb916044808201926020929091908290030181600087803b158015610da857600080fd5b505af1158015610dbc573d6000803e3d6000fd5b505050506040513d6020811015610dd257600080fd5b50610e98915050565b6001600160a01b038616610e1c57604051339082156108fc029083906000818181858888f19350505050158015610e16573d6000803e3d6000fd5b50610e98565b6040805163a9059cbb60e01b81523360048201526024810183905290516001600160a01b0388169163a9059cbb9160448083019260209291908290030181600087803b158015610e6b57600080fd5b505af1158015610e7f573d6000803e3d6000fd5b505050506040513d6020811015610e9557600080fd5b50505b505b60006010819055600f556040805133815290517fc54b2aa56ebf583bfce79c646ac5d4618f0e44bc6874bd07194673a5bd2626a09181900360200190a150505050505050505050565b600c546006546040805180820190915260028152610ccd60f21b60208201526000928392610f1c92610f169142916146d7565b9061476e565b9150505b90565b6001546001600160a01b03163314610f3a57600080fd5b6001600160a01b038316600090815260026020526040902060030154610f8c576040805162461bcd60e51b8152602060048201526002602482015261062760f31b604482015290519081900360640190fd5b6001600160a01b038216600090815260026020526040902060030154610fde576040805162461bcd60e51b8152602060048201526002602482015261313960f01b604482015290519081900360640190fd5b610fe98360016147d5565b610ff48260016147d5565b6001600160a01b0383166000908152600260205260409020600401548061101b57506111a2565b600154604080516370a0823160e01b81526001600160a01b0387811660048301529151849392909216916370a0823191602480820192602092909190829003018186803b15801561106b57600080fd5b505afa15801561107f573d6000803e3d6000fd5b505050506040513d602081101561109557600080fd5b5051831461112857600154604080516370a0823160e01b81526001600160a01b03888116600483015291516111259392909216916370a0823191602480820192602092909190829003018186803b1580156110ef57600080fd5b505afa158015611103573d6000803e3d6000fd5b505050506040513d602081101561111957600080fd5b5051610f168585614ac7565b90505b6001600160a01b03851660009081526002602052604090206004015461114e9082614b20565b6001600160a01b038087166000908152600260205260408082206004908101949094559187168152200154611183908261467d565b6001600160a01b03851660009081526002602052604090206004015550505b505050565b600654600c546013546000926111c89290916111c291614ac7565b9061467d565b905090565b60035433906001600160a01b03168114611212576040805162461bcd60e51b81526020600482015260016024820152603160f81b604482015290519081900360640190fd5b600160115460ff16600581111561122557fe5b1461125c576040805162461bcd60e51b8152602060048201526002602482015261191960f11b604482015290519081900360640190fd5b60135415611296576040805162461bcd60e51b8152602060048201526002602482015261323360f01b604482015290519081900360640190fd5b600154604080516318160ddd60e01b815290516000926001600160a01b0316916318160ddd916004808301926020929190829003018186803b1580156112db57600080fd5b505afa1580156112ef573d6000803e3d6000fd5b505050506040513d602081101561130557600080fd5b50516008549091506001600160a01b03168061135957813414611354576040805162461bcd60e51b8152602060048201526002602482015261333760f01b604482015290519081900360640190fd5b6113db565b604080516323b872dd60e01b81523360048201523060248201526044810184905290516001600160a01b038316916323b872dd9160648083019260209291908290030181600087803b1580156113ae57600080fd5b505af11580156113c2573d6000803e3d6000fd5b505050506040513d60208110156113d857600080fd5b50505b60118054600260ff19909116179055600054604080516302d5537b60e41b81529051620100009092046001600160a01b031691632d5537b091600480820192602092909190829003018186803b15801561143457600080fd5b505afa158015611448573d6000803e3d6000fd5b505050506040513d602081101561145e57600080fd5b5051604080516311f2df1b60e21b815290516001600160a01b03909216916347cb7c6c9160048082019260009290919082900301818387803b1580156114a357600080fd5b505af11580156114b7573d6000803e3d6000fd5b505050506114c3614b7d565b600160009054906101000a90046001600160a01b03166001600160a01b0316638456cb596040518163ffffffff1660e01b8152600401600060405180830381600087803b15801561151357600080fd5b505af1158015611527573d6000803e3d6000fd5b50506040517f16806a4b81acb154f2a096d5f8d970f04bd4546e2a070933d28b8212cfc9ddce925060009150a1505050565b600054610100900460ff16806115725750611572614ceb565b80611580575060005460ff16155b6115bb5760405162461bcd60e51b815260040180806020018281038252602e81526020018061583e602e913960400191505060405180910390fd5b600054610100900460ff161580156115e6576000805460ff1961ff0019909116610100171660011790555b6000805462010000600160b01b031916336201000002179055600880546001600160a01b03199081166001600160a01b038f81169190911790925560098c9055600d805482168e8416179055600e805490911691881691909117905560048f90556116528d8686614cfc565b600380546001600160a01b0319166001600160a01b038f1617905560058e905561167c428361467d565b60065561168d836111c2428561467d565b600755600a899055600b879055600c88905580156116b1576000805461ff00191690555b505050505050505050505050505050565b6000806116e56301e13380610f1660036007015486614ac790919063ffffffff16565b9392505050565b600260208190526000918252604090912080546001820154928201546003830154600490930154919392909185565b6000546201000090046001600160a01b03163314611764576040805162461bcd60e51b81526020600482015260016024820152601b60f91b604482015290519081900360640190fd5b600180546001600160a01b0319166001600160a01b0392909216919091179055565b60135490565b600080611798846144bd565b600d546000805460408051632630c12f60e01b815290519495506001600160a01b039384169492936201000090920490911691632630c12f91600480820192602092909190829003018186803b1580156117f157600080fd5b505afa158015611805573d6000803e3d6000fd5b505050506040513d602081101561181b57600080fd5b5051600854604080516310603c1160e01b81526001600160a01b0386811660048301529283166024820152905191909216916310603c11916044808301926020929190829003018186803b15801561187257600080fd5b505afa158015611886573d6000803e3d6000fd5b505050506040513d602081101561189c57600080fd5b5051600e54604080516359846d2960e01b8152600481018990526001600160a01b038681166024830152915193945060009391909216916359846d2991604480830192602092919082900301818787803b1580156118f957600080fd5b505af115801561190d573d6000803e3d6000fd5b505050506040513d602081101561192357600080fd5b505190506000611946611936898761467d565b610f166305f5e100818688614ac7565b955050505050505b92915050565b60008060029054906101000a90046001600160a01b03166001600160a01b0316632d5537b06040518163ffffffff1660e01b815260040160206040518083038186803b1580156119a357600080fd5b505afa1580156119b7573d6000803e3d6000fd5b505050506040513d60208110156119cd57600080fd5b50516001600160a01b03163314611a0f576040805162461bcd60e51b81526020600482015260016024820152603560f81b604482015290519081900360640190fd5b601354600090611a2090600161467d565b601381905591505090565b600354600454600554600654600754600854600954600a54600b54600c54600d54600e546001600160a01b039b8c169b9687169691821691168c565b600080600060029054906101000a90046001600160a01b03166001600160a01b0316634e73f74b6040518163ffffffff1660e01b815260040160206040518083038186803b158015611ab857600080fd5b505afa158015611acc573d6000803e3d6000fd5b505050506040513d6020811015611ae257600080fd5b5051600c54909150611b0190611af9908390614ac7565b6111c26111a7565b421115611bf05760118054600460ff199091168117909155600054604080516302d5537b60e41b81529051620100009092046001600160a01b031692632d5537b0928282019260209290829003018186803b158015611b5f57600080fd5b505afa158015611b73573d6000803e3d6000fd5b505050506040513d6020811015611b8957600080fd5b5051604080516311f2df1b60e21b815290516001600160a01b03909216916347cb7c6c9160048082019260009290919082900301818387803b158015611bce57600080fd5b505af1158015611be2573d6000803e3d6000fd5b505050506004915050610f20565b505060115460ff1690565b6000546201000090046001600160a01b0316600160115460ff166005811115611c2057fe5b148015611c2e575060075442115b611c64576040805162461bcd60e51b8152602060048201526002602482015261323760f01b604482015290519081900360640190fd5b6001600160a01b03841660009081526002602052604090206003015480611cd2576040805162461bcd60e51b815260206004820152601f60248201527f4e6f206d617267696e2063616c6c20686173206265656e2063616c6c65642e00604482015290519081900360640190fd5b428110611d0b576040805162461bcd60e51b8152602060048201526002602482015261064760f31b604482015290519081900360640190fd5b611d14856142ff565b611d85836001600160a01b03166325fb966d6040518163ffffffff1660e01b815260040160206040518083038186803b158015611d5057600080fd5b505afa158015611d64573d6000803e3d6000fd5b505050506040513d6020811015611d7a57600080fd5b505160095490614b20565b11611dbc576040805162461bcd60e51b8152602060048201526002602482015261323960f01b604482015290519081900360640190fd5b600154604080516370a0823160e01b81526001600160a01b038881166004830152915191909216916370a08231916024808301926020929190829003018186803b158015611e0957600080fd5b505afa158015611e1d573d6000803e3d6000fd5b505050506040513d6020811015611e3357600080fd5b5051611e6b576040805162461bcd60e51b8152602060048201526002602482015261033360f41b604482015290519081900360640190fd5b506000816001600160a01b031663ecced6236040518163ffffffff1660e01b815260040160206040518083038186803b158015611ea757600080fd5b505afa158015611ebb573d6000803e3d6000fd5b505050506040513d6020811015611ed157600080fd5b5051600d54600e54600154604080516370a0823160e01b81526001600160a01b038b811660048301529151959650938116949281169360009391909216916370a08231916024808301926020929190829003018186803b158015611f3457600080fd5b505afa158015611f48573d6000803e3d6000fd5b505050506040513d6020811015611f5e57600080fd5b5051600f54600154604080516318160ddd60e01b815290519394506000938492611fea926001600160a01b03909116916318160ddd91600480820192602092909190829003018186803b158015611fb457600080fd5b505afa158015611fc8573d6000803e3d6000fd5b505050506040513d6020811015611fde57600080fd5b5051610f168487614ac7565b6001600160a01b038c166000908152600260205260409020600401549091506120138383614b20565b600f556010546120239082614b20565b601055612030828261467d565b93505050506000836001600160a01b03166359846d2983876040518363ffffffff1660e01b815260040180838152602001826001600160a01b0316815260200192505050602060405180830381600087803b15801561208e57600080fd5b505af11580156120a2573d6000803e3d6000fd5b505050506040513d60208110156120b857600080fd5b5051905060006120c8828961415f565b6008549091506001600160a01b03166000816121b357823410612117576040805162461bcd60e51b8152602060048201526002602482015261333160f01b604482015290519081900360640190fd5b886001600160a01b0316632e2d29843434858b6040518563ffffffff1660e01b815260040180848152602001836001600160a01b03168152602001826001600160a01b0316815260200193505050506020604051808303818588803b15801561217f57600080fd5b505af1158015612193573d6000803e3d6000fd5b50505050506040513d60208110156121aa57600080fd5b505190506122be565b604080516323b872dd60e01b81523360048201523060248201526044810185905290516001600160a01b038416916323b872dd9160648083019260209291908290030181600087803b15801561220857600080fd5b505af115801561221c573d6000803e3d6000fd5b505050506040513d602081101561223257600080fd5b505060408051630b8b4a6160e21b8152600481018590526001600160a01b03848116602483015289811660448301529151918b1691632e2d2984916064808201926020929091908290030181600087803b15801561228f57600080fd5b505af11580156122a3573d6000803e3d6000fd5b505050506040513d60208110156122b957600080fd5b505190505b6122c98d60016147d5565b60408051633c6340f360e21b81526001600160a01b0384811660048301528f811660248301528981166044830152606482018490529151918b169163f18d03cc916084808201926020929091908290030181600087803b15801561232c57600080fd5b505af1158015612340573d6000803e3d6000fd5b505050506040513d602081101561235657600080fd5b5060009350508b1591506123fa90505760408051633c6340f360e21b81526001600160a01b03888116600483015233602483015287811660448301526064820186905291519189169163f18d03cc916084808201926020929091908290030181600087803b1580156123c757600080fd5b505af11580156123db573d6000803e3d6000fd5b505050506040513d60208110156123f157600080fd5b50519050612655565b604080516396885ed360e01b8152306004820152602481018490526001600160a01b03888116604483015287811660648301528b151560848301529151918916916396885ed39160a4808201926020929091908290030181600087803b15801561246357600080fd5b505af1158015612477573d6000803e3d6000fd5b505050506040513d602081101561248d57600080fd5b505190508815612598576000856001600160a01b0316631391abc7886040518263ffffffff1660e01b815260040180826001600160a01b0316815260200191505060206040518083038186803b1580156124e657600080fd5b505afa1580156124fa573d6000803e3d6000fd5b505050506040513d602081101561251057600080fd5b50516040805163a9059cbb60e01b81523360048201526024810185905290519192506001600160a01b0383169163a9059cbb916044808201926020929091908290030181600087803b15801561256557600080fd5b505af1158015612579573d6000803e3d6000fd5b505050506040513d602081101561258f57600080fd5b50612655915050565b6001600160a01b0386166125d957604051339082156108fc029083906000818181858888f193505050501580156125d3573d6000803e3d6000fd5b50612655565b6040805163a9059cbb60e01b81523360048201526024810183905290516001600160a01b0388169163a9059cbb9160448083019260209291908290030181600087803b15801561262857600080fd5b505af115801561263c573d6000803e3d6000fd5b505050506040513d602081101561265257600080fd5b50505b60015460408051632770a7eb60e21b81526001600160a01b038e811660048301526024820188905291519190921691639dc29fac91604480830192600092919082900301818387803b1580156126aa57600080fd5b505af11580156126be573d6000803e3d6000fd5b5050506001600160a01b038c166000818152600260208181526040808420848155600181018590559283018490556003830184905560049092019290925580513381529182019290925280820184905290517f9b4fed4f3cd02b7624ed7521dce91b2f3aee138fc5c04d59f2f087e6b261a40d92509081900360600190a15050505050505050505050565b6001600160a01b031660009081526002602052604090206003015490565b60035460009082906001600160a01b038083169116146127b2576040805162461bcd60e51b81526020600482015260016024820152603160f81b604482015290519081900360640190fd5b6116e56111a7565b600154604080516370a0823160e01b81523360048201819052915191926001600160a01b0316916370a0823191602480820192602092909190829003018186803b15801561280757600080fd5b505afa15801561281b573d6000803e3d6000fd5b505050506040513d602081101561283157600080fd5b5051612868576040805162461bcd60e51b81526020600482015260016024820152601960f91b604482015290519081900360640190fd5b60115460ff16600281600581111561287c57fe5b14806128935750600381600581111561289157fe5b145b806128a9575060048160058111156128a757fe5b145b6128df576040805162461bcd60e51b81526020600482015260026024820152610c8d60f21b604482015290519081900360640190fd5b600154604080516370a0823160e01b815233600482015290516000926001600160a01b0316916370a08231916024808301926020929190829003018186803b15801561292a57600080fd5b505afa15801561293e573d6000803e3d6000fd5b505050506040513d602081101561295457600080fd5b505160015460408051632770a7eb60e21b81523360048201526024810184905290519293506001600160a01b0390911691639dc29fac9160448082019260009290919082900301818387803b1580156129ac57600080fd5b505af11580156129c0573d6000803e3d6000fd5b50600492506129cd915050565b8260058111156129d957fe5b1415612af4576008546000906001600160a01b031615612a7157600854604080516370a0823160e01b815230600482015290516001600160a01b03909216916370a0823191602480820192602092909190829003018186803b158015612a3e57600080fd5b505afa158015612a52573d6000803e3d6000fd5b505050506040513d6020811015612a6857600080fd5b50519050612a74565b50475b600154604080516318160ddd60e01b81529051612af0926001600160a01b0316916318160ddd916004808301926020929190829003018186803b158015612aba57600080fd5b505afa158015612ace573d6000803e3d6000fd5b505050506040513d6020811015612ae457600080fd5b5051610f168484614ac7565b9150505b33600081815260026020526040812055612b0f9060016147d5565b6008546001600160a01b031615612ba6576008546040805163a9059cbb60e01b81523360048201526024810184905290516001600160a01b039092169163a9059cbb916044808201926020929091908290030181600087803b158015612b7457600080fd5b505af1158015612b88573d6000803e3d6000fd5b505050506040513d6020811015612b9e57600080fd5b50612bd59050565b604051339082156108fc029083906000818181858888f19350505050158015612bd3573d6000803e3d6000fd5b505b6040805182815233602082015281517f971f63643b6d0341cf9c1971238adc8625537ce1c41ba0a9dfcbd784832bd5f9929181900390910190a1505050565b60035433906001600160a01b03168114612c59576040805162461bcd60e51b81526020600482015260016024820152603160f81b604482015290519081900360640190fd5b60115460ff166000816005811115612c6d57fe5b148015612c7b575060065442115b15612d2357600554600154604080516318160ddd60e01b815290516001600160a01b03909216916318160ddd91600480820192602092909190829003018186803b158015612cc857600080fd5b505afa158015612cdc573d6000803e3d6000fd5b505050506040513d6020811015612cf257600080fd5b50511015612d15576011805460ff19166003179055612d0f614b7d565b50613113565b6011805460ff191660011790555b600160115460ff166005811115612d3657fe5b148015612d44575060075415155b612d7a576040805162461bcd60e51b8152602060048201526002602482015261189960f11b604482015290519081900360640190fd5b6000612d84614424565b9050612dd7600060029054906101000a90046001600160a01b03166001600160a01b03166325fb966d6040518163ffffffff1660e01b815260040160206040518083038186803b158015611d5057600080fd5b8111612e0f576040805162461bcd60e51b8152602060048201526002602482015261313360f01b604482015290519081900360640190fd5b600b54600c546000546040805163171e108560e01b81529051620100009092046001600160a01b031691829163171e1085916004808301926020929190829003018186803b158015612e6057600080fd5b505afa158015612e74573d6000803e3d6000fd5b505050506040513d6020811015612e8a57600080fd5b5051600a5460065460408051635e3055ed60e01b8152600481018890526024810187905260448101939093526064830191909152516001600160a01b0390921691635e3055ed9160848082019260009290919082900301818387803b158015612ef257600080fd5b505af1158015612f06573d6000803e3d6000fd5b50505050806001600160a01b0316632d5537b06040518163ffffffff1660e01b815260040160206040518083038186803b158015612f4357600080fd5b505afa158015612f57573d6000803e3d6000fd5b505050506040513d6020811015612f6d57600080fd5b505160408051635ad3867560e11b81526004810185905290516001600160a01b039092169163b5a70cea9160248082019260009290919082900301818387803b158015612fb957600080fd5b505af1158015612fcd573d6000803e3d6000fd5b505050506000600160009054906101000a90046001600160a01b03166001600160a01b03166318160ddd6040518163ffffffff1660e01b815260040160206040518083038186803b15801561302157600080fd5b505afa158015613035573d6000803e3d6000fd5b505050506040513d602081101561304b57600080fd5b50516008546003546040805163a9059cbb60e01b81526001600160a01b03928316600482015260248101859052905193945091169163a9059cbb916044808201926020929091908290030181600087803b1580156130a857600080fd5b505af11580156130bc573d6000803e3d6000fd5b505050506040513d60208110156130d257600080fd5b505060006007556040805182815290517fd34aff353e8e4ad78ec390d5c4bd580941a8299db97e6c9b7a536ce2030d09899181900360200190a15050505050505b50565b600060029054906101000a90046001600160a01b03166001600160a01b0316638da5cb5b6040518163ffffffff1660e01b815260040160206040518083038186803b15801561316457600080fd5b505afa158015613178573d6000803e3d6000fd5b505050506040513d602081101561318e57600080fd5b50516001600160a01b031633146131d0576040805162461bcd60e51b81526020600482015260016024820152603360f81b604482015290519081900360640190fd5b601054600f546000916131e3919061467d565b9050600060029054906101000a90046001600160a01b03166001600160a01b031663ecced6236040518163ffffffff1660e01b815260040160206040518083038186803b15801561323357600080fd5b505afa158015613247573d6000803e3d6000fd5b505050506040513d602081101561325d57600080fd5b5051600d5460005460408051638da5cb5b60e01b815290516001600160a01b039485169463f18d03cc948116936201000090041691638da5cb5b916004808301926020929190829003018186803b1580156132b757600080fd5b505afa1580156132cb573d6000803e3d6000fd5b505050506040513d60208110156132e157600080fd5b5051600e54604080516001600160e01b031960e087901b1681526001600160a01b03948516600482015292841660248401529216604482015260648101859052905160848083019260209291908290030181600087803b15801561334457600080fd5b505af1158015613358573d6000803e3d6000fd5b505050506040513d602081101561336e57600080fd5b505060015460408051638456cb5960e01b815290516001600160a01b0390921691638456cb599160048082019260009290919082900301818387803b1580156133b657600080fd5b505af11580156133ca573d6000803e3d6000fd5b505060118054600560ff199091161790555050600054604080516302d5537b60e41b81529051620100009092046001600160a01b031691632d5537b091600480820192602092909190829003018186803b15801561342757600080fd5b505afa15801561343b573d6000803e3d6000fd5b505050506040513d602081101561345157600080fd5b5051604080516311f2df1b60e21b815290516001600160a01b03909216916347cb7c6c9160048082019260009290919082900301818387803b15801561349657600080fd5b505af11580156134aa573d6000803e3d6000fd5b50506040517f63565abe08812999f78f5a975601697854790c627fc35ad638bcf130f3e537c6925060009150a150565b600060115460ff1660058111156134ed57fe5b14613524576040805162461bcd60e51b8152602060048201526002602482015261313560f01b604482015290519081900360640190fd5b600654421061355f576040805162461bcd60e51b8152602060048201526002602482015261189b60f11b604482015290519081900360640190fd5b60048054600154604080516318160ddd60e01b81529051859484936135e0936001600160a01b03909116926318160ddd92828101926020929190829003018186803b1580156135ad57600080fd5b505afa1580156135c1573d6000803e3d6000fd5b505050506040513d60208110156135d757600080fd5b5051859061467d565b111561366257600154604080516318160ddd60e01b8152905161365f926001600160a01b0316916318160ddd916004808301926020929190829003018186803b15801561362c57600080fd5b505afa158015613640573d6000803e3d6000fd5b505050506040513d602081101561365657600080fd5b50518290614b20565b91505b6008546001600160a01b0316806136f0573484146136ac576040805162461bcd60e51b8152602060048201526002602482015261313760f01b604482015290519081900360640190fd5b8383146136eb57336108fc6136c18686614b20565b6040518115909202916000818181858888f193505050501580156136e9573d6000803e3d6000fd5b505b613772565b604080516323b872dd60e01b81523360048201523060248201526044810185905290516001600160a01b038316916323b872dd9160648083019260209291908290030181600087803b15801561374557600080fd5b505af1158015613759573d6000803e3d6000fd5b505050506040513d602081101561376f57600080fd5b50505b600154604080516340c10f1960e01b81526001600160a01b03888116600483015260248201879052915191909216916340c10f1991604480830192600092919082900301818387803b1580156137c757600080fd5b505af11580156137db573d6000803e3d6000fd5b5050604080518681526001600160a01b038916602082015281517ff09dbebdc018e2d81469b76b813a178bbc38dde6fd1056134b68f291a58802e29450908190039091019150a15050505050565b60115460009060ff1660058111156111c857fe5b600154604080516370a0823160e01b81526001600160a01b03848116600483015291516000938493169182916370a0823191602480820192602092909190829003018186803b15801561388f57600080fd5b505afa1580156138a3573d6000803e3d6000fd5b505050506040513d60208110156138b957600080fd5b5051604080516318160ddd60e01b815290516001600160a01b038416916318160ddd916004808301926020929190829003018186803b1580156138fb57600080fd5b505afa15801561390f573d6000803e3d6000fd5b505050506040513d602081101561392557600080fd5b5051909350915050915091565b600f5460105460115460125460135460ff9092169185565b600154604080516370a0823160e01b81523360048201819052915191926001600160a01b0316916370a0823191602480820192602092909190829003018186803b15801561399757600080fd5b505afa1580156139ab573d6000803e3d6000fd5b505050506040513d60208110156139c157600080fd5b50516139f8576040805162461bcd60e51b81526020600482015260016024820152601960f91b604482015290519081900360640190fd5b613a0233836147d5565b5050565b600160115460ff166005811115613a1957fe5b14613a4f576040805162461bcd60e51b81526020600482015260016024820152600d60fa1b604482015290519081900360640190fd5b600154604080516370a0823160e01b81523360048201819052915191926001600160a01b0316916370a0823191602480820192602092909190829003018186803b158015613a9c57600080fd5b505afa158015613ab0573d6000803e3d6000fd5b505050506040513d6020811015613ac657600080fd5b5051613afd576040805162461bcd60e51b81526020600482015260016024820152601960f91b604482015290519081900360640190fd5b336000908152600260205260409020600301544211613b48576040805162461bcd60e51b8152602060048201526002602482015261323560f01b604482015290519081900360640190fd5b613bce600060029054906101000a90046001600160a01b03166001600160a01b03166325fb966d6040518163ffffffff1660e01b815260040160206040518083038186803b158015613b9957600080fd5b505afa158015613bad573d6000803e3d6000fd5b505050506040513d6020811015613bc357600080fd5b50516111c2336142ff565b60095411613c08576040805162461bcd60e51b8152602060048201526002602482015261191b60f11b604482015290519081900360640190fd5b613c8c600060029054906101000a90046001600160a01b03166001600160a01b0316639b9842c16040518163ffffffff1660e01b815260040160206040518083038186803b158015613c5957600080fd5b505afa158015613c6d573d6000803e3d6000fd5b505050506040513d6020811015613c8357600080fd5b5051429061467d565b33600081815260026020908152604091829020600301939093558051918252517f5334a046b9fb8040bcaa4dd9a9ecbbe06e299568931f336e4aa6bbf51d511b80929181900390910190a150565b600160115460ff166005811115613ced57fe5b14613d23576040805162461bcd60e51b81526020600482015260016024820152603960f81b604482015290519081900360640190fd5b6001600160a01b038316600090815260026020526040902060030154421115613d78576040805162461bcd60e51b8152602060048201526002602482015261031360f41b604482015290519081900360640190fd5b81613daf576040805162461bcd60e51b8152602060048201526002602482015261313160f01b604482015290519081900360640190fd5b600d54600e54600091613dd49184916001600160a01b03908116918791163033614e6e565b601054909150613de4908261467d565b6010556001600160a01b038416600090815260026020526040902060040154613e0d908261467d565b6001600160a01b038516600090815260026020526040902060040155600954613e35856142ff565b10613e57576001600160a01b0384166000908152600260205260408120600301555b604080513381526001600160a01b03861660208201528082018590526060810183905290517f7745b8ee282b3bb1a0958b211eb3a34506deb988e5488e560a63b83ce03ba9d99181900360800190a150505050565b600154604080516318160ddd60e01b815290516000926001600160a01b0316916318160ddd916004808301926020929190829003018186803b158015613ef157600080fd5b505afa158015613f05573d6000803e3d6000fd5b505050506040513d6020811015613f1b57600080fd5b5051905090565b81613f58576040805162461bcd60e51b81526020600482015260016024820152603760f81b604482015290519081900360640190fd5b613a023383836151ca565b60035433906001600160a01b03168114613fa8576040805162461bcd60e51b81526020600482015260016024820152603160f81b604482015290519081900360640190fd5b6007544210613fe3576040805162461bcd60e51b8152602060048201526002602482015261032360f41b604482015290519081900360640190fd5b60118054600360ff19909116179055600054604080516302d5537b60e41b81529051620100009092046001600160a01b031691632d5537b091600480820192602092909190829003018186803b15801561403c57600080fd5b505afa158015614050573d6000803e3d6000fd5b505050506040513d602081101561406657600080fd5b5051604080516311f2df1b60e21b815290516001600160a01b03909216916347cb7c6c9160048082019260009290919082900301818387803b1580156140ab57600080fd5b505af11580156140bf573d6000803e3d6000fd5b505050506140cb614b7d565b600160009054906101000a90046001600160a01b03166001600160a01b0316638456cb596040518163ffffffff1660e01b8152600401600060405180830381600087803b15801561411b57600080fd5b505af115801561412f573d6000803e3d6000fd5b50506040517f1b3fded7559ac6f503ef6da9a5c2322391699306cf412307650cebb15ba6ea28925060009150a150565b6000808290506142e36305f5e100610f166141e3846001600160a01b031663acca944f6040518163ffffffff1660e01b815260040160206040518083038186803b1580156141ac57600080fd5b505afa1580156141c0573d6000803e3d6000fd5b505050506040513d60208110156141d657600080fd5b50516305f5e10090614b20565b6142dd6305f5e100610f16876001600160a01b0316632630c12f6040518163ffffffff1660e01b815260040160206040518083038186803b15801561422757600080fd5b505afa15801561423b573d6000803e3d6000fd5b505050506040513d602081101561425157600080fd5b5051600d54600854604080516310603c1160e01b81526001600160a01b03938416600482015291831660248301525191909216916310603c11916044808301926020929190829003018186803b1580156142aa57600080fd5b505afa1580156142be573d6000803e3d6000fd5b505050506040513d60208110156142d457600080fd5b50518b90614ac7565b90614ac7565b949350505050565b600061194e6003600901546142dd846116c2565b600154604080516370a0823160e01b81526001600160a01b0384811660048301529151600093849316916370a08231916024808301926020929190829003018186803b15801561434e57600080fd5b505afa158015614362573d6000803e3d6000fd5b505050506040513d602081101561437857600080fd5b50516001600160a01b03808516600090815260026020908152604080832060049081015460015483516318160ddd60e01b8152935197985094966144189691956111c2959216936318160ddd93818101939291829003018186803b1580156143df57600080fd5b505afa1580156143f3573d6000803e3d6000fd5b505050506040513d602081101561440957600080fd5b5051600f54610f169087614ac7565b90506142e3828261178c565b601054600f5460009182916144389161467d565b9050610f1c600160009054906101000a90046001600160a01b03166001600160a01b03166318160ddd6040518163ffffffff1660e01b815260040160206040518083038186803b15801561448b57600080fd5b505afa15801561449f573d6000803e3d6000fd5b505050506040513d60208110156144b557600080fd5b50518261178c565b600080600160009054906101000a90046001600160a01b03166001600160a01b03166318160ddd6040518163ffffffff1660e01b815260040160206040518083038186803b15801561450e57600080fd5b505afa158015614522573d6000803e3d6000fd5b505050506040513d602081101561453857600080fd5b505190506000614547846142eb565b905060008060029054906101000a90046001600160a01b03169050600080826001600160a01b031663171e10856040518163ffffffff1660e01b815260040160206040518083038186803b15801561459e57600080fd5b505afa1580156145b2573d6000803e3d6000fd5b505050506040513d60208110156145c857600080fd5b50516040805160016216f02b60e01b0319815230600482015281516001600160a01b039093169263ffe90fd592602480840193919291829003018186803b15801561461257600080fd5b505afa158015614626573d6000803e3d6000fd5b505050506040513d604081101561463c57600080fd5b5080516020909101519092509050600061465a856142dd4286614b20565b9050600061467087610f168b6142dd868861467d565b9998505050505050505050565b6000828201838110156116e5576040805162461bcd60e51b815260206004820152601b60248201527f536166654d6174683a206164646974696f6e206f766572666c6f770000000000604482015290519081900360640190fd5b600081848411156147665760405162461bcd60e51b81526004018080602001828103825283818151815260200191508051906020019080838360005b8381101561472b578181015183820152602001614713565b50505050905090810190601f1680156147585780820380516001836020036101000a031916815260200191505b509250505060405180910390fd5b505050900390565b60008082116147c4576040805162461bcd60e51b815260206004820152601a60248201527f536166654d6174683a206469766973696f6e206279207a65726f000000000000604482015290519081900360640190fd5b8183816147cd57fe5b049392505050565b60006147e083615251565b905060008083156149ac5760008060029054906101000a90046001600160a01b03166001600160a01b031663ecced6236040518163ffffffff1660e01b815260040160206040518083038186803b15801561483a57600080fd5b505afa15801561484e573d6000803e3d6000fd5b505050506040513d602081101561486457600080fd5b50516008549091506001600160a01b0316614912576008546040805162a3da2560e61b8152600481018790526001600160a01b039283166024820152848316604482015288831660648201529051918316916328f68940918791608480830192602092919082900301818588803b1580156148de57600080fd5b505af11580156148f2573d6000803e3d6000fd5b50505050506040513d602081101561490957600080fd5b505192506149a6565b6008546040805162a3da2560e61b8152600481018790526001600160a01b039283166024820152848316604482015288831660648201529051918316916328f68940916084808201926020929091908290030181600087803b15801561497757600080fd5b505af115801561498b573d6000803e3d6000fd5b505050506040513d60208110156149a157600080fd5b505192505b50614a7b565b6008546001600160a01b03166149f2576040516001600160a01b0386169084156108fc029085906000818181858888f193505050501580156149a6573d6000803e3d6000fd5b600854604080516323b872dd60e01b81523060048201526001600160a01b03888116602483015260448201879052915191909216916323b872dd9160648083019260209291908290030181600087803b158015614a4e57600080fd5b505af1158015614a62573d6000803e3d6000fd5b505050506040513d6020811015614a7857600080fd5b50505b6001600160a01b038516600090815260026020526040902060010154614aa1908461467d565b6001600160a01b0390951660009081526002602052604090206001019490945550505050565b600082614ad65750600061194e565b82820282848281614ae357fe5b04146116e55760405162461bcd60e51b815260040180806020018281038252602181526020018061586c6021913960400191505060405180910390fd5b600082821115614b77576040805162461bcd60e51b815260206004820152601e60248201527f536166654d6174683a207375627472616374696f6e206f766572666c6f770000604482015290519081900360640190fd5b50900390565b601054600f54600091614b90919061467d565b905060008060029054906101000a90046001600160a01b03166001600160a01b031663ecced6236040518163ffffffff1660e01b815260040160206040518083038186803b158015614be157600080fd5b505afa158015614bf5573d6000803e3d6000fd5b505050506040513d6020811015614c0b57600080fd5b5051600d54600e5460408051633c6340f360e21b81526001600160a01b03938416600482015233602482015291831660448301526064820186905251919092169163f18d03cc9160848083019260209291908290030181600087803b158015614c7357600080fd5b505af1158015614c87573d6000803e3d6000fd5b505050506040513d6020811015614c9d57600080fd5b5051604080513381526020810183905281519293507fc30fcfbcaac9e0deffa719714eaa82396ff506a0d0d0eebe170830177288715d929081900390910190a150506000600f819055601055565b6000614cf63061545c565b15905090565b60008060029054906101000a90046001600160a01b03166001600160a01b0316632630c12f6040518163ffffffff1660e01b815260040160206040518083038186803b158015614d4b57600080fd5b505afa158015614d5f573d6000803e3d6000fd5b505050506040513d6020811015614d7557600080fd5b5051600854600d54604080516310603c1160e01b81526001600160a01b03938416600482015291831660248301525191909216916310603c11916044808301926020929190829003018186803b158015614dce57600080fd5b505afa158015614de2573d6000803e3d6000fd5b505050506040513d6020811015614df857600080fd5b5051600454909150614e2490662386f26fc1000090610f1690614e1b9085614ac7565b60095490614ac7565b831015614e5d576040805162461bcd60e51b8152602060048201526002602482015261199b60f11b604482015290519081900360640190fd5b614e688484846151ca565b50505050565b600080600060029054906101000a90046001600160a01b03166001600160a01b031663ecced6236040518163ffffffff1660e01b815260040160206040518083038186803b158015614ebf57600080fd5b505afa158015614ed3573d6000803e3d6000fd5b505050506040513d6020811015614ee957600080fd5b5051905060008861509b576001600160a01b038816614fd657863414614f3a576040805162461bcd60e51b81526020600482015260016024820152600760fb1b604482015290519081900360640190fd5b816001600160a01b0316632e2d298434898b8a6040518563ffffffff1660e01b815260040180848152602001836001600160a01b03168152602001826001600160a01b0316815260200193505050506020604051808303818588803b158015614fa257600080fd5b505af1158015614fb6573d6000803e3d6000fd5b50505050506040513d6020811015614fcd57600080fd5b50519050615096565b614feb6001600160a01b03891685878a615462565b614fff6001600160a01b03891683896154bc565b816001600160a01b0316632e2d2984888a896040518463ffffffff1660e01b815260040180848152602001836001600160a01b03168152602001826001600160a01b031681526020019350505050602060405180830381600087803b15801561506757600080fd5b505af115801561507b573d6000803e3d6000fd5b505050506040513d602081101561509157600080fd5b505190505b6151be565b6000866001600160a01b03166359846d29898b6040518363ffffffff1660e01b815260040180838152602001826001600160a01b0316815260200192505050602060405180830381600087803b1580156150f457600080fd5b505af1158015615108573d6000803e3d6000fd5b505050506040513d602081101561511e57600080fd5b505160408051633713ade960e11b81526001600160a01b038c81166004830152888116602483015289811660448301528a8116606483015260848201849052915192935090851691636e275bd29160a4808201926020929091908290030181600087803b15801561518e57600080fd5b505af11580156151a2573d6000803e3d6000fd5b505050506040513d60208110156151b857600080fd5b50519150505b98975050505050505050565b600d54600e546000916151ef9184916001600160a01b03908116918791163089614e6e565b600f549091506151ff908261467d565b600f55604080516001600160a01b03861681526020810185905280820183905290517f11f8990ac38271f23dea447d5728e9914fca7cea2edda43af6c43c415f8bc30b9181900360600190a150505050565b600080600060029054906101000a90046001600160a01b03166001600160a01b031663171e10856040518163ffffffff1660e01b815260040160206040518083038186803b1580156152a257600080fd5b505afa1580156152b6573d6000803e3d6000fd5b505050506040513d60208110156152cc57600080fd5b505160408051630a3371f560e11b815230600482015290516001600160a01b0390921691631466e3ea91602480820192602092909190829003018186803b15801561531657600080fd5b505afa15801561532a573d6000803e3d6000fd5b505050506040513d602081101561534057600080fd5b50516001600160a01b038085166000908152600260209081526040808320600190810154905482516318160ddd60e01b8152925196975093956142e3959194615456949216926318160ddd926004808301939192829003018186803b1580156153a857600080fd5b505afa1580156153bc573d6000803e3d6000fd5b505050506040513d60208110156153d257600080fd5b5051600154604080516370a0823160e01b81526001600160a01b038b811660048301529151610f16938a9316916370a08231916024808301926020929190829003018186803b15801561542457600080fd5b505afa158015615438573d6000803e3d6000fd5b505050506040513d602081101561544e57600080fd5b505190614ac7565b90614b20565b3b151590565b604080516001600160a01b0380861660248301528416604482015260648082018490528251808303909101815260849091019091526020810180516001600160e01b03166323b872dd60e01b179052614e689085906155cb565b801580615542575060408051636eb1769f60e11b81523060048201526001600160a01b03848116602483015291519185169163dd62ed3e91604480820192602092909190829003018186803b15801561551457600080fd5b505afa158015615528573d6000803e3d6000fd5b505050506040513d602081101561553e57600080fd5b5051155b61557d5760405162461bcd60e51b81526004018080602001828103825260368152602001806158de6036913960400191505060405180910390fd5b604080516001600160a01b038416602482015260448082018490528251808303909101815260649091019091526020810180516001600160e01b031663095ea7b360e01b1790526111a29084905b6060615620826040518060400160405280602081526020017f5361666545524332303a206c6f772d6c6576656c2063616c6c206661696c6564815250856001600160a01b031661567c9092919063ffffffff16565b8051909150156111a25780806020019051602081101561563f57600080fd5b50516111a25760405162461bcd60e51b815260040180806020018281038252602a8152602001806158b4602a913960400191505060405180910390fd5b60606142e38484600085856156908561545c565b6156e1576040805162461bcd60e51b815260206004820152601d60248201527f416464726573733a2063616c6c20746f206e6f6e2d636f6e7472616374000000604482015290519081900360640190fd5b60006060866001600160a01b031685876040518082805190602001908083835b602083106157205780518252601f199092019160209182019101615701565b6001836020036101000a03801982511681845116808217855250505050505090500191505060006040518083038185875af1925050503d8060008114615782576040519150601f19603f3d011682016040523d82523d6000602084013e615787565b606091505b50915091506157978282866157a2565b979650505050505050565b606083156157b15750816116e5565b8251156157c15782518084602001fd5b60405162461bcd60e51b815260206004820181815284516024840152845185939192839260440191908501908083836000831561472b57818101518382015260200161471356fe506f6f6c3a3a6c6971756964617465506f6f6c202d204e6f20726561736f6e20746f206c69717569646174652074686520706f6f6c496e697469616c697a61626c653a20636f6e747261637420697320616c726561647920696e697469616c697a6564536166654d6174683a206d756c7469706c69636174696f6e206f766572666c6f77506f6f6c3a3a6c6971756964617465506f6f6c202d204e6f7420656e6f75676820746f6b656e735361666545524332303a204552433230206f7065726174696f6e20646964206e6f7420737563636565645361666545524332303a20617070726f76652066726f6d206e6f6e2d7a65726f20746f206e6f6e2d7a65726f20616c6c6f77616e6365a2646970667358221220aeaa79ca2ada6ead26a6059b753dc540f571a35aad8c70022a834e451182afce64736f6c63430007000033",
  "linkReferences": {},
  "deployedLinkReferences": {}
}