{
  "_format": "hh-sol-artifact-1",
  "contractName": "PoolFactory",
  "sourceName": "contracts/Pool/PoolFactory.sol",
  "abi": [
    {
      "anonymous": false,
      "inputs": [
        {
          "indexed": false,
          "internalType": "address",
          "name": "borrowToken",
          "type": "address"
        },
        {
          "indexed": false,
          "internalType": "bool",
          "name": "isSupported",
          "type": "bool"
        }
      ],
      "name": "BorrowTokenUpdated",
      "type": "event"
    },
    {
      "anonymous": false,
      "inputs": [
        {
          "indexed": false,
          "internalType": "address",
          "name": "collateralToken",
          "type": "address"
        },
        {
          "indexed": false,
          "internalType": "bool",
          "name": "isSupported",
          "type": "bool"
        }
      ],
      "name": "CollateralTokenUpdated",
      "type": "event"
    },
    {
      "anonymous": false,
      "inputs": [
        {
          "indexed": false,
          "internalType": "uint256",
          "name": "updatedCollateralVolatilityThreshold",
          "type": "uint256"
        }
      ],
      "name": "CollateralVolatilityThresholdUpdated",
      "type": "event"
    },
    {
      "anonymous": false,
      "inputs": [
        {
          "indexed": false,
          "internalType": "uint256",
          "name": "updatedCollectionPeriod",
          "type": "uint256"
        }
      ],
      "name": "CollectionPeriodUpdated",
      "type": "event"
    },
    {
      "anonymous": false,
      "inputs": [
        {
          "indexed": false,
          "internalType": "uint256",
          "name": "updatedGracePeriodPenaltyFraction",
          "type": "uint256"
        }
      ],
      "name": "GracePeriodPenaltyFractionUpdated",
      "type": "event"
    },
    {
      "anonymous": false,
      "inputs": [
        {
          "indexed": false,
          "internalType": "bytes4",
          "name": "updatedFunctionId",
          "type": "bytes4"
        }
      ],
      "name": "InitializeFunctionUpdated",
      "type": "event"
    },
    {
      "anonymous": false,
      "inputs": [
        {
          "indexed": false,
          "internalType": "string",
          "name": "limitType",
          "type": "string"
        },
        {
          "indexed": false,
          "internalType": "uint256",
          "name": "max",
          "type": "uint256"
        },
        {
          "indexed": false,
          "internalType": "uint256",
          "name": "min",
          "type": "uint256"
        }
      ],
      "name": "LimitsUpdated",
      "type": "event"
    },
    {
      "anonymous": false,
      "inputs": [
        {
          "indexed": false,
          "internalType": "uint256",
          "name": "updatedLiquidatorRewardFraction",
          "type": "uint256"
        }
      ],
      "name": "LiquidatorRewardFractionUpdated",
      "type": "event"
    },
    {
      "anonymous": false,
      "inputs": [
        {
          "indexed": false,
          "internalType": "uint256",
          "name": "updatedMarginCallDuration",
          "type": "uint256"
        }
      ],
      "name": "MarginCallDurationUpdated",
      "type": "event"
    },
    {
      "anonymous": false,
      "inputs": [
        {
          "indexed": false,
          "internalType": "uint256",
          "name": "updatedMatchCollateralRatioInterval",
          "type": "uint256"
        }
      ],
      "name": "MatchCollateralRatioIntervalUpdated",
      "type": "event"
    },
    {
      "anonymous": false,
      "inputs": [
        {
          "indexed": true,
          "internalType": "address",
          "name": "previousOwner",
          "type": "address"
        },
        {
          "indexed": true,
          "internalType": "address",
          "name": "newOwner",
          "type": "address"
        }
      ],
      "name": "OwnershipTransferred",
      "type": "event"
    },
    {
      "anonymous": false,
      "inputs": [
        {
          "indexed": false,
          "internalType": "address",
          "name": "pool",
          "type": "address"
        },
        {
          "indexed": false,
          "internalType": "address",
          "name": "borrower",
          "type": "address"
        }
      ],
      "name": "PoolCreated",
      "type": "event"
    },
    {
      "anonymous": false,
      "inputs": [
        {
          "indexed": false,
          "internalType": "address",
          "name": "updatedPoolLogic",
          "type": "address"
        }
      ],
      "name": "PoolLogicUpdated",
      "type": "event"
    },
    {
      "anonymous": false,
      "inputs": [
        {
          "indexed": false,
          "internalType": "address",
          "name": "updatedPriceOracle",
          "type": "address"
        }
      ],
      "name": "PriceOracleUpdated",
      "type": "event"
    },
    {
      "anonymous": false,
      "inputs": [
        {
          "indexed": false,
          "internalType": "address",
          "name": "updatedRepaymentImpl",
          "type": "address"
        }
      ],
      "name": "RepaymentImplUpdated",
      "type": "event"
    },
    {
      "anonymous": false,
      "inputs": [
        {
          "indexed": false,
          "internalType": "address",
          "name": "updatedStrategyRegistry",
          "type": "address"
        }
      ],
      "name": "StrategyRegistryUpdated",
      "type": "event"
    },
    {
      "anonymous": false,
      "inputs": [
        {
          "indexed": false,
          "internalType": "address",
          "name": "updatedBorrowerRegistry",
          "type": "address"
        }
      ],
      "name": "UserRegistryUpdated",
      "type": "event"
    },
    {
      "inputs": [],
      "name": "MINTER_ROLE",
      "outputs": [
        {
          "internalType": "bytes32",
          "name": "",
          "type": "bytes32"
        }
      ],
      "stateMutability": "view",
      "type": "function"
    },
    {
      "inputs": [],
      "name": "PAUSER_ROLE",
      "outputs": [
        {
          "internalType": "bytes32",
          "name": "",
          "type": "bytes32"
        }
      ],
      "stateMutability": "view",
      "type": "function"
    },
    {
      "inputs": [],
      "name": "collateralVolatilityThreshold",
      "outputs": [
        {
          "internalType": "uint256",
          "name": "",
          "type": "uint256"
        }
      ],
      "stateMutability": "view",
      "type": "function"
    },
    {
      "inputs": [],
      "name": "collectionPeriod",
      "outputs": [
        {
          "internalType": "uint256",
          "name": "",
          "type": "uint256"
        }
      ],
      "stateMutability": "view",
      "type": "function"
    },
    {
      "inputs": [
        {
          "internalType": "uint256",
          "name": "_poolSize",
          "type": "uint256"
        },
        {
          "internalType": "uint256",
          "name": "_minBorrowAmount",
          "type": "uint256"
        },
        {
          "internalType": "address",
          "name": "_borrowTokenType",
          "type": "address"
        },
        {
          "internalType": "address",
          "name": "_collateralTokenType",
          "type": "address"
        },
        {
          "internalType": "uint256",
          "name": "_collateralRatio",
          "type": "uint256"
        },
        {
          "internalType": "uint256",
          "name": "_borrowRate",
          "type": "uint256"
        },
        {
          "internalType": "uint256",
          "name": "_repaymentInterval",
          "type": "uint256"
        },
        {
          "internalType": "uint256",
          "name": "_noOfRepaymentIntervals",
          "type": "uint256"
        },
        {
          "internalType": "address",
          "name": "_poolSavingsStrategy",
          "type": "address"
        },
        {
          "internalType": "uint256",
          "name": "_collateralAmount",
          "type": "uint256"
        },
        {
          "internalType": "bool",
          "name": "_transferFromSavingsAccount",
          "type": "bool"
        }
      ],
      "name": "createPool",
      "outputs": [],
      "stateMutability": "payable",
      "type": "function"
    },
    {
      "inputs": [],
      "name": "destroyPool",
      "outputs": [],
      "stateMutability": "nonpayable",
      "type": "function"
    },
    {
      "inputs": [],
      "name": "extension",
      "outputs": [
        {
          "internalType": "address",
          "name": "",
          "type": "address"
        }
      ],
      "stateMutability": "view",
      "type": "function"
    },
    {
      "inputs": [],
      "name": "gracePeriodFraction",
      "outputs": [
        {
          "internalType": "uint256",
          "name": "",
          "type": "uint256"
        }
      ],
      "stateMutability": "view",
      "type": "function"
    },
    {
      "inputs": [],
      "name": "gracePeriodPenaltyFraction",
      "outputs": [
        {
          "internalType": "uint256",
          "name": "",
          "type": "uint256"
        }
      ],
      "stateMutability": "view",
      "type": "function"
    },
    {
      "inputs": [
        {
          "internalType": "address",
          "name": "_poolImpl",
          "type": "address"
        },
        {
          "internalType": "address",
          "name": "_userRegistry",
          "type": "address"
        },
        {
          "internalType": "address",
          "name": "_strategyRegistry",
          "type": "address"
        },
        {
          "internalType": "address",
          "name": "_admin",
          "type": "address"
        },
        {
          "internalType": "uint256",
          "name": "_collectionPeriod",
          "type": "uint256"
        },
        {
          "internalType": "uint256",
          "name": "_matchCollateralRatioInterval",
          "type": "uint256"
        },
        {
          "internalType": "uint256",
          "name": "_marginCallDuration",
          "type": "uint256"
        },
        {
          "internalType": "uint256",
          "name": "_collateralVolatilityThreshold",
          "type": "uint256"
        },
        {
          "internalType": "uint256",
          "name": "_gracePeriodPenaltyFraction",
          "type": "uint256"
        },
        {
          "internalType": "bytes4",
          "name": "_initializeFunctionId",
          "type": "bytes4"
        },
        {
          "internalType": "uint256",
          "name": "_liquidatorRewardFraction",
          "type": "uint256"
        },
        {
          "internalType": "address",
          "name": "_repaymentImpl",
          "type": "address"
        },
        {
          "internalType": "address",
          "name": "_priceOracle",
          "type": "address"
        },
        {
          "internalType": "address",
          "name": "_savingsAccount",
          "type": "address"
        },
        {
          "internalType": "address",
          "name": "_extension",
          "type": "address"
        }
      ],
      "name": "initialize",
      "outputs": [],
      "stateMutability": "nonpayable",
      "type": "function"
    },
    {
      "inputs": [],
      "name": "initializeFunctionId",
      "outputs": [
        {
          "internalType": "bytes4",
          "name": "",
          "type": "bytes4"
        }
      ],
      "stateMutability": "view",
      "type": "function"
    },
    {
      "inputs": [],
      "name": "liquidatorRewardFraction",
      "outputs": [
        {
          "internalType": "uint256",
          "name": "",
          "type": "uint256"
        }
      ],
      "stateMutability": "view",
      "type": "function"
    },
    {
      "inputs": [],
      "name": "marginCallDuration",
      "outputs": [
        {
          "internalType": "uint256",
          "name": "",
          "type": "uint256"
        }
      ],
      "stateMutability": "view",
      "type": "function"
    },
    {
      "inputs": [],
      "name": "matchCollateralRatioInterval",
      "outputs": [
        {
          "internalType": "uint256",
          "name": "",
          "type": "uint256"
        }
      ],
      "stateMutability": "view",
      "type": "function"
    },
    {
      "inputs": [
        {
          "internalType": "address",
          "name": "",
          "type": "address"
        }
      ],
      "name": "openBorrowPoolRegistry",
      "outputs": [
        {
          "internalType": "bool",
          "name": "",
          "type": "bool"
        }
      ],
      "stateMutability": "view",
      "type": "function"
    },
    {
      "inputs": [],
      "name": "owner",
      "outputs": [
        {
          "internalType": "address",
          "name": "",
          "type": "address"
        }
      ],
      "stateMutability": "view",
      "type": "function"
    },
    {
      "inputs": [],
      "name": "poolImpl",
      "outputs": [
        {
          "internalType": "address",
          "name": "",
          "type": "address"
        }
      ],
      "stateMutability": "view",
      "type": "function"
    },
    {
      "inputs": [],
      "name": "priceOracle",
      "outputs": [
        {
          "internalType": "address",
          "name": "",
          "type": "address"
        }
      ],
      "stateMutability": "view",
      "type": "function"
    },
    {
      "inputs": [],
      "name": "renounceOwnership",
      "outputs": [],
      "stateMutability": "nonpayable",
      "type": "function"
    },
    {
      "inputs": [],
      "name": "repaymentImpl",
      "outputs": [
        {
          "internalType": "address",
          "name": "",
          "type": "address"
        }
      ],
      "stateMutability": "view",
      "type": "function"
    },
    {
      "inputs": [],
      "name": "savingsAccount",
      "outputs": [
        {
          "internalType": "address",
          "name": "",
          "type": "address"
        }
      ],
      "stateMutability": "view",
      "type": "function"
    },
    {
      "inputs": [],
      "name": "strategyRegistry",
      "outputs": [
        {
          "internalType": "address",
          "name": "",
          "type": "address"
        }
      ],
      "stateMutability": "view",
      "type": "function"
    },
    {
      "inputs": [
        {
          "internalType": "address",
          "name": "newOwner",
          "type": "address"
        }
      ],
      "name": "transferOwnership",
      "outputs": [],
      "stateMutability": "nonpayable",
      "type": "function"
    },
    {
      "inputs": [
        {
          "internalType": "uint256",
          "name": "_min",
          "type": "uint256"
        },
        {
          "internalType": "uint256",
          "name": "_max",
          "type": "uint256"
        }
      ],
      "name": "updateBorrowRateLimit",
      "outputs": [],
      "stateMutability": "nonpayable",
      "type": "function"
    },
    {
      "inputs": [
        {
          "internalType": "uint256",
          "name": "_min",
          "type": "uint256"
        },
        {
          "internalType": "uint256",
          "name": "_max",
          "type": "uint256"
        }
      ],
      "name": "updateCollateralRatioLimit",
      "outputs": [],
      "stateMutability": "nonpayable",
      "type": "function"
    },
    {
      "inputs": [
        {
          "internalType": "uint256",
          "name": "_collateralVolatilityThreshold",
          "type": "uint256"
        }
      ],
      "name": "updateCollateralVolatilityThreshold",
      "outputs": [],
      "stateMutability": "nonpayable",
      "type": "function"
    },
    {
      "inputs": [
        {
          "internalType": "uint256",
          "name": "_collectionPeriod",
          "type": "uint256"
        }
      ],
      "name": "updateCollectionPeriod",
      "outputs": [],
      "stateMutability": "nonpayable",
      "type": "function"
    },
    {
      "inputs": [
        {
          "internalType": "uint256",
          "name": "_gracePeriodPenaltyFraction",
          "type": "uint256"
        }
      ],
      "name": "updateGracePeriodPenaltyFraction",
      "outputs": [],
      "stateMutability": "nonpayable",
      "type": "function"
    },
    {
      "inputs": [
        {
          "internalType": "bytes4",
          "name": "_functionId",
          "type": "bytes4"
        }
      ],
      "name": "updateInitializeFunctionId",
      "outputs": [],
      "stateMutability": "nonpayable",
      "type": "function"
    },
    {
      "inputs": [
        {
          "internalType": "uint256",
          "name": "_liquidatorRewardFraction",
          "type": "uint256"
        }
      ],
      "name": "updateLiquidatorRewardFraction",
      "outputs": [],
      "stateMutability": "nonpayable",
      "type": "function"
    },
    {
      "inputs": [
        {
          "internalType": "uint256",
          "name": "_marginCallDuration",
          "type": "uint256"
        }
      ],
      "name": "updateMarginCallDuration",
      "outputs": [],
      "stateMutability": "nonpayable",
      "type": "function"
    },
    {
      "inputs": [
        {
          "internalType": "uint256",
          "name": "_matchCollateralRatioInterval",
          "type": "uint256"
        }
      ],
      "name": "updateMatchCollateralRatioInterval",
      "outputs": [],
      "stateMutability": "nonpayable",
      "type": "function"
    },
    {
      "inputs": [
        {
          "internalType": "uint256",
          "name": "_min",
          "type": "uint256"
        },
        {
          "internalType": "uint256",
          "name": "_max",
          "type": "uint256"
        }
      ],
      "name": "updateNoOfRepaymentIntervalsLimit",
      "outputs": [],
      "stateMutability": "nonpayable",
      "type": "function"
    },
    {
      "inputs": [
        {
          "internalType": "address",
          "name": "_poolLogic",
          "type": "address"
        }
      ],
      "name": "updatePoolLogic",
      "outputs": [],
      "stateMutability": "nonpayable",
      "type": "function"
    },
    {
      "inputs": [
        {
          "internalType": "uint256",
          "name": "_min",
          "type": "uint256"
        },
        {
          "internalType": "uint256",
          "name": "_max",
          "type": "uint256"
        }
      ],
      "name": "updatePoolSizeLimit",
      "outputs": [],
      "stateMutability": "nonpayable",
      "type": "function"
    },
    {
      "inputs": [
        {
          "internalType": "address",
          "name": "_priceOracle",
          "type": "address"
        }
      ],
      "name": "updatePriceoracle",
      "outputs": [],
      "stateMutability": "nonpayable",
      "type": "function"
    },
    {
      "inputs": [
        {
          "internalType": "address",
          "name": "_repaymentImpl",
          "type": "address"
        }
      ],
      "name": "updateRepaymentImpl",
      "outputs": [],
      "stateMutability": "nonpayable",
      "type": "function"
    },
    {
      "inputs": [
        {
          "internalType": "uint256",
          "name": "_min",
          "type": "uint256"
        },
        {
          "internalType": "uint256",
          "name": "_max",
          "type": "uint256"
        }
      ],
      "name": "updateRepaymentIntervalLimit",
      "outputs": [],
      "stateMutability": "nonpayable",
      "type": "function"
    },
    {
      "inputs": [
        {
          "internalType": "address",
          "name": "_strategyRegistry",
          "type": "address"
        }
      ],
      "name": "updateStrategyRegistry",
      "outputs": [],
      "stateMutability": "nonpayable",
      "type": "function"
    },
    {
      "inputs": [
        {
          "internalType": "address",
          "name": "_borrowToken",
          "type": "address"
        },
        {
          "internalType": "bool",
          "name": "_isSupported",
          "type": "bool"
        }
      ],
      "name": "updateSupportedBorrowTokens",
      "outputs": [],
      "stateMutability": "nonpayable",
      "type": "function"
    },
    {
      "inputs": [
        {
          "internalType": "address",
          "name": "_collateralToken",
          "type": "address"
        },
        {
          "internalType": "bool",
          "name": "_isSupported",
          "type": "bool"
        }
      ],
      "name": "updateSupportedCollateralTokens",
      "outputs": [],
      "stateMutability": "nonpayable",
      "type": "function"
    },
    {
      "inputs": [
        {
          "internalType": "address",
          "name": "_userRegistry",
          "type": "address"
        }
      ],
      "name": "updateUserRegistry",
      "outputs": [],
      "stateMutability": "nonpayable",
      "type": "function"
    },
    {
      "inputs": [],
      "name": "userRegistry",
      "outputs": [
        {
          "internalType": "address",
          "name": "",
          "type": "address"
        }
      ],
      "stateMutability": "view",
      "type": "function"
    },
    {
      "inputs": [],
      "name": "votingPassRatio",
      "outputs": [
        {
          "internalType": "uint256",
          "name": "",
          "type": "uint256"
        }
      ],
      "stateMutability": "view",
      "type": "function"
    }
  ],
  "bytecode": "0x608060405234801561001057600080fd5b50615808806100206000396000f3fe608060405260043610620002a25760003560e01c8063756401eb1162000163578063ba330bc811620000c7578063dfcc8ce71162000085578063dfcc8ce7146200090b578063e030a06d1462000923578063e63ab1e91462000957578063ecced623146200096f578063f2fde38b1462000987578063f560008e14620009be57620002a2565b8063ba330bc8146200082b578063ce2f9f4c1462000876578063d080bf2714620008a4578063d539139314620008bc578063dcc314db14620008d457620002a2565b8063800987ba1162000121578063800987ba146200076f5780638da5cb5b146200079d5780639b9842c114620007b5578063aa76834d14620007cd578063abf4d64314620007fb578063acca944f146200081357620002a2565b8063756401eb146200061a5780637908423b14620006895780637be4a7b514620006bd5780637cf0aec814620006fc5780637d3edfee146200073057620002a2565b80634c1f2dc5116200020b5780635c7460d611620001c95780635c7460d6146200054e57806363832d541462000566578063651faffa146200057e57806365e3056214620005b5578063715018a614620005ea57806374113a27146200060257620002a2565b80634c1f2dc514620004625780634c4496ad14620004995780634e73f74b14620004c757806352cd278314620004df578063566e8030146200051657620002a2565b80632630c12f11620002655780632630c12f146200038157806329ae4a6f14620003995780632d5537b014620003c75780632e37d82614620003df57806334c0af5414620004165780633a02ab3c146200044a57620002a2565b80630971976e14620002a7578063112dc9dc14620002d1578063171e1085146200030157806317c03f07146200033557806325fb966d1462000369575b600080fd5b348015620002b457600080fd5b50620002bf62000a6b565b60408051918252519081900360200190f35b348015620002de57600080fd5b50620002ff60048036036020811015620002f757600080fd5b503562000a71565b005b3480156200030e57600080fd5b506200031962000b14565b604080516001600160a01b039092168252519081900360200190f35b3480156200034257600080fd5b50620002ff600480360360408110156200035b57600080fd5b508035906020013562000b23565b3480156200037657600080fd5b50620002bf62000bff565b3480156200038e57600080fd5b506200031962000c05565b348015620003a657600080fd5b50620002ff60048036036020811015620003bf57600080fd5b503562000c14565b348015620003d457600080fd5b506200031962000cb7565b348015620003ec57600080fd5b50620002ff600480360360208110156200040557600080fd5b50356001600160a01b031662000cc6565b3480156200042357600080fd5b50620002ff600480360360408110156200043c57600080fd5b508035906020013562000d82565b3480156200045757600080fd5b50620002bf62000e5a565b3480156200046f57600080fd5b50620002ff600480360360208110156200048857600080fd5b50356001600160a01b031662000e60565b348015620004a657600080fd5b50620002ff60048036036020811015620004bf57600080fd5b503562000f1c565b348015620004d457600080fd5b50620002bf62000fbf565b348015620004ec57600080fd5b50620002ff600480360360208110156200050557600080fd5b50356001600160a01b031662000fc5565b3480156200052357600080fd5b50620002ff600480360360208110156200053c57600080fd5b50356001600160e01b03191662001081565b3480156200055b57600080fd5b50620003196200113d565b3480156200057357600080fd5b50620003196200114c565b3480156200058b57600080fd5b50620002ff60048036036020811015620005a457600080fd5b50356001600160a01b031662001163565b348015620005c257600080fd5b50620005cd6200121f565b604080516001600160e01b03199092168252519081900360200190f35b348015620005f757600080fd5b50620002ff62001228565b3480156200060f57600080fd5b50620002bf620012da565b620002ff60048036036101608110156200063357600080fd5b508035906020810135906001600160a01b036040820135811691606081013582169160808201359160a08101359160c08201359160e08101359161010082013516906101208101359061014001351515620012e0565b3480156200069657600080fd5b50620002ff60048036036040811015620006af57600080fd5b508035906020013562001ac1565b348015620006ca57600080fd5b50620002ff60048036036040811015620006e357600080fd5b506001600160a01b038135169060200135151562001b97565b3480156200070957600080fd5b50620002ff600480360360408110156200072257600080fd5b508035906020013562001c63565b3480156200073d57600080fd5b50620002ff600480360360408110156200075657600080fd5b506001600160a01b038135169060200135151562001d32565b3480156200077c57600080fd5b50620002ff600480360360208110156200079557600080fd5b503562001dfe565b348015620007aa57600080fd5b506200031962001ea1565b348015620007c257600080fd5b50620002bf62001eb2565b348015620007da57600080fd5b50620002ff60048036036020811015620007f357600080fd5b503562001eb8565b3480156200080857600080fd5b50620002ff62001f5b565b3480156200082057600080fd5b50620002bf62001fc4565b3480156200083857600080fd5b5062000862600480360360208110156200085157600080fd5b50356001600160a01b031662001fca565b604080519115158252519081900360200190f35b3480156200088357600080fd5b50620002ff600480360360208110156200089c57600080fd5b503562001fdf565b348015620008b157600080fd5b506200031962002082565b348015620008c957600080fd5b50620002bf62002091565b348015620008e157600080fd5b50620002ff60048036036020811015620008fa57600080fd5b50356001600160a01b0316620020b5565b3480156200091857600080fd5b50620002bf6200217f565b3480156200093057600080fd5b50620002ff600480360360408110156200094957600080fd5b508035906020013562002185565b3480156200096457600080fd5b50620002bf62002256565b3480156200097c57600080fd5b50620003196200227a565b3480156200099457600080fd5b50620002ff60048036036020811015620009ad57600080fd5b50356001600160a01b031662002289565b348015620009cb57600080fd5b50620002ff60048036036101e0811015620009e557600080fd5b506001600160a01b03813581169160208101358216916040820135811691606081013582169160808201359160a08101359160c08201359160e081013591610100820135916001600160e01b03196101208201351691610140820135916101608101358216916101808201358116916101a08101358216916101c0909101351662002394565b606c5481565b62000a7b620025bb565b6001600160a01b031662000a8e62001ea1565b6001600160a01b03161462000ad9576040805162461bcd60e51b81526020600482018190526024820152600080516020620056a3833981519152604482015290519081900360640190fd5b60718190556040805182815290517ffc9f5adb3ea0a0ee669d6b5200334f3bb22968c6e7b2eedf0e5819182319c5229181900360200190a150565b6069546001600160a01b031681565b62000b2d620025bb565b6001600160a01b031662000b4062001ea1565b6001600160a01b03161462000b8b576040805162461bcd60e51b81526020600482018190526024820152600080516020620056a3833981519152604482015290519081900360640190fd5b6040805180820182528381526020908101839052607f849055608083815582519182018590528183018490526060808352601690830152754e6f4f6652657061796d656e74496e74657276616c7360501b908201529051600080516020620056838339815191529181900360a00190a15050565b606f5481565b606a546001600160a01b031681565b62000c1e620025bb565b6001600160a01b031662000c3162001ea1565b6001600160a01b03161462000c7c576040805162461bcd60e51b81526020600482018190526024820152600080516020620056a3833981519152604482015290519081900360640190fd5b606c8190556040805182815290517f51aa68fcf65b26bbc5a9db0b5933c71c642bc16e263e1d8c9b018a3b951a2cda9181900360200190a150565b6068546001600160a01b031681565b62000cd0620025bb565b6001600160a01b031662000ce362001ea1565b6001600160a01b03161462000d2e576040805162461bcd60e51b81526020600482018190526024820152600080516020620056a3833981519152604482015290519081900360640190fd5b606680546001600160a01b0383166001600160a01b0319909116811790915560408051918252517fed714fbe17e15258cc6c9677fcfc9b57807561d3c4ff5c776fd00508f9dc53b99181900360200190a150565b62000d8c620025bb565b6001600160a01b031662000d9f62001ea1565b6001600160a01b03161462000dea576040805162461bcd60e51b81526020600482018190526024820152600080516020620056a3833981519152604482015290519081900360640190fd5b6040805180820182528381526020908101839052607d849055607e839055815190810184905280820183905260608082526011908201527014995c185e5b595b9d125b9d195c9d985b607a1b60808201529051600080516020620056838339815191529181900360a00190a15050565b606d5481565b62000e6a620025bb565b6001600160a01b031662000e7d62001ea1565b6001600160a01b03161462000ec8576040805162461bcd60e51b81526020600482018190526024820152600080516020620056a3833981519152604482015290519081900360640190fd5b606780546001600160a01b0383166001600160a01b0319909116811790915560408051918252517f0ae0dc70cd51233fb6650002520dcd7be97d65702ded4fbd4fc90777326935889181900360200190a150565b62000f26620025bb565b6001600160a01b031662000f3962001ea1565b6001600160a01b03161462000f84576040805162461bcd60e51b81526020600482018190526024820152600080516020620056a3833981519152604482015290519081900360640190fd5b606f8190556040805182815290517f7bd22fdfd114b4b53cb0059e7ad8a88bf3ae6b68c4fb6c44f44ef3fb425e2a489181900360200190a150565b60705481565b62000fcf620025bb565b6001600160a01b031662000fe262001ea1565b6001600160a01b0316146200102d576040805162461bcd60e51b81526020600482018190526024820152600080516020620056a3833981519152604482015290519081900360640190fd5b606a80546001600160a01b0383166001600160a01b0319909116811790915560408051918252517fefe8ab924ca486283a79dc604baa67add51afb82af1db8ac386ebbba643cdffd9181900360200190a150565b6200108b620025bb565b6001600160a01b03166200109e62001ea1565b6001600160a01b031614620010e9576040805162461bcd60e51b81526020600482018190526024820152600080516020620056a3833981519152604482015290519081900360640190fd5b6065805463ffffffff191660e083901c179055604080516001600160e01b03198316815290517fa11ff58710e2e24dbca566cf471570feaf9dab32cc6efb76bc1306cdca0cfd12916020908290030190a150565b6066546001600160a01b031681565b60655464010000000090046001600160a01b031681565b6200116d620025bb565b6001600160a01b03166200118062001ea1565b6001600160a01b031614620011cb576040805162461bcd60e51b81526020600482018190526024820152600080516020620056a3833981519152604482015290519081900360640190fd5b606980546001600160a01b0383166001600160a01b0319909116811790915560408051918252517fc5d97bee24802645337b82f06929eb7187d3e96d3abfde102b4b5d316c1b98139181900360200190a150565b60655460e01b81565b62001232620025bb565b6001600160a01b03166200124562001ea1565b6001600160a01b03161462001290576040805162461bcd60e51b81526020600482018190526024820152600080516020620056a3833981519152604482015290519081900360640190fd5b6033546040516000916001600160a01b0316907f8be0079c531659141344cd1fd0a4f28419497f9722a3daafe3b4186f6b6457e0908390a3603380546001600160a01b0319169055565b60725481565b60665460408051634209fff160e01b815233600482015290516001600160a01b0390921691634209fff191602480820192602092909190829003018186803b1580156200132c57600080fd5b505afa15801562001341573d6000803e3d6000fd5b505050506040513d60208110156200135857600080fd5b5051620013975760405162461bcd60e51b8152600401808060200182810382526041815260200180620055756041913960600191505060405180910390fd5b8a8a1115620013d85760405162461bcd60e51b8152600401808060200182810382526035815260200180620054ca6035913960400191505060405180910390fd5b6001600160a01b03891660009081526074602052604090205460ff16620014315760405162461bcd60e51b8152600401808060200182810382526033815260200180620057356033913960400191505060405180910390fd5b6001600160a01b03881660009081526075602052604090205460ff166200148a5760405162461bcd60e51b81526004018080602001828103825260378152602001806200579c6037913960400191505060405180910390fd5b606a546040805163633defbd60e01b81526001600160a01b038b811660048301528c811660248301529151919092169163633defbd916044808301926020929190829003018186803b158015620014e057600080fd5b505afa158015620014f5573d6000803e3d6000fd5b505050506040513d60208110156200150c57600080fd5b50516200154b5760405162461bcd60e51b815260040180806020018281038252603f81526020018062005536603f913960400191505060405180910390fd5b6067546040805163038defd760e01b81526001600160a01b0386811660048301529151919092169163038defd7916024808301926020929190829003018186803b1580156200159957600080fd5b505afa158015620015ae573d6000803e3d6000fd5b505050506040513d6020811015620015c557600080fd5b5051620016045760405162461bcd60e51b815260040180806020018281038252602a81526020018062005659602a913960400191505060405180910390fd5b60775460785462001617918d91620025bf565b620016545760405162461bcd60e51b8152600401808060200182810382526034815260200180620057686034913960400191505060405180910390fd5b607954607a5462001667918991620025bf565b620016a45760405162461bcd60e51b815260040180806020018281038252603c815260200180620055b6603c913960400191505060405180910390fd5b607b54607c54620016b7918891620025bf565b620016f45760405162461bcd60e51b8152600401808060200182810382526037815260200180620054ff6037913960400191505060405180910390fd5b607f5460805462001707918691620025bf565b620017445760405162461bcd60e51b8152600401808060200182810382526039815260200180620056206039913960400191505060405180910390fd5b607d54607e5462001757918791620025bf565b620017945760405162461bcd60e51b815260040180806020018281038252603e815260200180620056c3603e913960400191505060405180910390fd5b6060606560009054906101000a900460e01b8c8c338d8d8d8d8d8d8d8d8d606d54606c54604051602401808f81526020018e81526020018d6001600160a01b031681526020018c6001600160a01b031681526020018b6001600160a01b031681526020018a8152602001898152602001888152602001878152602001866001600160a01b0316815260200185815260200184151581526020018381526020018281526020019e505050505050505050505050505050604051602081830303815290604052906001600160e01b0319166020820180516001600160e01b0383818316178352505050509050600034606560049054906101000a90046001600160a01b0316600084604051620018a890620028af565b80846001600160a01b03168152602001836001600160a01b0316815260200180602001828103825283818151815260200191508051906020019080838360005b8381101562001902578181015183820152602001620018e8565b50505050905090810190601f168015620019305780820380516001836020036101000a031916815260200191505b509450505050506040518091039082f090508015801562001955573d6000803e3d6000fd5b5090506000816040516200196990620028bd565b6001600160a01b0390911660408083019190915260608083526017908301527f4f70656e20426f72726f7720506f6f6c20546f6b656e73000000000000000000608083015260a0602083018190526004908301526313d0941560e21b60c0830152519081900360e001906000f080158015620019e9573d6000803e3d6000fd5b509050816001600160a01b03166333ce01fd826040518263ffffffff1660e01b815260040180826001600160a01b03168152602001915050600060405180830381600087803b15801562001a3c57600080fd5b505af115801562001a51573d6000803e3d6000fd5b5050506001600160a01b038316600081815260766020908152604091829020805460ff191660011790558151928352339083015280517f4f2ce4e40f623ca765fc0167a25cb7842ceaafb8d82d3dec26ca0d0e0d2d48969350918290030190a15050505050505050505050505050565b62001acb620025bb565b6001600160a01b031662001ade62001ea1565b6001600160a01b03161462001b29576040805162461bcd60e51b81526020600482018190526024820152600080516020620056a3833981519152604482015290519081900360640190fd5b60408051808201825283815260209081018390526079849055607a83905581519081018490528082018390526060808252600f908201526e436f6c6c61746572616c526174696f60881b60808201529051600080516020620056838339815191529181900360a00190a15050565b62001ba1620025bb565b6001600160a01b031662001bb462001ea1565b6001600160a01b03161462001bff576040805162461bcd60e51b81526020600482018190526024820152600080516020620056a3833981519152604482015290519081900360640190fd5b6001600160a01b038216600081815260746020908152604091829020805460ff191685151590811790915582519384529083015280517fa6c7f9eef436525b9c658fcc90c25e3f399534d7f6654a4204f89690117ec26e9281900390910190a15050565b62001c6d620025bb565b6001600160a01b031662001c8062001ea1565b6001600160a01b03161462001ccb576040805162461bcd60e51b81526020600482018190526024820152600080516020620056a3833981519152604482015290519081900360640190fd5b6040805180820182528381526020908101839052607784905560788390558151908101849052808201839052606080825260089082015267506f6f6c53697a6560c01b60808201529051600080516020620056838339815191529181900360a00190a15050565b62001d3c620025bb565b6001600160a01b031662001d4f62001ea1565b6001600160a01b03161462001d9a576040805162461bcd60e51b81526020600482018190526024820152600080516020620056a3833981519152604482015290519081900360640190fd5b6001600160a01b038216600081815260756020908152604091829020805460ff191685151590811790915582519384529083015280517fa8465fce7714e145603abc61f76c96665912ca5d2f9b7dd67f27349d83294d629281900390910190a15050565b62001e08620025bb565b6001600160a01b031662001e1b62001ea1565b6001600160a01b03161462001e66576040805162461bcd60e51b81526020600482018190526024820152600080516020620056a3833981519152604482015290519081900360640190fd5b606d8190556040805182815290517fd69e359b3075417225bd0005493180e032a9745f5228e51204275897e9d3135e9181900360200190a150565b600062001ead6200261e565b905090565b606e5481565b62001ec2620025bb565b6001600160a01b031662001ed562001ea1565b6001600160a01b03161462001f20576040805162461bcd60e51b81526020600482018190526024820152600080516020620056a3833981519152604482015290519081900360640190fd5b60708190556040805182815290517f949071e044e4732649303ce3f5f4ccb54a8840a73b510ae45d5cd9b81e930d889181900360200190a150565b3360009081526076602052604090205460ff1662001fab5760405162461bcd60e51b8152600401808060200182810382526034815260200180620057016034913960400191505060405180910390fd5b336000908152607660205260409020805460ff19169055565b60715481565b60766020526000908152604090205460ff1681565b62001fe9620025bb565b6001600160a01b031662001ffc62001ea1565b6001600160a01b03161462002047576040805162461bcd60e51b81526020600482018190526024820152600080516020620056a3833981519152604482015290519081900360640190fd5b606e8190556040805182815290517f1e85e6efe46a52b040a7311c9f1e10e4fcda6cae6b435437cb19b633e2e655449181900360200190a150565b6067546001600160a01b031681565b7f9f2df0fed2c77648de5860a4cc508cd0818c85b8b8a1ab4ceeef8d981c8956a681565b620020bf620025bb565b6001600160a01b0316620020d262001ea1565b6001600160a01b0316146200211d576040805162461bcd60e51b81526020600482018190526024820152600080516020620056a3833981519152604482015290519081900360640190fd5b606580546001600160a01b0383166401000000008102640100000000600160c01b03199092169190911790915560408051918252517f8ee0ac431aa1f635687a8e5d2d1c00dc66d43e9d5d9f587748a563030cbdfc019181900360200190a150565b60735481565b6200218f620025bb565b6001600160a01b0316620021a262001ea1565b6001600160a01b031614620021ed576040805162461bcd60e51b81526020600482018190526024820152600080516020620056a3833981519152604482015290519081900360640190fd5b6040805180820182528381526020908101839052607b849055607c83905581519081018490528082018390526060808252600a9082015269426f72726f775261746560b01b60808201529051600080516020620056838339815191529181900360a00190a15050565b7f65d7a28e3265b37a6474929f336521b332c1681b933f6cb9f3376673440d862a81565b606b546001600160a01b031681565b62002293620025bb565b6001600160a01b0316620022a662001ea1565b6001600160a01b031614620022f1576040805162461bcd60e51b81526020600482018190526024820152600080516020620056a3833981519152604482015290519081900360640190fd5b6001600160a01b038116620023385760405162461bcd60e51b8152600401808060200182810382526026815260200180620054a46026913960400191505060405180910390fd5b6033546040516001600160a01b038084169216907f8be0079c531659141344cd1fd0a4f28419497f9722a3daafe3b4186f6b6457e090600090a3603380546001600160a01b0319166001600160a01b0392909216919091179055565b600054610100900460ff1680620023b05750620023b06200262d565b80620023bf575060005460ff16155b620023fc5760405162461bcd60e51b815260040180806020018281038252602e815260200180620055f2602e913960400191505060405180910390fd5b600054610100900460ff1615801562002428576000805460ff1961ff0019909116610100171660011790555b6200243262002640565b6200243d8d62002289565b8f606560046101000a8154816001600160a01b0302191690836001600160a01b031602179055508e606660006101000a8154816001600160a01b0302191690836001600160a01b031602179055508d606760006101000a8154816001600160a01b0302191690836001600160a01b031602179055508b606c819055508a606d8190555089606e8190555088606f819055508760708190555086606560006101000a81548163ffffffff021916908360e01c02179055508560718190555084606960006101000a8154816001600160a01b0302191690836001600160a01b0316021790555083606a60006101000a8154816001600160a01b0302191690836001600160a01b0316021790555082606b60006101000a8154816001600160a01b0302191690836001600160a01b0316021790555081606860006101000a8154816001600160a01b0302191690836001600160a01b031602179055508015620025a9576000805461ff00191690555b50505050505050505050505050505050565b3390565b60008215801590620025d057508115155b15620025ef57828410158015620025e75750818411155b905062002617565b82156200260157508183101562002617565b81156200261357508083111562002617565b5060015b9392505050565b6033546001600160a01b031690565b60006200263a30620026fe565b15905090565b600054610100900460ff16806200265c57506200265c6200262d565b806200266b575060005460ff16155b620026a85760405162461bcd60e51b815260040180806020018281038252602e815260200180620055f2602e913960400191505060405180910390fd5b600054610100900460ff16158015620026d4576000805460ff1961ff0019909116610100171660011790555b620026de62002704565b620026e8620027ac565b8015620026fb576000805461ff00191690555b50565b3b151590565b600054610100900460ff1680620027205750620027206200262d565b806200272f575060005460ff16155b6200276c5760405162461bcd60e51b815260040180806020018281038252602e815260200180620055f2602e913960400191505060405180910390fd5b600054610100900460ff16158015620026e8576000805460ff1961ff0019909116610100171660011790558015620026fb576000805461ff001916905550565b600054610100900460ff1680620027c85750620027c86200262d565b80620027d7575060005460ff16155b620028145760405162461bcd60e51b815260040180806020018281038252602e815260200180620055f2602e913960400191505060405180910390fd5b600054610100900460ff1615801562002840576000805460ff1961ff0019909116610100171660011790555b60006200284c620025bb565b603380546001600160a01b0319166001600160a01b038316908117909155604051919250906000907f8be0079c531659141344cd1fd0a4f28419497f9722a3daafe3b4186f6b6457e0908290a3508015620026fb576000805461ff001916905550565b610c8480620028cc83390190565b611f5480620035508339019056fe608060405260405162000c8438038062000c84833981810160405260608110156200002957600080fd5b815160208301516040808501805191519395929483019291846401000000008211156200005557600080fd5b9083019060208201858111156200006b57600080fd5b82516401000000008111828201881017156200008657600080fd5b82525081516020918201929091019080838360005b83811015620000b55781810151838201526020016200009b565b50505050905090810190601f168015620000e35780820380516001836020036101000a031916815260200191505b5060405250849150839050828281620000fc826200013d565b8051156200011d576200011b8282620001b460201b620003841760201c565b505b50620001269050565b6200013182620001e3565b505050505050620003c5565b62000153816200020760201b620003b01760201c565b620001905760405162461bcd60e51b815260040180806020018281038252603681526020018062000c286036913960400191505060405180910390fd5b7f360894a13ba1a3210667c828492db98dca3e2076cc3735a920a3ca505d382bbc55565b6060620001dc838360405180606001604052806027815260200162000c01602791396200020d565b9392505050565b7fb53127684a568b3173ae13b9f8a6016e243e63b6e8ee1178d6a717850b5d610355565b3b151590565b60606200021a8462000207565b620002575760405162461bcd60e51b815260040180806020018281038252602681526020018062000c5e6026913960400191505060405180910390fd5b60006060856001600160a01b0316856040518082805190602001908083835b60208310620002975780518252601f19909201916020918201910162000276565b6001836020036101000a038019825116818451168082178552505050505050905001915050600060405180830381855af49150503d8060008114620002f9576040519150601f19603f3d011682016040523d82523d6000602084013e620002fe565b606091505b509092509050620003118282866200031b565b9695505050505050565b606083156200032c575081620001dc565b8251156200033d5782518084602001fd5b8160405162461bcd60e51b81526004018080602001828103825283818151815260200191508051906020019080838360005b83811015620003895781810151838201526020016200036f565b50505050905090810190601f168015620003b75780820380516001836020036101000a031916815260200191505b509250505060405180910390fd5b61082c80620003d56000396000f3fe60806040526004361061004e5760003560e01c80633659cfe6146100655780634f1ef286146100985780635c60da1b146101185780638f28397014610149578063f851a4401461017c5761005d565b3661005d5761005b610191565b005b61005b610191565b34801561007157600080fd5b5061005b6004803603602081101561008857600080fd5b50356001600160a01b03166101ab565b61005b600480360360408110156100ae57600080fd5b6001600160a01b0382351691908101906040810160208201356401000000008111156100d957600080fd5b8201836020820111156100eb57600080fd5b8035906020019184600183028401116401000000008311171561010d57600080fd5b5090925090506101e5565b34801561012457600080fd5b5061012d610262565b604080516001600160a01b039092168252519081900360200190f35b34801561015557600080fd5b5061005b6004803603602081101561016c57600080fd5b50356001600160a01b031661029f565b34801561018857600080fd5b5061012d610359565b6101996103b6565b6101a96101a4610416565b61043b565b565b6101b361045f565b6001600160a01b0316336001600160a01b031614156101da576101d581610484565b6101e2565b6101e2610191565b50565b6101ed61045f565b6001600160a01b0316336001600160a01b031614156102555761020f83610484565b61024f8383838080601f01602080910402602001604051908101604052809392919081815260200183838082843760009201919091525061038492505050565b5061025d565b61025d610191565b505050565b600061026c61045f565b6001600160a01b0316336001600160a01b031614156102945761028d610416565b905061029c565b61029c610191565b90565b6102a761045f565b6001600160a01b0316336001600160a01b031614156101da576001600160a01b0381166103055760405162461bcd60e51b815260040180806020018281038252603a8152602001806106f8603a913960400191505060405180910390fd5b7f7e644d79422f17c01e4894b5f4f588d331ebfa28653d42ae832dc59e38c9798f61032e61045f565b604080516001600160a01b03928316815291841660208301528051918290030190a16101d5816104c4565b600061036361045f565b6001600160a01b0316336001600160a01b031614156102945761028d61045f565b60606103a98383604051806060016040528060278152602001610732602791396104e8565b9392505050565b3b151590565b6103be61045f565b6001600160a01b0316336001600160a01b0316141561040e5760405162461bcd60e51b81526004018080602001828103825260428152602001806107b56042913960600191505060405180910390fd5b6101a96101a9565b7f360894a13ba1a3210667c828492db98dca3e2076cc3735a920a3ca505d382bbc5490565b3660008037600080366000845af43d6000803e80801561045a573d6000f35b3d6000fd5b7fb53127684a568b3173ae13b9f8a6016e243e63b6e8ee1178d6a717850b5d61035490565b61048d816105eb565b6040516001600160a01b038216907fbc7cd75a20ee27fd9adebab32041f755214dbc6bffa90cc0225b39da2e5c2d3b90600090a250565b7fb53127684a568b3173ae13b9f8a6016e243e63b6e8ee1178d6a717850b5d610355565b60606104f3846103b0565b61052e5760405162461bcd60e51b815260040180806020018281038252602681526020018061078f6026913960400191505060405180910390fd5b60006060856001600160a01b0316856040518082805190602001908083835b6020831061056c5780518252601f19909201916020918201910161054d565b6001836020036101000a038019825116818451168082178552505050505050905001915050600060405180830381855af49150503d80600081146105cc576040519150601f19603f3d011682016040523d82523d6000602084013e6105d1565b606091505b50915091506105e1828286610653565b9695505050505050565b6105f4816103b0565b61062f5760405162461bcd60e51b81526004018080602001828103825260368152602001806107596036913960400191505060405180910390fd5b7f360894a13ba1a3210667c828492db98dca3e2076cc3735a920a3ca505d382bbc55565b606083156106625750816103a9565b8251156106725782518084602001fd5b8160405162461bcd60e51b81526004018080602001828103825283818151815260200191508051906020019080838360005b838110156106bc5781810151838201526020016106a4565b50505050905090810190601f1680156106e95780820380516001836020036101000a031916815260200191505b509250505060405180910390fdfe5472616e73706172656e745570677261646561626c6550726f78793a206e65772061646d696e20697320746865207a65726f2061646472657373416464726573733a206c6f772d6c6576656c2064656c65676174652063616c6c206661696c65645570677261646561626c6550726f78793a206e657720696d706c656d656e746174696f6e206973206e6f74206120636f6e7472616374416464726573733a2064656c65676174652063616c6c20746f206e6f6e2d636f6e74726163745472616e73706172656e745570677261646561626c6550726f78793a2061646d696e2063616e6e6f742066616c6c6261636b20746f2070726f787920746172676574a2646970667358221220d8cb0bf213e393c9910bc4f994832800ed33f46a9a380803a4f103f3e6eb03e664736f6c63430007000033416464726573733a206c6f772d6c6576656c2064656c65676174652063616c6c206661696c65645570677261646561626c6550726f78793a206e657720696d706c656d656e746174696f6e206973206e6f74206120636f6e7472616374416464726573733a2064656c65676174652063616c6c20746f206e6f6e2d636f6e747261637460806040523480156200001157600080fd5b5060405162001f5438038062001f54833981810160405260608110156200003757600080fd5b81019080805160405193929190846401000000008211156200005857600080fd5b9083019060208201858111156200006e57600080fd5b82516401000000008111828201881017156200008957600080fd5b82525081516020918201929091019080838360005b83811015620000b85781810151838201526020016200009e565b50505050905090810190601f168015620000e65780820380516001836020036101000a031916815260200191505b50604052602001805160405193929190846401000000008211156200010a57600080fd5b9083019060208201858111156200012057600080fd5b82516401000000008111828201881017156200013b57600080fd5b82525081516020918201929091019080838360005b838110156200016a57818101518382015260200162000150565b50505050905090810190601f168015620001985780820380516001836020036101000a031916815260200191505b506040526020908101518551909350859250849183918391620001c191600491850190620003ea565b508051620001d7906005906020840190620003ea565b50506006805461ff001960ff1990911660121716905550620002046000620001fe620002d6565b620002da565b6200022260008051602062001f34833981519152620001fe620002d6565b6200024060008051602062001f14833981519152620001fe620002d6565b506200025e905060008051602062001f3483398151915282620002da565b6200027960008051602062001f1483398151915282620002da565b620002a57f3c11d16cbaffd01df69ce1c404f6340ee057498f5f00246190ea54220576a84882620002da565b600680546001600160a01b03909216620100000262010000600160b01b031990921691909117905550620004869050565b3390565b620002e68282620002ea565b5050565b6000828152602081815260409091206200030f91839062000d9f62000363821b17901c565b15620002e6576200031f620002d6565b6001600160a01b0316816001600160a01b0316837f2f8788117e7eff1d82e926ec794901d17c78024a50270940304540a733656f0d60405160405180910390a45050565b60006200037a836001600160a01b03841662000383565b90505b92915050565b6000620003918383620003d2565b620003c9575081546001818101845560008481526020808220909301849055845484825282860190935260409020919091556200037d565b5060006200037d565b60009081526001919091016020526040902054151590565b828054600181600116156101000203166002900490600052602060002090601f016020900481019282601f106200042d57805160ff19168380011785556200045d565b828001600101855582156200045d579182015b828111156200045d57825182559160200191906001019062000440565b506200046b9291506200046f565b5090565b5b808211156200046b576000815560010162000470565b611a7e80620004966000396000f3fe608060405234801561001057600080fd5b50600436106101da5760003560e01c806370a0823111610104578063a217fddf116100a2578063d539139311610071578063d53913931461058c578063d547741f14610594578063dd62ed3e146105c0578063e63ab1e9146105ee576101da565b8063a217fddf1461050f578063a457c2d714610517578063a9059cbb14610543578063ca15c8731461056f576101da565b80639010d07c116100de5780639010d07c1461048c57806391d14854146104af57806395d89b41146104db5780639dc29fac146104e3576101da565b806370a082311461043257806379cc6790146104585780638456cb5914610484576101da565b80632f2ff15d1161017c5780633f4ba83a1161014b5780633f4ba83a146103d957806340c10f19146103e157806342966c681461040d5780635c975abb1461042a576101da565b80632f2ff15d14610335578063313ce5671461036357806336568abe1461038157806339509351146103ad576101da565b806318160ddd116101b857806318160ddd146102c057806323b872dd146102da578063248a9ca314610310578063282c51f31461032d576101da565b806306fdde03146101df578063095ea7b31461025c57806316f0115b1461029c575b600080fd5b6101e76105f6565b6040805160208082528351818301528351919283929083019185019080838360005b83811015610221578181015183820152602001610209565b50505050905090810190601f16801561024e5780820380516001836020036101000a031916815260200191505b509250505060405180910390f35b6102886004803603604081101561027257600080fd5b506001600160a01b03813516906020013561068c565b604080519115158252519081900360200190f35b6102a46106aa565b604080516001600160a01b039092168252519081900360200190f35b6102c86106bf565b60408051918252519081900360200190f35b610288600480360360608110156102f057600080fd5b506001600160a01b038135811691602081013590911690604001356106c5565b6102c86004803603602081101561032657600080fd5b503561079d565b6102c86107b2565b6103616004803603604081101561034b57600080fd5b50803590602001356001600160a01b03166107d6565b005b61036b610842565b6040805160ff9092168252519081900360200190f35b6103616004803603604081101561039757600080fd5b50803590602001356001600160a01b031661084b565b610288600480360360408110156103c357600080fd5b506001600160a01b0381351690602001356108ac565b6103616108fa565b610361600480360360408110156103f757600080fd5b506001600160a01b03813516906020013561096b565b6103616004803603602081101561042357600080fd5b50356109dc565b6102886109f0565b6102c86004803603602081101561044857600080fd5b50356001600160a01b03166109fe565b6103616004803603604081101561046e57600080fd5b506001600160a01b038135169060200135610a19565b610361610a67565b6102a4600480360360408110156104a257600080fd5b5080359060200135610ad6565b610288600480360360408110156104c557600080fd5b50803590602001356001600160a01b0316610af5565b6101e7610b0d565b610361600480360360408110156104f957600080fd5b506001600160a01b038135169060200135610b6e565b6102c8610bab565b6102886004803603604081101561052d57600080fd5b506001600160a01b038135169060200135610bb0565b6102886004803603604081101561055957600080fd5b506001600160a01b038135169060200135610c18565b6102c86004803603602081101561058557600080fd5b5035610cbc565b6102c8610cd3565b610361600480360360408110156105aa57600080fd5b50803590602001356001600160a01b0316610cf7565b6102c8600480360360408110156105d657600080fd5b506001600160a01b0381358116916020013516610d50565b6102c8610d7b565b60048054604080516020601f60026000196101006001881615020190951694909404938401819004810282018101909252828152606093909290918301828280156106825780601f1061065757610100808354040283529160200191610682565b820191906000526020600020905b81548152906001019060200180831161066557829003601f168201915b5050505050905090565b60006106a0610699610db4565b8484610db8565b5060015b92915050565b6006546201000090046001600160a01b031681565b60035490565b60065460408051631ffb811f60e01b81526001600160a01b038681166004830152858116602483015260448201859052915160009362010000900490921691631ffb811f91606480820192869290919082900301818387803b15801561072a57600080fd5b505af115801561073e573d6000803e3d6000fd5b5050505061074d848484610ea4565b61079384610759610db4565b61078e856040518060600160405280602881526020016118a8602891396107878a610782610db4565b610d50565b9190611001565b610db8565b5060019392505050565b60009081526020819052604090206002015490565b7f3c11d16cbaffd01df69ce1c404f6340ee057498f5f00246190ea54220576a84881565b6000828152602081905260409020600201546107f9906107f4610db4565b610af5565b6108345760405162461bcd60e51b815260040180806020018281038252602f8152602001806117a6602f913960400191505060405180910390fd5b61083e8282611098565b5050565b60065460ff1690565b610853610db4565b6001600160a01b0316816001600160a01b0316146108a25760405162461bcd60e51b815260040180806020018281038252602f8152602001806119f0602f913960400191505060405180910390fd5b61083e8282611101565b60006106a06108b9610db4565b8461078e85600260006108ca610db4565b6001600160a01b03908116825260208083019390935260409182016000908120918c16815292529020549061116a565b6109267f65d7a28e3265b37a6474929f336521b332c1681b933f6cb9f3376673440d862a6107f4610db4565b6109615760405162461bcd60e51b81526004018080602001828103825260398152602001806117f76039913960400191505060405180910390fd5b6109696111c4565b565b6109977f9f2df0fed2c77648de5860a4cc508cd0818c85b8b8a1ab4ceeef8d981c8956a66107f4610db4565b6109d25760405162461bcd60e51b81526004018080602001828103825260368152602001806118d06036913960400191505060405180910390fd5b61083e8282611265565b6109ed6109e7610db4565b82611357565b50565b600654610100900460ff1690565b6001600160a01b031660009081526001602052604090205490565b6000610a44826040518060600160405280602481526020016119066024913961078786610782610db4565b9050610a5883610a52610db4565b83610db8565b610a628383611357565b505050565b610a937f65d7a28e3265b37a6474929f336521b332c1681b933f6cb9f3376673440d862a6107f4610db4565b610ace5760405162461bcd60e51b81526004018080602001828103825260378152602001806119946037913960400191505060405180910390fd5b610969611453565b6000828152602081905260408120610aee90836114d8565b9392505050565b6000828152602081905260408120610aee90836114e4565b60058054604080516020601f60026000196101006001881615020190951694909404938401819004810282018101909252828152606093909290918301828280156106825780601f1061065757610100808354040283529160200191610682565b610b987f3c11d16cbaffd01df69ce1c404f6340ee057498f5f00246190ea54220576a84833610af5565b610ba157600080fd5b61083e8282611357565b600081565b60006106a0610bbd610db4565b8461078e856040518060600160405280602581526020016119cb6025913960026000610be7610db4565b6001600160a01b03908116825260208083019390935260409182016000908120918d16815292529020549190611001565b6006546000906201000090046001600160a01b0316631ffb811f610c3a610db4565b85856040518463ffffffff1660e01b815260040180846001600160a01b03168152602001836001600160a01b031681526020018281526020019350505050600060405180830381600087803b158015610c9257600080fd5b505af1158015610ca6573d6000803e3d6000fd5b505050506106a0610cb5610db4565b8484610ea4565b60008181526020819052604081206106a4906114f9565b7f9f2df0fed2c77648de5860a4cc508cd0818c85b8b8a1ab4ceeef8d981c8956a681565b600082815260208190526040902060020154610d15906107f4610db4565b6108a25760405162461bcd60e51b81526004018080602001828103825260308152602001806118786030913960400191505060405180910390fd5b6001600160a01b03918216600090815260026020908152604080832093909416825291909152205490565b7f65d7a28e3265b37a6474929f336521b332c1681b933f6cb9f3376673440d862a81565b6000610aee836001600160a01b038416611504565b3390565b6001600160a01b038316610dfd5760405162461bcd60e51b81526004018080602001828103825260248152602001806119706024913960400191505060405180910390fd5b6001600160a01b038216610e425760405162461bcd60e51b81526004018080602001828103825260228152602001806118306022913960400191505060405180910390fd5b6001600160a01b03808416600081815260026020908152604080832094871680845294825291829020859055815185815291517f8c5be1e5ebec7d5bd14f71427d1e84f3dd0314c0f7b2291e5b200ac8c7c3b9259281900390910190a3505050565b6001600160a01b038316610ee95760405162461bcd60e51b815260040180806020018281038252602581526020018061194b6025913960400191505060405180910390fd5b6001600160a01b038216610f2e5760405162461bcd60e51b81526004018080602001828103825260238152602001806117836023913960400191505060405180910390fd5b610f3983838361154e565b610f7681604051806060016040528060268152602001611852602691396001600160a01b0386166000908152600160205260409020549190611001565b6001600160a01b038085166000908152600160205260408082209390935590841681522054610fa5908261116a565b6001600160a01b0380841660008181526001602090815260409182902094909455805185815290519193928716927fddf252ad1be2c89b69c2b068fc378daa952ba7f163c4a11628f55a4df523b3ef92918290030190a3505050565b600081848411156110905760405162461bcd60e51b81526004018080602001828103825283818151815260200191508051906020019080838360005b8381101561105557818101518382015260200161103d565b50505050905090810190601f1680156110825780820380516001836020036101000a031916815260200191505b509250505060405180910390fd5b505050900390565b60008281526020819052604090206110b09082610d9f565b1561083e576110bd610db4565b6001600160a01b0316816001600160a01b0316837f2f8788117e7eff1d82e926ec794901d17c78024a50270940304540a733656f0d60405160405180910390a45050565b60008281526020819052604090206111199082611559565b1561083e57611126610db4565b6001600160a01b0316816001600160a01b0316837ff6391f5c32d9c69d2a47ea670b442974b53935d1edc7fd64eb21e047a839171b60405160405180910390a45050565b600082820183811015610aee576040805162461bcd60e51b815260206004820152601b60248201527f536166654d6174683a206164646974696f6e206f766572666c6f770000000000604482015290519081900360640190fd5b6111cc6109f0565b611214576040805162461bcd60e51b815260206004820152601460248201527314185d5cd8589b194e881b9bdd081c185d5cd95960621b604482015290519081900360640190fd5b6006805461ff00191690557f5db9ee0a495bf2e6ff9c91a7834c1ba4fdd244a5e8aa4e537bd38aeae4b073aa611248610db4565b604080516001600160a01b039092168252519081900360200190a1565b6001600160a01b0382166112c0576040805162461bcd60e51b815260206004820152601f60248201527f45524332303a206d696e7420746f20746865207a65726f206164647265737300604482015290519081900360640190fd5b6112cc6000838361154e565b6003546112d9908261116a565b6003556001600160a01b0382166000908152600160205260409020546112ff908261116a565b6001600160a01b03831660008181526001602090815260408083209490945583518581529351929391927fddf252ad1be2c89b69c2b068fc378daa952ba7f163c4a11628f55a4df523b3ef9281900390910190a35050565b6001600160a01b03821661139c5760405162461bcd60e51b815260040180806020018281038252602181526020018061192a6021913960400191505060405180910390fd5b6113a88260008361154e565b6113e5816040518060600160405280602281526020016117d5602291396001600160a01b0385166000908152600160205260409020549190611001565b6001600160a01b03831660009081526001602052604090205560035461140b908261156e565b6003556040805182815290516000916001600160a01b038516917fddf252ad1be2c89b69c2b068fc378daa952ba7f163c4a11628f55a4df523b3ef9181900360200190a35050565b61145b6109f0565b156114a0576040805162461bcd60e51b815260206004820152601060248201526f14185d5cd8589b194e881c185d5cd95960821b604482015290519081900360640190fd5b6006805461ff0019166101001790557f62e78cea01bee320cd4e420270b5ea74000d11b0c9f74754ebdbfc544b05a258611248610db4565b6000610aee83836115cb565b6000610aee836001600160a01b03841661162f565b60006106a482611647565b6000611510838361162f565b611546575081546001818101845560008481526020808220909301849055845484825282860190935260409020919091556106a4565b5060006106a4565b610a6283838361164b565b6000610aee836001600160a01b03841661169a565b6000828211156115c5576040805162461bcd60e51b815260206004820152601e60248201527f536166654d6174683a207375627472616374696f6e206f766572666c6f770000604482015290519081900360640190fd5b50900390565b8154600090821061160d5760405162461bcd60e51b81526004018080602001828103825260228152602001806117616022913960400191505060405180910390fd5b82600001828154811061161c57fe5b9060005260206000200154905092915050565b60009081526001919091016020526040902054151590565b5490565b611656838383610a62565b61165e6109f0565b15610a625760405162461bcd60e51b815260040180806020018281038252602a815260200180611a1f602a913960400191505060405180910390fd5b6000818152600183016020526040812054801561175657835460001980830191908101906000908790839081106116cd57fe5b90600052602060002001549050808760000184815481106116ea57fe5b60009182526020808320909101929092558281526001898101909252604090209084019055865487908061171a57fe5b600190038181906000526020600020016000905590558660010160008781526020019081526020016000206000905560019450505050506106a4565b60009150506106a456fe456e756d657261626c655365743a20696e646578206f7574206f6620626f756e647345524332303a207472616e7366657220746f20746865207a65726f2061646472657373416363657373436f6e74726f6c3a2073656e646572206d75737420626520616e2061646d696e20746f206772616e7445524332303a206275726e20616d6f756e7420657863656564732062616c616e636545524332305072657365744d696e7465725061757365723a206d75737420686176652070617573657220726f6c6520746f20756e706175736545524332303a20617070726f766520746f20746865207a65726f206164647265737345524332303a207472616e7366657220616d6f756e7420657863656564732062616c616e6365416363657373436f6e74726f6c3a2073656e646572206d75737420626520616e2061646d696e20746f207265766f6b6545524332303a207472616e7366657220616d6f756e74206578636565647320616c6c6f77616e636545524332305072657365744d696e7465725061757365723a206d7573742068617665206d696e74657220726f6c6520746f206d696e7445524332303a206275726e20616d6f756e74206578636565647320616c6c6f77616e636545524332303a206275726e2066726f6d20746865207a65726f206164647265737345524332303a207472616e736665722066726f6d20746865207a65726f206164647265737345524332303a20617070726f76652066726f6d20746865207a65726f206164647265737345524332305072657365744d696e7465725061757365723a206d75737420686176652070617573657220726f6c6520746f20706175736545524332303a2064656372656173656420616c6c6f77616e63652062656c6f77207a65726f416363657373436f6e74726f6c3a2063616e206f6e6c792072656e6f756e636520726f6c657320666f722073656c6645524332305061757361626c653a20746f6b656e207472616e73666572207768696c6520706175736564a2646970667358221220dd0db2081d480b0eb25fcfb4ef0aa1e62b1d10c2304752d3e3a32b36faa2010264736f6c6343000700003365d7a28e3265b37a6474929f336521b332c1681b933f6cb9f3376673440d862a9f2df0fed2c77648de5860a4cc508cd0818c85b8b8a1ab4ceeef8d981c8956a64f776e61626c653a206e6577206f776e657220697320746865207a65726f2061646472657373506f6f6c466163746f72793a3a637265617465506f6f6c202d20696e76616c6964206d696e20626f72726f77206672616374696f6e506f6f6c466163746f72793a3a637265617465506f6f6c202d20426f72726f772072617465206e6f742077697468696e206c696d697473506f6f6c466163746f72793a3a637265617465506f6f6c202d205072696365206665656420646f65736e277420737570706f727420746f6b656e2070616972506f6f6c466163746f72793a3a6f6e6c79426f72726f776572202d204f6e6c7920612076616c696420426f72726f7765722063616e2063726561746520506f6f6c506f6f6c466163746f72793a3a637265617465506f6f6c202d20436f6c6c61746572616c20526174696f206e6f742077697468696e206c696d697473496e697469616c697a61626c653a20636f6e747261637420697320616c726561647920696e697469616c697a6564506f6f6c466163746f72793a3a637265617465506f6f6c202d204c6f616e206475726174696f6e206e6f742077697468696e206c696d697473506f6f6c466163746f72793a3a637265617465506f6f6c202d20496e76616c6964207374726174656779e9da20d631ef06f93c14c03acd9bc8f22141e6fce63b1066f76c903adb73ea404f776e61626c653a2063616c6c6572206973206e6f7420746865206f776e6572506f6f6c466163746f72793a3a637265617465506f6f6c202d2052657061796d656e7420696e74657276616c206e6f742077697468696e206c696d697473506f6f6c466163746f72793a3a6f6e6c79506f6f6c202d204f6e6c7920706f6f6c2063616e2064657374726f7920697473656c66506f6f6c466163746f72793a3a637265617465506f6f6c202d20496e76616c696420626f72726f7720746f6b656e2074797065506f6f6c466163746f72793a3a637265617465506f6f6c202d20506f6f6c53697a65206e6f742077697468696e206c696d697473506f6f6c466163746f72793a3a637265617465506f6f6c202d20496e76616c696420636f6c6c61746572616c20746f6b656e2074797065a26469706673582212208d63cfbd18c5b257a3f43738b2d770271c54ca86073fa243690e8b64dd01c5ee64736f6c63430007000033",
  "linkReferences": {},
  "deployedLinkReferences": {}
}