{
  "_format": "hh-sol-artifact-1",
  "contractName": "SavingsAccount",
  "sourceName": "contracts/SavingsAccount/SavingsAccount.sol",
  "abi": [
    {
      "anonymous": false,
      "inputs": [
        {
          "indexed": false,
          "internalType": "address",
          "name": "token",
          "type": "address"
        },
        {
          "indexed": false,
          "internalType": "address",
          "name": "from",
          "type": "address"
        },
        {
          "indexed": false,
          "internalType": "address",
          "name": "to",
          "type": "address"
        },
        {
          "indexed": false,
          "internalType": "uint256",
          "name": "amount",
          "type": "uint256"
        }
      ],
      "name": "Approved",
      "type": "event"
    },
    {
      "anonymous": false,
      "inputs": [
        {
          "indexed": false,
          "internalType": "address",
          "name": "token",
          "type": "address"
        },
        {
          "indexed": false,
          "internalType": "address",
          "name": "from",
          "type": "address"
        },
        {
          "indexed": false,
          "internalType": "uint256",
          "name": "amount",
          "type": "uint256"
        }
      ],
      "name": "CreditLineAllowanceRefreshed",
      "type": "event"
    },
    {
      "anonymous": false,
      "inputs": [
        {
          "indexed": false,
          "internalType": "address",
          "name": "user",
          "type": "address"
        },
        {
          "indexed": false,
          "internalType": "uint256",
          "name": "amount",
          "type": "uint256"
        },
        {
          "indexed": false,
          "internalType": "address",
          "name": "asset",
          "type": "address"
        },
        {
          "indexed": false,
          "internalType": "address",
          "name": "strategy",
          "type": "address"
        }
      ],
      "name": "Deposited",
      "type": "event"
    },
    {
      "anonymous": false,
      "inputs": [
        {
          "indexed": true,
          "internalType": "address",
          "name": "previousOwner",
          "type": "address"
        },
        {
          "indexed": true,
          "internalType": "address",
          "name": "newOwner",
          "type": "address"
        }
      ],
      "name": "OwnershipTransferred",
      "type": "event"
    },
    {
      "anonymous": false,
      "inputs": [
        {
          "indexed": false,
          "internalType": "address",
          "name": "user",
          "type": "address"
        },
        {
          "indexed": false,
          "internalType": "address",
          "name": "asset",
          "type": "address"
        },
        {
          "indexed": false,
          "internalType": "address",
          "name": "currentStrategy",
          "type": "address"
        },
        {
          "indexed": false,
          "internalType": "address",
          "name": "newStrategy",
          "type": "address"
        }
      ],
      "name": "StrategySwitched",
      "type": "event"
    },
    {
      "anonymous": false,
      "inputs": [
        {
          "indexed": false,
          "internalType": "address",
          "name": "token",
          "type": "address"
        },
        {
          "indexed": false,
          "internalType": "address",
          "name": "strategy",
          "type": "address"
        },
        {
          "indexed": false,
          "internalType": "address",
          "name": "from",
          "type": "address"
        },
        {
          "indexed": false,
          "internalType": "address",
          "name": "to",
          "type": "address"
        },
        {
          "indexed": false,
          "internalType": "uint256",
          "name": "amount",
          "type": "uint256"
        }
      ],
      "name": "Transfer",
      "type": "event"
    },
    {
      "anonymous": false,
      "inputs": [
        {
          "indexed": false,
          "internalType": "address",
          "name": "from",
          "type": "address"
        },
        {
          "indexed": false,
          "internalType": "address",
          "name": "to",
          "type": "address"
        },
        {
          "indexed": false,
          "internalType": "uint256",
          "name": "amountReceived",
          "type": "uint256"
        },
        {
          "indexed": false,
          "internalType": "address",
          "name": "token",
          "type": "address"
        },
        {
          "indexed": false,
          "internalType": "address",
          "name": "strategy",
          "type": "address"
        }
      ],
      "name": "Withdrawn",
      "type": "event"
    },
    {
      "anonymous": false,
      "inputs": [
        {
          "indexed": false,
          "internalType": "address",
          "name": "user",
          "type": "address"
        },
        {
          "indexed": false,
          "internalType": "uint256",
          "name": "tokenReceived",
          "type": "uint256"
        },
        {
          "indexed": false,
          "internalType": "address",
          "name": "asset",
          "type": "address"
        }
      ],
      "name": "WithdrawnAll",
      "type": "event"
    },
    {
      "inputs": [],
      "name": "CreditLine",
      "outputs": [
        {
          "internalType": "address",
          "name": "",
          "type": "address"
        }
      ],
      "stateMutability": "view",
      "type": "function"
    },
    {
      "inputs": [
        {
          "internalType": "address",
          "name": "",
          "type": "address"
        },
        {
          "internalType": "address",
          "name": "",
          "type": "address"
        },
        {
          "internalType": "address",
          "name": "",
          "type": "address"
        }
      ],
      "name": "allowance",
      "outputs": [
        {
          "internalType": "uint256",
          "name": "",
          "type": "uint256"
        }
      ],
      "stateMutability": "view",
      "type": "function"
    },
    {
      "inputs": [
        {
          "internalType": "address",
          "name": "token",
          "type": "address"
        },
        {
          "internalType": "address",
          "name": "to",
          "type": "address"
        },
        {
          "internalType": "uint256",
          "name": "amount",
          "type": "uint256"
        }
      ],
      "name": "approve",
      "outputs": [],
      "stateMutability": "nonpayable",
      "type": "function"
    },
    {
      "inputs": [
        {
          "internalType": "address",
          "name": "token",
          "type": "address"
        },
        {
          "internalType": "address",
          "name": "from",
          "type": "address"
        },
        {
          "internalType": "uint256",
          "name": "amount",
          "type": "uint256"
        }
      ],
      "name": "approveFromToCreditLine",
      "outputs": [],
      "stateMutability": "nonpayable",
      "type": "function"
    },
    {
      "inputs": [
        {
          "internalType": "uint256",
          "name": "amount",
          "type": "uint256"
        },
        {
          "internalType": "address",
          "name": "asset",
          "type": "address"
        },
        {
          "internalType": "address",
          "name": "strategy",
          "type": "address"
        }
      ],
      "name": "deposit",
      "outputs": [
        {
          "internalType": "uint256",
          "name": "sharesReceived",
          "type": "uint256"
        }
      ],
      "stateMutability": "payable",
      "type": "function"
    },
    {
      "inputs": [
        {
          "internalType": "uint256",
          "name": "amount",
          "type": "uint256"
        },
        {
          "internalType": "address",
          "name": "asset",
          "type": "address"
        },
        {
          "internalType": "address",
          "name": "strategy",
          "type": "address"
        },
        {
          "internalType": "address",
          "name": "to",
          "type": "address"
        }
      ],
      "name": "depositTo",
      "outputs": [
        {
          "internalType": "uint256",
          "name": "sharesReceived",
          "type": "uint256"
        }
      ],
      "stateMutability": "payable",
      "type": "function"
    },
    {
      "inputs": [
        {
          "internalType": "address",
          "name": "_owner",
          "type": "address"
        },
        {
          "internalType": "address",
          "name": "_strategyRegistry",
          "type": "address"
        },
        {
          "internalType": "address",
          "name": "_creditLine",
          "type": "address"
        }
      ],
      "name": "initialize",
      "outputs": [],
      "stateMutability": "nonpayable",
      "type": "function"
    },
    {
      "inputs": [],
      "name": "owner",
      "outputs": [
        {
          "internalType": "address",
          "name": "",
          "type": "address"
        }
      ],
      "stateMutability": "view",
      "type": "function"
    },
    {
      "inputs": [],
      "name": "renounceOwnership",
      "outputs": [],
      "stateMutability": "nonpayable",
      "type": "function"
    },
    {
      "inputs": [],
      "name": "strategyRegistry",
      "outputs": [
        {
          "internalType": "address",
          "name": "",
          "type": "address"
        }
      ],
      "stateMutability": "view",
      "type": "function"
    },
    {
      "inputs": [
        {
          "internalType": "address",
          "name": "currentStrategy",
          "type": "address"
        },
        {
          "internalType": "address",
          "name": "newStrategy",
          "type": "address"
        },
        {
          "internalType": "address",
          "name": "asset",
          "type": "address"
        },
        {
          "internalType": "uint256",
          "name": "amount",
          "type": "uint256"
        }
      ],
      "name": "switchStrategy",
      "outputs": [],
      "stateMutability": "nonpayable",
      "type": "function"
    },
    {
      "inputs": [
        {
          "internalType": "address",
          "name": "token",
          "type": "address"
        },
        {
          "internalType": "address",
          "name": "to",
          "type": "address"
        },
        {
          "internalType": "address",
          "name": "poolSavingsStrategy",
          "type": "address"
        },
        {
          "internalType": "uint256",
          "name": "amount",
          "type": "uint256"
        }
      ],
      "name": "transfer",
      "outputs": [
        {
          "internalType": "uint256",
          "name": "",
          "type": "uint256"
        }
      ],
      "stateMutability": "nonpayable",
      "type": "function"
    },
    {
      "inputs": [
        {
          "internalType": "address",
          "name": "token",
          "type": "address"
        },
        {
          "internalType": "address",
          "name": "from",
          "type": "address"
        },
        {
          "internalType": "address",
          "name": "to",
          "type": "address"
        },
        {
          "internalType": "address",
          "name": "poolSavingsStrategy",
          "type": "address"
        },
        {
          "internalType": "uint256",
          "name": "amount",
          "type": "uint256"
        }
      ],
      "name": "transferFrom",
      "outputs": [
        {
          "internalType": "uint256",
          "name": "",
          "type": "uint256"
        }
      ],
      "stateMutability": "nonpayable",
      "type": "function"
    },
    {
      "inputs": [
        {
          "internalType": "address",
          "name": "newOwner",
          "type": "address"
        }
      ],
      "name": "transferOwnership",
      "outputs": [],
      "stateMutability": "nonpayable",
      "type": "function"
    },
    {
      "inputs": [
        {
          "internalType": "address",
          "name": "_strategyRegistry",
          "type": "address"
        }
      ],
      "name": "updateStrategyRegistry",
      "outputs": [],
      "stateMutability": "nonpayable",
      "type": "function"
    },
    {
      "inputs": [
        {
          "internalType": "address",
          "name": "",
          "type": "address"
        },
        {
          "internalType": "address",
          "name": "",
          "type": "address"
        },
        {
          "internalType": "address",
          "name": "",
          "type": "address"
        }
      ],
      "name": "userLockedBalance",
      "outputs": [
        {
          "internalType": "uint256",
          "name": "",
          "type": "uint256"
        }
      ],
      "stateMutability": "view",
      "type": "function"
    },
    {
      "inputs": [
        {
          "internalType": "address payable",
          "name": "withdrawTo",
          "type": "address"
        },
        {
          "internalType": "uint256",
          "name": "amount",
          "type": "uint256"
        },
        {
          "internalType": "address",
          "name": "asset",
          "type": "address"
        },
        {
          "internalType": "address",
          "name": "strategy",
          "type": "address"
        },
        {
          "internalType": "bool",
          "name": "withdrawShares",
          "type": "bool"
        }
      ],
      "name": "withdraw",
      "outputs": [
        {
          "internalType": "uint256",
          "name": "amountReceived",
          "type": "uint256"
        }
      ],
      "stateMutability": "nonpayable",
      "type": "function"
    },
    {
      "inputs": [
        {
          "internalType": "address",
          "name": "_asset",
          "type": "address"
        }
      ],
      "name": "withdrawAll",
      "outputs": [
        {
          "internalType": "uint256",
          "name": "tokenReceived",
          "type": "uint256"
        }
      ],
      "stateMutability": "nonpayable",
      "type": "function"
    },
    {
      "inputs": [
        {
          "internalType": "address",
          "name": "from",
          "type": "address"
        },
        {
          "internalType": "uint256",
          "name": "amount",
          "type": "uint256"
        },
        {
          "internalType": "address",
          "name": "asset",
          "type": "address"
        },
        {
          "internalType": "address",
          "name": "strategy",
          "type": "address"
        },
        {
          "internalType": "bool",
          "name": "withdrawShares",
          "type": "bool"
        }
      ],
      "name": "withdrawFrom",
      "outputs": [
        {
          "internalType": "uint256",
          "name": "amountReceived",
          "type": "uint256"
        }
      ],
      "stateMutability": "nonpayable",
      "type": "function"
    },
    {
      "stateMutability": "payable",
      "type": "receive"
    }
  ],
  "bytecode": "0x608060405234801561001057600080fd5b50612b9f806100206000396000f3fe6080604052600436106101185760003560e01c80638da5cb5b116100a0578063d080bf2711610064578063d080bf271461053c578063e1f21c6714610551578063f18d03cc14610594578063f2fde38b146105dd578063fa09e63014610610576101d1565b80638da5cb5b14610407578063927da1051461041c57806396885ed314610461578063b9d15aa9146104b4578063c0c53b8b146104f7576101d1565b80633281ac78116100e75780633281ac78146102de57806343e14534146103235780634c1f2dc51461036c5780636e275bd21461039f578063715018a6146103f2576101d1565b80630e49fd9f146101d657806325f5527f1461023b57806328f689401461026c5780632e2d2984146102aa576101d1565b366101d1576065546040805163038defd760e01b815233600482015290516001600160a01b039092169163038defd791602480820192602092909190829003018186803b15801561016857600080fd5b505afa15801561017c573d6000803e3d6000fd5b505050506040513d602081101561019257600080fd5b50516101cf5760405162461bcd60e51b815260040180806020018281038252602b81526020018061294f602b913960400191505060405180910390fd5b005b600080fd5b3480156101e257600080fd5b50610229600480360360a08110156101f957600080fd5b506001600160a01b0381358116916020810135916040820135811691606081013590911690608001351515610643565b60408051918252519081900360200190f35b34801561024757600080fd5b50610250610805565b604080516001600160a01b039092168252519081900360200190f35b6102296004803603608081101561028257600080fd5b508035906001600160a01b036020820135811691604081013582169160609091013516610814565b610229600480360360608110156102c057600080fd5b508035906001600160a01b0360208201358116916040013516610926565b3480156102ea57600080fd5b506102296004803603606081101561030157600080fd5b506001600160a01b0381358116916020810135821691604090910135166109f1565b34801561032f57600080fd5b506101cf6004803603608081101561034657600080fd5b506001600160a01b03813581169160208101358216916040820135169060600135610a14565b34801561037857600080fd5b506101cf6004803603602081101561038f57600080fd5b50356001600160a01b0316610d24565b3480156103ab57600080fd5b50610229600480360360a08110156103c257600080fd5b506001600160a01b0381358116916020810135821691604082013581169160608101359091169060800135610dff565b3480156103fe57600080fd5b506101cf611002565b34801561041357600080fd5b506102506110c0565b34801561042857600080fd5b506102296004803603606081101561043f57600080fd5b506001600160a01b0381358116916020810135821691604090910135166110cf565b34801561046d57600080fd5b50610229600480360360a081101561048457600080fd5b506001600160a01b03813581169160208101359160408201358116916060810135909116906080013515156110f2565b3480156104c057600080fd5b506101cf600480360360608110156104d757600080fd5b506001600160a01b0381358116916020810135909116906040013561122c565b34801561050357600080fd5b506101cf6004803603606081101561051a57600080fd5b506001600160a01b038135811691602081013582169160409091013516611368565b34801561054857600080fd5b50610250611493565b34801561055d57600080fd5b506101cf6004803603606081101561057457600080fd5b506001600160a01b038135811691602081013590911690604001356114a2565b3480156105a057600080fd5b50610229600480360360808110156105b757600080fd5b506001600160a01b03813581169160208101358216916040820135169060600135611596565b3480156105e957600080fd5b506101cf6004803603602081101561060057600080fd5b50356001600160a01b031661170d565b34801561061c57600080fd5b506102296004803603602081101561063357600080fd5b50356001600160a01b0316611822565b6000846106815760405162461bcd60e51b815260040180806020018281038252603d815260200180612a4b603d913960400191505060405180910390fd5b6106d3856040518060600160405280603681526020016126e5603691396001600160a01b03808a166000908152606860209081526040808320938b168352928152828220338352905220549190611ba5565b6001600160a01b038088166000908152606860209081526040808320938916835292815282822033835281529082902092909255805160608101909152603180825261075b9288929190612a88908301396001600160a01b03808a1660009081526067602090815260408083208b851684528252808320938a16835292905220549190611ba5565b6001600160a01b0380881660009081526067602090815260408083208985168452825280832093881683529290529081209190915561079d3387878787611c41565b604080516001600160a01b03808c16825233602083015281830184905280851660608301528816608082015290519194509192507fc7e63ac0b6e9d33ab0c9db193f5348608183ac4afdd1fa187bd2c382b7b2c3809181900360a00190a15095945050505050565b6066546001600160a01b031681565b60006001600160a01b03821661085b5760405162461bcd60e51b8152600401808060200182810382526045815260200180612a066045913960600191505060405180910390fd5b610866858585611dd1565b6001600160a01b03808416600090815260676020908152604080832089851684528252808320938816835292905220549091506108a39082611f06565b6001600160a01b0380841660008181526067602090815260408083208a8616808552908352818420958a1680855295835292819020959095558451928352820189905281840152606081019190915290517f53d3a44a3fc80dc86c6d50d5d2082bb2c5f0ee5621b9f50a7be8d1bd202c8aba9181900360800190a1949350505050565b6000610933848484611dd1565b3360009081526067602090815260408083206001600160a01b03888116855290835281842090871684529091529020549091506109709082611f06565b3360008181526067602090815260408083206001600160a01b038981168086529184528285209089168086529084529382902095909555805193845290830188905282810193909352606082015290517f53d3a44a3fc80dc86c6d50d5d2082bb2c5f0ee5621b9f50a7be8d1bd202c8aba9181900360800190a19392505050565b606760209081526000938452604080852082529284528284209052825290205481565b826001600160a01b0316846001600160a01b03161415610a655760405162461bcd60e51b815260040180806020018281038252602c81526020018061289d602c913960400191505060405180910390fd5b80610aa15760405162461bcd60e51b815260040180806020018281038252603f815260200180612830603f913960400191505060405180910390fd5b610af581604051806060016040528060338152602001612ab9603391393360009081526067602090815260408083206001600160a01b038981168552908352818420908b1684529091529020549190611ba5565b3360009081526067602090815260408083206001600160a01b038781168552908352818420908916808552925290912091909155819015610bb657846001600160a01b0316639d564d9a84846040518363ffffffff1660e01b815260040180836001600160a01b0316815260200182815260200192505050602060405180830381600087803b158015610b8757600080fd5b505af1158015610b9b573d6000803e3d6000fd5b505050506040513d6020811015610bb157600080fd5b505190505b806001600160a01b03851615610c67576001600160a01b03841615610c5957836001600160a01b031663095ea7b386846040518363ffffffff1660e01b815260040180836001600160a01b0316815260200182815260200192505050602060405180830381600087803b158015610c2c57600080fd5b505af1158015610c40573d6000803e3d6000fd5b505050506040513d6020811015610c5657600080fd5b50505b610c64828587611f60565b90505b3360009081526067602090815260408083206001600160a01b0388811685529083528184209089168452909152902054610ca19082611f06565b3360008181526067602090815260408083206001600160a01b038a81168086529184528285208c8216808752908552948390209690965581519485529184019190915292891682840152606082015290517fd72d9c373b5ce5627d77cef84ead4b8b05f75aef1b979161ef38c5b7a3cf173f9181900360800190a1505050505050565b610d2c612140565b6001600160a01b0316610d3d6110c0565b6001600160a01b031614610d98576040805162461bcd60e51b815260206004820181905260248201527f4f776e61626c653a2063616c6c6572206973206e6f7420746865206f776e6572604482015290519081900360640190fd5b6001600160a01b038116610ddd5760405162461bcd60e51b815260040180806020018281038252603381526020018061297a6033913960400191505060405180910390fd5b606580546001600160a01b0319166001600160a01b0392909216919091179055565b600081610e3d5760405162461bcd60e51b8152600401808060200182810382526028815260200180612b166028913960400191505060405180910390fd5b610e8f826040518060600160405280603681526020016129d0603691396001600160a01b038089166000908152606860209081526040808320938d168352928152828220338352905220549190611ba5565b6001600160a01b038087166000908152606860209081526040808320938b168352928152828220338352815290829020929092558051606081019091526033808252610f17928592919061291c908301396001600160a01b0380891660009081526067602090815260408083208d851684528252808320938a16835292905220549190611ba5565b6001600160a01b0380871660009081526067602081815260408084208c86168086529083528185208a871680875290845282862097909755948a168452918152818320938352928352808220938252929091522054610f769083611f06565b6001600160a01b0380861660008181526067602090815260408083208c86168085529083528184208a8716808652908452938290209690965580519586529085019190915291881683830152606083015260808201849052517f5b21a3c624a398df3917a0a930f91e3837519b8eab3302b834746433065f29599181900360a00190a150949350505050565b61100a612140565b6001600160a01b031661101b6110c0565b6001600160a01b031614611076576040805162461bcd60e51b815260206004820181905260248201527f4f776e61626c653a2063616c6c6572206973206e6f7420746865206f776e6572604482015290519081900360640190fd5b6033546040516000916001600160a01b0316907f8be0079c531659141344cd1fd0a4f28419497f9722a3daafe3b4186f6b6457e0908390a3603380546001600160a01b0319169055565b6033546001600160a01b031690565b606860209081526000938452604080852082529284528284209052825290205481565b6000846111305760405162461bcd60e51b81526004018080602001828103825260398152602001806126886039913960400191505060405180910390fd5b611184856040518060600160405280602c81526020016128c9602c91393360009081526067602090815260408083206001600160a01b038b81168552908352818420908a1684529091529020549190611ba5565b3360009081526067602090815260408083206001600160a01b03898116855290835281842090881684529091528120919091556111c48787878787611c41565b604080513381526001600160a01b03808c16602083015281830184905280851660608301528816608082015290519194509192507fc7e63ac0b6e9d33ab0c9db193f5348608183ac4afdd1fa187bd2c382b7b2c3809181900360a00190a15095945050505050565b60665433906001600160a01b0316811461127e576040805162461bcd60e51b815260206004820152600e60248201526d24b73b30b634b21031b0b63632b960911b604482015290519081900360640190fd5b816112ba5760405162461bcd60e51b815260040180806020018281038252602c815260200180612b3e602c913960400191505060405180910390fd5b6001600160a01b0380841660009081526068602090815260408083209388168352928152828220338352905220546112f29083611f06565b6001600160a01b038085166000818152606860209081526040808320948a168084529482528083203384528252918290209490945580519283529282015280820184905290517f6c6fc021c301dde0d9b414af2a031e6f3745e2a2e85f6d2b7784e60350b0bcf19181900360600190a150505050565b600054610100900460ff16806113815750611381612144565b8061138f575060005460ff16155b6113ca5760405162461bcd60e51b815260040180806020018281038252602e81526020018061286f602e913960400191505060405180910390fd5b600054610100900460ff161580156113f5576000805460ff1961ff0019909116610100171660011790555b6001600160a01b03831661143a5760405162461bcd60e51b81526004018080602001828103825260278152602001806128f56027913960400191505060405180910390fd5b611442612155565b61144b8461170d565b606580546001600160a01b038086166001600160a01b0319928316179092556066805492851692909116919091179055801561148d576000805461ff00191690555b50505050565b6065546001600160a01b031681565b806114de5760405162461bcd60e51b81526004018080602001828103825260238152602001806129ad6023913960400191505060405180910390fd5b3360009081526068602090815260408083206001600160a01b03878116855290835281842090861684529091529020546115189082611f06565b3360008181526068602090815260408083206001600160a01b0389811680865291845282852090891680865290845293829020959095558051948552908401929092528282015260608201839052517f8d924fb660ea5dc99861c06d5104285681bb68ef281ebe73b6245e399a1ce2ff9181900360800190a1505050565b6000816115d45760405162461bcd60e51b81526004018080602001828103825260248152602001806126c16024913960400191505060405180910390fd5b611628826040518060600160405280602b8152602001612805602b91393360009081526067602090815260408083206001600160a01b038c81168552908352818420908a1684529091529020549190611ba5565b3360009081526067602081815260408084206001600160a01b038b81168087529184528286208a8216808852908552838720979097558a1685529282528084209284529181528183209383529290925220546116849083611f06565b6001600160a01b0380861660008181526067602090815260408083208b8616808552908352818420958a1680855295835292819020959095558451918252810192909252338284015260608201526080810184905290517f5b21a3c624a398df3917a0a930f91e3837519b8eab3302b834746433065f29599181900360a00190a1509392505050565b611715612140565b6001600160a01b03166117266110c0565b6001600160a01b031614611781576040805162461bcd60e51b815260206004820181905260248201527f4f776e61626c653a2063616c6c6572206973206e6f7420746865206f776e6572604482015290519081900360640190fd5b6001600160a01b0381166117c65760405162461bcd60e51b815260040180806020018281038252602681526020018061271b6026913960400191505060405180910390fd5b6033546040516001600160a01b038084169216907f8be0079c531659141344cd1fd0a4f28419497f9722a3daafe3b4186f6b6457e090600090a3603380546001600160a01b0319166001600160a01b0392909216919091179055565b3360009081526067602090815260408083206001600160a01b03858116855290835281842084805290925280832054606554825163b49a60bb60e01b815292519194606094919091169263b49a60bb9260048083019392829003018186803b15801561188d57600080fd5b505afa1580156118a1573d6000803e3d6000fd5b505050506040513d6000823e601f3d908101601f1916820160405260208110156118ca57600080fd5b81019080805160405193929190846401000000008211156118ea57600080fd5b9083019060208201858111156118ff57600080fd5b825186602082028301116401000000008211171561191c57600080fd5b82525081516020918201928201910280838360005b83811015611949578181015183820152602001611931565b50505050905001604052505050905060005b8151811015611af1573360009081526067602090815260408083206001600160a01b03881684529091528120835190919084908490811061199857fe5b60200260200101516001600160a01b03166001600160a01b0316815260200190815260200160002054600014611ae957611ae68282815181106119d757fe5b60200260200101516001600160a01b0316639d564d9a8660676000336001600160a01b03166001600160a01b031681526020019081526020016000206000896001600160a01b03166001600160a01b031681526020019081526020016000206000878781518110611a4457fe5b60200260200101516001600160a01b03166001600160a01b03168152602001908152602001600020546040518363ffffffff1660e01b815260040180836001600160a01b0316815260200182815260200192505050602060405180830381600087803b158015611ab357600080fd5b505af1158015611ac7573d6000803e3d6000fd5b505050506040513d6020811015611add57600080fd5b50518490611f06565b92505b60010161195b565b5081611b01576000915050611ba0565b6001600160a01b038316611b4257604051339083156108fc029084906000818181858888f19350505050158015611b3c573d6000803e3d6000fd5b50611b56565b611b566001600160a01b0384163384612207565b60408051338152602081018490526001600160a01b0385168183015290517f328db4c25b66e05dd2f9a763caa536ec2d870c6128ee9e34fb6de0cf3693ec919181900360600190a1505b919050565b60008184841115611c345760405162461bcd60e51b81526004018080602001828103825283818151815260200191508051906020019080838360005b83811015611bf9578181015183820152602001611be1565b50505050905090810190601f168015611c265780820380516001836020036101000a031916815260200191505b509250505060405180910390fd5b50508183035b9392505050565b600084821580611c5957506001600160a01b03841615155b15611ce457836001600160a01b0316639d564d9a86886040518363ffffffff1660e01b815260040180836001600160a01b0316815260200182815260200192505050602060405180830381600087803b158015611cb557600080fd5b505af1158015611cc9573d6000803e3d6000fd5b505050506040513d6020811015611cdf57600080fd5b505190505b8491508215611d6957836001600160a01b0316631391abc7866040518263ffffffff1660e01b815260040180826001600160a01b0316815260200191505060206040518083038186803b158015611d3a57600080fd5b505afa158015611d4e573d6000803e3d6000fd5b505050506040513d6020811015611d6457600080fd5b505191505b6001600160a01b038216611db3576040516001600160a01b0388169082156108fc029083906000818181858888f19350505050158015611dad573d6000803e3d6000fd5b50611dc7565b611dc76001600160a01b0383168883612207565b9550959350505050565b600083611e0f5760405162461bcd60e51b81526004018080602001828103825260398152602001806127a66039913960400191505060405180910390fd5b6001600160a01b03821615611e3057611e29848484611f60565b9050611c3a565b50826001600160a01b03831615611ec857604080516323b872dd60e01b81523360048201523060248201526044810186905290516001600160a01b038516916323b872dd9160648083019260209291908290030181600087803b158015611e9657600080fd5b505af1158015611eaa573d6000803e3d6000fd5b505050506040513d6020811015611ec057600080fd5b50611c3a9050565b833414611c3a5760405162461bcd60e51b81526004018080602001828103825260388152602001806127416038913960400191505060405180910390fd5b600082820183811015611c3a576040805162461bcd60e51b815260206004820152601b60248201527f536166654d6174683a206164646974696f6e206f766572666c6f770000000000604482015290519081900360640190fd5b6065546040805163038defd760e01b81526001600160a01b0384811660048301529151600093929092169163038defd791602480820192602092909190829003018186803b158015611fb157600080fd5b505afa158015611fc5573d6000803e3d6000fd5b505050506040513d6020811015611fdb57600080fd5b50516120185760405162461bcd60e51b815260040180806020018281038252602d815260200180612779602d913960400191505060405180910390fd5b6001600160a01b0383166120b357604080516323b3e77760e11b81523360048201526001600160a01b03858116602483015260448201879052915191841691634767ceee918791606480830192602092919082900301818588803b15801561207f57600080fd5b505af1158015612093573d6000803e3d6000fd5b50505050506040513d60208110156120aa57600080fd5b50519050611c3a565b604080516323b3e77760e11b81523360048201526001600160a01b03858116602483015260448201879052915191841691634767ceee916064808201926020929091908290030181600087803b15801561210c57600080fd5b505af1158015612120573d6000803e3d6000fd5b505050506040513d602081101561213657600080fd5b5051949350505050565b3390565b600061214f3061225e565b15905090565b600054610100900460ff168061216e575061216e612144565b8061217c575060005460ff16155b6121b75760405162461bcd60e51b815260040180806020018281038252602e81526020018061286f602e913960400191505060405180910390fd5b600054610100900460ff161580156121e2576000805460ff1961ff0019909116610100171660011790555b6121ea612264565b6121f2612304565b8015612204576000805461ff00191690555b50565b604080516001600160a01b038416602482015260448082018490528251808303909101815260649091019091526020810180516001600160e01b031663a9059cbb60e01b1790526122599084906123fd565b505050565b3b151590565b600054610100900460ff168061227d575061227d612144565b8061228b575060005460ff16155b6122c65760405162461bcd60e51b815260040180806020018281038252602e81526020018061286f602e913960400191505060405180910390fd5b600054610100900460ff161580156121f2576000805460ff1961ff0019909116610100171660011790558015612204576000805461ff001916905550565b600054610100900460ff168061231d575061231d612144565b8061232b575060005460ff16155b6123665760405162461bcd60e51b815260040180806020018281038252602e81526020018061286f602e913960400191505060405180910390fd5b600054610100900460ff16158015612391576000805460ff1961ff0019909116610100171660011790555b600061239b612140565b603380546001600160a01b0319166001600160a01b038316908117909155604051919250906000907f8be0079c531659141344cd1fd0a4f28419497f9722a3daafe3b4186f6b6457e0908290a3508015612204576000805461ff001916905550565b6060612452826040518060400160405280602081526020017f5361666545524332303a206c6f772d6c6576656c2063616c6c206661696c6564815250856001600160a01b03166124ae9092919063ffffffff16565b8051909150156122595780806020019051602081101561247157600080fd5b50516122595760405162461bcd60e51b815260040180806020018281038252602a815260200180612aec602a913960400191505060405180910390fd5b60606124bd84846000856124c5565b949350505050565b6060824710156125065760405162461bcd60e51b81526004018080602001828103825260268152602001806127df6026913960400191505060405180910390fd5b61250f8561225e565b612560576040805162461bcd60e51b815260206004820152601d60248201527f416464726573733a2063616c6c20746f206e6f6e2d636f6e7472616374000000604482015290519081900360640190fd5b60006060866001600160a01b031685876040518082805190602001908083835b6020831061259f5780518252601f199092019160209182019101612580565b6001836020036101000a03801982511681845116808217855250505050505090500191505060006040518083038185875af1925050503d8060008114612601576040519150601f19603f3d011682016040523d82523d6000602084013e612606565b606091505b5091509150612616828286612621565b979650505050505050565b60608315612630575081611c3a565b8251156126405782518084602001fd5b60405162461bcd60e51b8152602060048201818152845160248401528451859391928392604401919085019080838360008315611bf9578181015183820152602001611be156fe536176696e67734163636f756e743a3a776974686472617720416d6f756e74206d7573742062652067726561746572207468616e207a65726f536176696e67734163636f756e743a3a7472616e73666572207a65726f20616d6f756e74536176696e67734163636f756e743a3a776974686472617746726f6d20616c6c6f77616e6365206c696d697420657863656564696e674f776e61626c653a206e6577206f776e657220697320746865207a65726f2061646472657373536176696e67734163636f756e743a3a6465706f736974204554482073656e74206d75737420626520657175616c20746f20616d6f756e74536176696e67734163636f756e743a3a6465706f73697420737472617465677920646f206e6f74206578697374536176696e67734163636f756e743a3a5f6465706f73697420416d6f756e74206d7573742062652067726561746572207468616e207a65726f416464726573733a20696e73756666696369656e742062616c616e636520666f722063616c6c536176696e67734163636f756e743a3a7472616e7366657220696e73756666696369656e742066756e6473536176696e67734163636f756e743a3a737769746368537472617465677920416d6f756e74206d7573742062652067726561746572207468616e207a65726f496e697469616c697a61626c653a20636f6e747261637420697320616c726561647920696e697469616c697a6564536176696e67734163636f756e743a3a73776974636853747261746567792053616d65207374726174656779536176696e67734163636f756e743a3a776974686472617720496e73756666696369656e7420616d6f756e74536176696e67734163636f756e743a3a696e697469616c697a65207a65726f2061646472657373536176696e67734163636f756e743a3a7472616e7366657246726f6d20696e73756666696369656e7420616c6c6f77616e6365536176696e67734163636f756e743a3a7265636569766520696e76616c6964207472616e73616374696f6e536176696e67734163636f756e743a3a75706461746553747261746567795265676973747279207a65726f2061646472657373536176696e67734163636f756e743a3a617070726f7665207a65726f20616d6f756e74536176696e67734163636f756e743a3a7472616e7366657246726f6d20616c6c6f77616e6365206c696d697420657863656564696e67536176696e67734163636f756e743a3a6465706f736974546f20726563656976657220616464726573732073686f756c64206e6f74206265207a65726f2061646472657373536176696e67734163636f756e743a3a776974686472617746726f6d20416d6f756e74206d7573742062652067726561746572207468616e207a65726f536176696e67734163636f756e743a3a776974686472617746726f6d20696e73756666696369656e742062616c616e6365536176696e67734163636f756e743a3a737769746368537472617465677920496e73756666696369656e742062616c616e63655361666545524332303a204552433230206f7065726174696f6e20646964206e6f742073756363656564536176696e67734163636f756e743a3a7472616e7366657246726f6d207a65726f20616d6f756e74536176696e67734163636f756e743a3a617070726f766546726f6d546f20496e76616c696420616d6f756e74a2646970667358221220b482ce333fec65a7f2457fb2c1472fcb9da651fe4d75f9c33561439185bc7b6764736f6c63430007000033",
  "linkReferences": {},
  "deployedLinkReferences": {}
}