{
  "_format": "hh-sol-artifact-1",
  "contractName": "Extension",
  "sourceName": "contracts/Pool/Extension.sol",
  "abi": [
    {
      "anonymous": false,
      "inputs": [
        {
          "indexed": false,
          "internalType": "uint256",
          "name": "nextDuePeriod",
          "type": "uint256"
        }
      ],
      "name": "ExtensionPassed",
      "type": "event"
    },
    {
      "anonymous": false,
      "inputs": [
        {
          "indexed": false,
          "internalType": "uint256",
          "name": "extensionVoteEndTime",
          "type": "uint256"
        }
      ],
      "name": "ExtensionRequested",
      "type": "event"
    },
    {
      "anonymous": false,
      "inputs": [
        {
          "indexed": false,
          "internalType": "address",
          "name": "lender",
          "type": "address"
        },
        {
          "indexed": false,
          "internalType": "uint256",
          "name": "totalExtensionSupport",
          "type": "uint256"
        },
        {
          "indexed": false,
          "internalType": "uint256",
          "name": "lastVoteTime",
          "type": "uint256"
        }
      ],
      "name": "LenderVoted",
      "type": "event"
    },
    {
      "anonymous": false,
      "inputs": [
        {
          "indexed": false,
          "internalType": "uint256",
          "name": "nextDuePeriod",
          "type": "uint256"
        }
      ],
      "name": "VotingPassed",
      "type": "event"
    },
    {
      "inputs": [],
      "name": "closePoolExtension",
      "outputs": [],
      "stateMutability": "nonpayable",
      "type": "function"
    },
    {
      "inputs": [
        {
          "internalType": "address",
          "name": "_poolFactory",
          "type": "address"
        }
      ],
      "name": "initialize",
      "outputs": [],
      "stateMutability": "nonpayable",
      "type": "function"
    },
    {
      "inputs": [
        {
          "internalType": "uint256",
          "name": "_repaymentInterval",
          "type": "uint256"
        }
      ],
      "name": "initializePoolExtension",
      "outputs": [],
      "stateMutability": "nonpayable",
      "type": "function"
    },
    {
      "inputs": [
        {
          "internalType": "address",
          "name": "_pool",
          "type": "address"
        }
      ],
      "name": "requestExtension",
      "outputs": [],
      "stateMutability": "nonpayable",
      "type": "function"
    },
    {
      "inputs": [
        {
          "internalType": "address",
          "name": "_pool",
          "type": "address"
        }
      ],
      "name": "voteOnExtension",
      "outputs": [],
      "stateMutability": "nonpayable",
      "type": "function"
    }
  ],
  "bytecode": "0x608060405234801561001057600080fd5b50610db1806100206000396000f3fe608060405234801561001057600080fd5b50600436106100575760003560e01c806347cb7c6c1461005c57806380d59c85146100665780638afed92a1461008c578063b5a70cea146100b2578063c4d66de8146100cf575b600080fd5b6100646100f5565b005b6100646004803603602081101561007c57600080fd5b50356001600160a01b031661011c565b610064600480360360208110156100a257600080fd5b50356001600160a01b03166104a6565b610064600480360360208110156100c857600080fd5b50356106fd565b610064600480360360208110156100e557600080fd5b50356001600160a01b03166107ec565b33600090815260016020819052604082208281559081018290556002810182905560030155565b6001600160a01b0381166000908152600160205260409020600201544281116101765760405162461bcd60e51b8152600401808060200182810382526026815260200180610bee6026913960400191505060405180910390fd5b600080836001600160a01b031663b2c09233336040518263ffffffff1660e01b815260040180826001600160a01b03168152602001915050604080518083038186803b1580156101c557600080fd5b505afa1580156101d9573d6000803e3d6000fd5b505050506040513d60408110156101ef57600080fd5b5080516020909101519092509050816102395760405162461bcd60e51b8152600401808060200182810382526033815260200180610ca36033913960400191505060405180910390fd5b600254604080516374113a2760e01b815290516000926001600160a01b0316916374113a27916004808301926020929190829003018186803b15801561027e57600080fd5b505afa158015610292573d6000803e3d6000fd5b505050506040513d60208110156102a857600080fd5b50516001600160a01b0380871660009081526001602090815260408083203384526004908101835281842054600254835163dfcc8ce760e01b8152935197985090969495169363dfcc8ce79383830193909290829003018186803b15801561030f57600080fd5b505afa158015610323573d6000803e3d6000fd5b505050506040513d602081101561033957600080fd5b50516001600160a01b03881660009081526001602052604081206003015491925061036a8284026305f5e1006108aa565b90506103808261037a8a84610913565b90610913565b84106103bd5760405162461bcd60e51b815260040180806020018281038252602e815260200180610c4d602e913960400191505060405180910390fd5b6001600160a01b038916600090815260016020819052604090912001544294506103e78189610970565b6001600160a01b038b1660009081526001602090815260408083203380855260049091018352928190208990558051928352908201839052818101889052519192507f0a8ea94a61adb9b6f01366abaa0ed52716931571afd18109d2ed9f18c522f0b5919081900360600190a16001600160a01b038a1660009081526001602081905260409091200181905561048b6305f5e10061048589896109d1565b906108aa565b811061049a5761049a8a610a2a565b50505050505050505050565b6001600160a01b038116600090815260016020526040902060030154806104cc57600080fd5b6001600160a01b0382166000908152600160205260409020600201544281106105265760405162461bcd60e51b8152600401808060200182810382526039815260200180610c146039913960400191505060405180910390fd5b6001600160a01b0383166000908152600160205260409020546000191461057e5760405162461bcd60e51b8152600401808060200182810382526057815260200180610d256057913960600191505060405180910390fd5b6001600160a01b038084166000908152600160208181526040808420909201839055600254825163dfcc8ce760e01b815292519394169263dfcc8ce7926004808201939291829003018186803b1580156105d757600080fd5b505afa1580156105eb573d6000803e3d6000fd5b505050506040513d602081101561060157600080fd5b5051905060006106178483026305f5e1006108aa565b90506000856001600160a01b03166374f3e831336040518263ffffffff1660e01b815260040180826001600160a01b0316815260200191505060206040518083038186803b15801561066857600080fd5b505afa15801561067c573d6000803e3d6000fd5b505050506040513d602081101561069257600080fd5b505190506106a08183610970565b6001600160a01b038716600090815260016020908152604091829020600201839055815183815291519296507fd1227b96f2a4760a4dbde6777d1cd5a4f68c7d46a202a290c9a91946290b5e0e92918290030190a1505050505050565b600254336000908152600160205260409020600301546001600160a01b03909116901561072957600080fd5b60408051631746617960e31b815233600482015290516001600160a01b0383169163ba330bc8916024808301926020929190829003018186803b15801561076f57600080fd5b505afa158015610783573d6000803e3d6000fd5b505050506040513d602081101561079957600080fd5b50516107d65760405162461bcd60e51b8152600401808060200182810382526028815260200180610c7b6028913960400191505060405180910390fd5b5033600090815260016020526040902060030155565b600054610100900460ff16806108055750610805610bd6565b80610813575060005460ff16155b61084e5760405162461bcd60e51b815260040180806020018281038252602e815260200180610cd6602e913960400191505060405180910390fd5b600054610100900460ff16158015610879576000805460ff1961ff0019909116610100171660011790555b600280546001600160a01b0319166001600160a01b03841617905580156108a6576000805461ff00191690555b5050565b6000808211610900576040805162461bcd60e51b815260206004820152601a60248201527f536166654d6174683a206469766973696f6e206279207a65726f000000000000604482015290519081900360640190fd5b81838161090957fe5b0490505b92915050565b60008282111561096a576040805162461bcd60e51b815260206004820152601e60248201527f536166654d6174683a207375627472616374696f6e206f766572666c6f770000604482015290519081900360640190fd5b50900390565b6000828201838110156109ca576040805162461bcd60e51b815260206004820152601b60248201527f536166654d6174683a206164646974696f6e206f766572666c6f770000000000604482015290519081900360640190fd5b9392505050565b6000826109e05750600061090d565b828202828482816109ed57fe5b04146109ca5760405162461bcd60e51b8152600401808060200182810382526021815260200180610d046021913960400191505060405180910390fd5b6000600260009054906101000a90046001600160a01b031690506000826001600160a01b031663593f686f6040518163ffffffff1660e01b8152600401602060405180830381600087803b158015610a8157600080fd5b505af1158015610a95573d6000803e3d6000fd5b505050506040513d6020811015610aab57600080fd5b50516001600160a01b03808516600090815260016020908152604091829020600019815542600290910155815163171e108560e01b815291519394509185169263171e108592600480840193919291829003018186803b158015610b0e57600080fd5b505afa158015610b22573d6000803e3d6000fd5b505050506040513d6020811015610b3857600080fd5b5051604080516361656e5560e01b81526001600160a01b038681166004830152915191909216916361656e5591602480830192600092919082900301818387803b158015610b8557600080fd5b505af1158015610b99573d6000803e3d6000fd5b50506040805184815290517f69d7c951e30e7704947889791c1aef25c64ac28c6226d1bd9134dec2ea5afeef9350908190036020019150a1505050565b6000610be130610be7565b15905090565b3b15159056fe506f6f6c3a3a766f74654f6e457874656e73696f6e202d20566f74696e67206973206f766572457874656e73696f6e3a3a72657175657374457874656e73696f6e202d20457874656e73696f6e2072657175657374656420616c7265616479506f6f6c3a3a766f74654f6e457874656e73696f6e202d20796f75206861766520616c726561647920766f74656452657061796d656e74733a3a6f6e6c7956616c6964506f6f6c202d20496e76616c696420506f6f6c506f6f6c3a3a766f74654f6e457874656e73696f6e202d204e6f7420612076616c6964206c656e64657220666f7220706f6f6c496e697469616c697a61626c653a20636f6e747261637420697320616c726561647920696e697469616c697a6564536166654d6174683a206d756c7469706c69636174696f6e206f766572666c6f77457874656e73696f6e3a3a72657175657374457874656e73696f6e3a20796f75206861766520616c7265616479206265656e20676976656e20616e20657874656e73696f6e2c4e6f206d6f726520657874656e73696f6ea26469706673582212202a55c1231d3328b1566acc3b6a227e9d057a1c0200ed01ddb61debb40f0d921e64736f6c63430007000033",
  "linkReferences": {},
  "deployedLinkReferences": {}
}