{
  "_format": "hh-sol-artifact-1",
  "contractName": "CompoundYield",
  "sourceName": "contracts/yield/CompoundYield.sol",
  "abi": [
    {
      "anonymous": false,
      "inputs": [
        {
          "indexed": false,
          "internalType": "address",
          "name": "user",
          "type": "address"
        },
        {
          "indexed": false,
          "internalType": "address",
          "name": "investedTo",
          "type": "address"
        },
        {
          "indexed": false,
          "internalType": "uint256",
          "name": "lpTokensReceived",
          "type": "uint256"
        }
      ],
      "name": "LockedTokens",
      "type": "event"
    },
    {
      "anonymous": false,
      "inputs": [
        {
          "indexed": true,
          "internalType": "address",
          "name": "previousOwner",
          "type": "address"
        },
        {
          "indexed": true,
          "internalType": "address",
          "name": "newOwner",
          "type": "address"
        }
      ],
      "name": "OwnershipTransferred",
      "type": "event"
    },
    {
      "anonymous": false,
      "inputs": [
        {
          "indexed": false,
          "internalType": "address",
          "name": "investedTo",
          "type": "address"
        },
        {
          "indexed": false,
          "internalType": "uint256",
          "name": "collateralReceived",
          "type": "uint256"
        }
      ],
      "name": "UnlockedTokens",
      "type": "event"
    },
    {
      "inputs": [
        {
          "internalType": "address",
          "name": "_asset",
          "type": "address"
        },
        {
          "internalType": "address payable",
          "name": "_wallet",
          "type": "address"
        }
      ],
      "name": "emergencyWithdraw",
      "outputs": [
        {
          "internalType": "uint256",
          "name": "received",
          "type": "uint256"
        }
      ],
      "stateMutability": "nonpayable",
      "type": "function"
    },
    {
      "inputs": [
        {
          "internalType": "uint256",
          "name": "shares",
          "type": "uint256"
        },
        {
          "internalType": "address",
          "name": "asset",
          "type": "address"
        }
      ],
      "name": "getTokensForShares",
      "outputs": [
        {
          "internalType": "uint256",
          "name": "amount",
          "type": "uint256"
        }
      ],
      "stateMutability": "nonpayable",
      "type": "function"
    },
    {
      "inputs": [
        {
          "internalType": "address",
          "name": "_owner",
          "type": "address"
        },
        {
          "internalType": "address payable",
          "name": "_savingsAccount",
          "type": "address"
        }
      ],
      "name": "initialize",
      "outputs": [],
      "stateMutability": "nonpayable",
      "type": "function"
    },
    {
      "inputs": [
        {
          "internalType": "address",
          "name": "",
          "type": "address"
        }
      ],
      "name": "liquidityToken",
      "outputs": [
        {
          "internalType": "address",
          "name": "",
          "type": "address"
        }
      ],
      "stateMutability": "view",
      "type": "function"
    },
    {
      "inputs": [
        {
          "internalType": "address",
          "name": "user",
          "type": "address"
        },
        {
          "internalType": "address",
          "name": "asset",
          "type": "address"
        },
        {
          "internalType": "uint256",
          "name": "amount",
          "type": "uint256"
        }
      ],
      "name": "lockTokens",
      "outputs": [
        {
          "internalType": "uint256",
          "name": "sharesReceived",
          "type": "uint256"
        }
      ],
      "stateMutability": "payable",
      "type": "function"
    },
    {
      "inputs": [],
      "name": "owner",
      "outputs": [
        {
          "internalType": "address",
          "name": "",
          "type": "address"
        }
      ],
      "stateMutability": "view",
      "type": "function"
    },
    {
      "inputs": [],
      "name": "renounceOwnership",
      "outputs": [],
      "stateMutability": "nonpayable",
      "type": "function"
    },
    {
      "inputs": [],
      "name": "savingsAccount",
      "outputs": [
        {
          "internalType": "address payable",
          "name": "",
          "type": "address"
        }
      ],
      "stateMutability": "view",
      "type": "function"
    },
    {
      "inputs": [
        {
          "internalType": "address",
          "name": "newOwner",
          "type": "address"
        }
      ],
      "name": "transferOwnership",
      "outputs": [],
      "stateMutability": "nonpayable",
      "type": "function"
    },
    {
      "inputs": [
        {
          "internalType": "address",
          "name": "asset",
          "type": "address"
        },
        {
          "internalType": "uint256",
          "name": "amount",
          "type": "uint256"
        }
      ],
      "name": "unlockTokens",
      "outputs": [
        {
          "internalType": "uint256",
          "name": "received",
          "type": "uint256"
        }
      ],
      "stateMutability": "nonpayable",
      "type": "function"
    },
    {
      "inputs": [
        {
          "internalType": "address",
          "name": "_asset",
          "type": "address"
        },
        {
          "internalType": "address",
          "name": "_to",
          "type": "address"
        }
      ],
      "name": "updateProtocolAddresses",
      "outputs": [],
      "stateMutability": "nonpayable",
      "type": "function"
    },
    {
      "inputs": [
        {
          "internalType": "address payable",
          "name": "_savingsAccount",
          "type": "address"
        }
      ],
      "name": "updateSavingsAccount",
      "outputs": [],
      "stateMutability": "nonpayable",
      "type": "function"
    },
    {
      "stateMutability": "payable",
      "type": "receive"
    }
  ],
  "bytecode": "0x608060405234801561001057600080fd5b50611c97806100206000396000f3fe6080604052600436106100ab5760003560e01c80636cf14f9d116100645780636cf14f9d1461023a578063715018a61461026d5780638da5cb5b146102825780639d564d9a14610297578063ecced623146102d0578063f2fde38b146102e5576100b2565b8063050470f1146100b75780631391abc7146100f45780634767ceee14610143578063485cc9551461018b57806359846d29146101c65780636382d9ad146101ff576100b2565b366100b257005b600080fd5b3480156100c357600080fd5b506100f2600480360360408110156100da57600080fd5b506001600160a01b0381358116916020013516610318565b005b34801561010057600080fd5b506101276004803603602081101561011757600080fd5b50356001600160a01b0316610451565b604080516001600160a01b039092168252519081900360200190f35b6101796004803603606081101561015957600080fd5b506001600160a01b0381358116916020810135909116906040013561046c565b60408051918252519081900360200190f35b34801561019757600080fd5b506100f2600480360360408110156101ae57600080fd5b506001600160a01b03813581169160200135166105fc565b3480156101d257600080fd5b50610179600480360360408110156101e957600080fd5b50803590602001356001600160a01b031661071e565b34801561020b57600080fd5b506101796004803603604081101561022257600080fd5b506001600160a01b0381358116916020013516610844565b34801561024657600080fd5b506100f26004803603602081101561025d57600080fd5b50356001600160a01b0316610a1d565b34801561027957600080fd5b506100f2610af3565b34801561028e57600080fd5b50610127610b9f565b3480156102a357600080fd5b50610179600480360360408110156102ba57600080fd5b506001600160a01b038135169060200135610bae565b3480156102dc57600080fd5b50610127610d96565b3480156102f157600080fd5b506100f26004803603602081101561030857600080fd5b50356001600160a01b0316610da5565b610320610ea8565b6001600160a01b0316610331610b9f565b6001600160a01b03161461037a576040805162461bcd60e51b81526020600482018190526024820152600080516020611c18833981519152604482015290519081900360640190fd5b6001600160a01b0381166103cc576040805162461bcd60e51b8152602060048201526014602482015273496e766573743a207a65726f206164647265737360601b604482015290519081900360640190fd5b6001600160a01b0382811660009081526066602052604090205416156104235760405162461bcd60e51b8152600401808060200182810382526026815260200180611b566026913960400191505060405180910390fd5b6001600160a01b03918216600090815260666020526040902080546001600160a01b03191691909216179055565b6066602052600090815260409020546001600160a01b031681565b6065546000906001600160a01b0316610483610ea8565b6001600160a01b0316146104c85760405162461bcd60e51b8152600401808060200182810382526027815260200180611b7c6027913960400191505060405180910390fd5b8161050b576040805162461bcd60e51b815260206004820152600e60248201526d125b9d995cdd0e88185b5bdd5b9d60921b604482015290519081900360640190fd5b6001600160a01b038084166000818152606660205260409020549091169061058757823414610576576040805162461bcd60e51b8152602060048201526012602482015271125b9d995cdd0e8811551208185b5bdd5b9d60721b604482015290519081900360640190fd5b6105808184610eac565b91506105aa565b61059c6001600160a01b03851686308661100a565b6105a784828561106a565b91505b604080516001600160a01b0380881682528316602082015280820184905290517f71538b5e30c18b86003771476b5887a8f118d796b2a4a2a5960e0ac1b10962d39181900360600190a1509392505050565b600054610100900460ff16806106155750610615611289565b80610623575060005460ff16155b61065e5760405162461bcd60e51b815260040180806020018281038252602e815260200180611bc9602e913960400191505060405180910390fd5b600054610100900460ff16158015610689576000805460ff1961ff0019909116610100171660011790555b61069161129a565b61069a83610da5565b6001600160a01b0382166106ec576040805162461bcd60e51b8152602060048201526014602482015273496e766573743a207a65726f206164647265737360601b604482015290519081900360640190fd5b606580546001600160a01b0319166001600160a01b0384161790558015610719576000805461ff00191690555b505050565b60008261072d5750600061083e565b6001600160a01b038083166000908152606660209081526040918290205482516370a0823160e01b8152306004820152925193169261083a9284926370a0823192602480840193829003018186803b15801561078857600080fd5b505afa15801561079c573d6000803e3d6000fd5b505050506040513d60208110156107b257600080fd5b505160408051633af9e66960e01b815230600482015290516108349188916001600160a01b03871691633af9e6699160248083019260209291908290030181600087803b15801561080257600080fd5b505af1158015610816573d6000803e3d6000fd5b505050506040513d602081101561082c57600080fd5b50519061134c565b906113ac565b9150505b92915050565b600061084e610ea8565b6001600160a01b031661085f610b9f565b6001600160a01b0316146108a8576040805162461bcd60e51b81526020600482018190526024820152600080516020611c18833981519152604482015290519081900360640190fd5b6001600160a01b0380841660009081526066602090815260408083205481516370a0823160e01b8152306004820152915194169384926370a082319260248082019391829003018186803b1580156108ff57600080fd5b505afa158015610913573d6000803e3d6000fd5b505050506040513d602081101561092957600080fd5b505190506001600160a01b038516610984576109458282611413565b6040519093506001600160a01b0385169084156108fc029085906000818181858888f1935050505015801561097e573d6000803e3d6000fd5b50610a15565b61098f8583836114dd565b9250846001600160a01b031663a9059cbb85856040518363ffffffff1660e01b815260040180836001600160a01b0316815260200182815260200192505050602060405180830381600087803b1580156109e857600080fd5b505af11580156109fc573d6000803e3d6000fd5b505050506040513d6020811015610a1257600080fd5b50505b505092915050565b610a25610ea8565b6001600160a01b0316610a36610b9f565b6001600160a01b031614610a7f576040805162461bcd60e51b81526020600482018190526024820152600080516020611c18833981519152604482015290519081900360640190fd5b6001600160a01b038116610ad1576040805162461bcd60e51b8152602060048201526014602482015273496e766573743a207a65726f206164647265737360601b604482015290519081900360640190fd5b606580546001600160a01b0319166001600160a01b0392909216919091179055565b610afb610ea8565b6001600160a01b0316610b0c610b9f565b6001600160a01b031614610b55576040805162461bcd60e51b81526020600482018190526024820152600080516020611c18833981519152604482015290519081900360640190fd5b6033546040516000916001600160a01b0316907f8be0079c531659141344cd1fd0a4f28419497f9722a3daafe3b4186f6b6457e0908390a3603380546001600160a01b0319169055565b6033546001600160a01b031690565b6065546000906001600160a01b0316610bc5610ea8565b6001600160a01b031614610c0a5760405162461bcd60e51b8152600401808060200182810382526027815260200180611b7c6027913960400191505060405180910390fd5b81610c4d576040805162461bcd60e51b815260206004820152600e60248201526d125b9d995cdd0e88185b5bdd5b9d60921b604482015290519081900360640190fd5b6001600160a01b0380841660008181526066602052604090205490911690610cba57610c798184611413565b6065546040519193506001600160a01b03169083156108fc029084906000818181858888f19350505050158015610cb4573d6000803e3d6000fd5b50610d4b565b610cc58482856114dd565b6065546040805163a9059cbb60e01b81526001600160a01b0392831660048201526024810184905290519294509086169163a9059cbb916044808201926020929091908290030181600087803b158015610d1e57600080fd5b505af1158015610d32573d6000803e3d6000fd5b505050506040513d6020811015610d4857600080fd5b50505b604080516001600160a01b03861681526020810184905281517faf08a4db36432bb5cbbfdfcf5af1040246483dc0dae8a9616cc79816c432fee9929181900390910190a15092915050565b6065546001600160a01b031681565b610dad610ea8565b6001600160a01b0316610dbe610b9f565b6001600160a01b031614610e07576040805162461bcd60e51b81526020600482018190526024820152600080516020611c18833981519152604482015290519081900360640190fd5b6001600160a01b038116610e4c5760405162461bcd60e51b8152600401808060200182810382526026815260200180611b306026913960400191505060405180910390fd5b6033546040516001600160a01b038084169216907f8be0079c531659141344cd1fd0a4f28419497f9722a3daafe3b4186f6b6457e090600090a3603380546001600160a01b0319166001600160a01b0392909216919091179055565b3390565b600080836001600160a01b03166370a08231306040518263ffffffff1660e01b815260040180826001600160a01b0316815260200191505060206040518083038186803b158015610efc57600080fd5b505afa158015610f10573d6000803e3d6000fd5b505050506040513d6020811015610f2657600080fd5b505160408051631249c58b60e01b815290519192506001600160a01b03861691631249c58b918691600480830192600092919082900301818588803b158015610f6e57600080fd5b505af1158015610f82573d6000803e3d6000fd5b505050505061083a81856001600160a01b03166370a08231306040518263ffffffff1660e01b815260040180826001600160a01b0316815260200191505060206040518083038186803b158015610fd857600080fd5b505afa158015610fec573d6000803e3d6000fd5b505050506040513d602081101561100257600080fd5b50519061166b565b604080516001600160a01b0380861660248301528416604482015260648082018490528251808303909101815260849091019091526020810180516001600160e01b03166323b872dd60e01b1790526110649085906116c8565b50505050565b600080836001600160a01b03166370a08231306040518263ffffffff1660e01b815260040180826001600160a01b0316815260200191505060206040518083038186803b1580156110ba57600080fd5b505afa1580156110ce573d6000803e3d6000fd5b505050506040513d60208110156110e457600080fd5b50516040805163095ea7b360e01b81526001600160a01b0387811660048301526024820187905291519293509087169163095ea7b3916044808201926020929091908290030181600087803b15801561113c57600080fd5b505af1158015611150573d6000803e3d6000fd5b505050506040513d602081101561116657600080fd5b50506040805163140e25ad60e31b81526004810185905290516001600160a01b0386169163a0712d689160248083019260209291908290030181600087803b1580156111b157600080fd5b505af11580156111c5573d6000803e3d6000fd5b505050506040513d60208110156111db57600080fd5b50511561122f576040805162461bcd60e51b815260206004820152601960248201527f4572726f7220696e2072656465656d696e6720746f6b656e7300000000000000604482015290519081900360640190fd5b61128081856001600160a01b03166370a08231306040518263ffffffff1660e01b815260040180826001600160a01b0316815260200191505060206040518083038186803b158015610fd857600080fd5b95945050505050565b600061129430611779565b15905090565b600054610100900460ff16806112b357506112b3611289565b806112c1575060005460ff16155b6112fc5760405162461bcd60e51b815260040180806020018281038252602e815260200180611bc9602e913960400191505060405180910390fd5b600054610100900460ff16158015611327576000805460ff1961ff0019909116610100171660011790555b61132f61177f565b61133761181f565b8015611349576000805461ff00191690555b50565b60008261135b5750600061083e565b8282028284828161136857fe5b04146113a55760405162461bcd60e51b8152600401808060200182810382526021815260200180611bf76021913960400191505060405180910390fd5b9392505050565b6000808211611402576040805162461bcd60e51b815260206004820152601a60248201527f536166654d6174683a206469766973696f6e206279207a65726f000000000000604482015290519081900360640190fd5b81838161140b57fe5b049392505050565b600080479050836001600160a01b031663db006a75846040518263ffffffff1660e01b815260040180828152602001915050602060405180830381600087803b15801561145f57600080fd5b505af1158015611473573d6000803e3d6000fd5b505050506040513d602081101561148957600080fd5b5051156114d3576040805162461bcd60e51b81526020600482015260136024820152724572726f7220696e20756e7772617070696e6760681b604482015290519081900360640190fd5b61083a478261166b565b600080846001600160a01b03166370a08231306040518263ffffffff1660e01b815260040180826001600160a01b0316815260200191505060206040518083038186803b15801561152d57600080fd5b505afa158015611541573d6000803e3d6000fd5b505050506040513d602081101561155757600080fd5b50516040805163db006a7560e01b81526004810186905290519192506001600160a01b0386169163db006a75916024808201926020929091908290030181600087803b1580156115a657600080fd5b505af11580156115ba573d6000803e3d6000fd5b505050506040513d60208110156115d057600080fd5b50511561161a576040805162461bcd60e51b81526020600482015260136024820152724572726f7220696e20756e7772617070696e6760681b604482015290519081900360640190fd5b61128081866001600160a01b03166370a08231306040518263ffffffff1660e01b815260040180826001600160a01b0316815260200191505060206040518083038186803b158015610fd857600080fd5b6000828211156116c2576040805162461bcd60e51b815260206004820152601e60248201527f536166654d6174683a207375627472616374696f6e206f766572666c6f770000604482015290519081900360640190fd5b50900390565b606061171d826040518060400160405280602081526020017f5361666545524332303a206c6f772d6c6576656c2063616c6c206661696c6564815250856001600160a01b03166119189092919063ffffffff16565b8051909150156107195780806020019051602081101561173c57600080fd5b50516107195760405162461bcd60e51b815260040180806020018281038252602a815260200180611c38602a913960400191505060405180910390fd5b3b151590565b600054610100900460ff16806117985750611798611289565b806117a6575060005460ff16155b6117e15760405162461bcd60e51b815260040180806020018281038252602e815260200180611bc9602e913960400191505060405180910390fd5b600054610100900460ff16158015611337576000805460ff1961ff0019909116610100171660011790558015611349576000805461ff001916905550565b600054610100900460ff16806118385750611838611289565b80611846575060005460ff16155b6118815760405162461bcd60e51b815260040180806020018281038252602e815260200180611bc9602e913960400191505060405180910390fd5b600054610100900460ff161580156118ac576000805460ff1961ff0019909116610100171660011790555b60006118b6610ea8565b603380546001600160a01b0319166001600160a01b038316908117909155604051919250906000907f8be0079c531659141344cd1fd0a4f28419497f9722a3daafe3b4186f6b6457e0908290a3508015611349576000805461ff001916905550565b6060611927848460008561192f565b949350505050565b6060824710156119705760405162461bcd60e51b8152600401808060200182810382526026815260200180611ba36026913960400191505060405180910390fd5b61197985611779565b6119ca576040805162461bcd60e51b815260206004820152601d60248201527f416464726573733a2063616c6c20746f206e6f6e2d636f6e7472616374000000604482015290519081900360640190fd5b60006060866001600160a01b031685876040518082805190602001908083835b60208310611a095780518252601f1990920191602091820191016119ea565b6001836020036101000a03801982511681845116808217855250505050505090500191505060006040518083038185875af1925050503d8060008114611a6b576040519150601f19603f3d011682016040523d82523d6000602084013e611a70565b606091505b5091509150611a80828286611a8b565b979650505050505050565b60608315611a9a5750816113a5565b825115611aaa5782518084602001fd5b8160405162461bcd60e51b81526004018080602001828103825283818151815260200191508051906020019080838360005b83811015611af4578181015183820152602001611adc565b50505050905090810190601f168015611b215780820380516001836020036101000a031916815260200191505b509250505060405180910390fdfe4f776e61626c653a206e6577206f776e657220697320746865207a65726f2061646472657373496e766573743a2043616e6e6f7420757064617465206578697374696e672061646472657373496e766573743a204f6e6c7920736176696e6773206163636f756e742063616e20696e766f6b65416464726573733a20696e73756666696369656e742062616c616e636520666f722063616c6c496e697469616c697a61626c653a20636f6e747261637420697320616c726561647920696e697469616c697a6564536166654d6174683a206d756c7469706c69636174696f6e206f766572666c6f774f776e61626c653a2063616c6c6572206973206e6f7420746865206f776e65725361666545524332303a204552433230206f7065726174696f6e20646964206e6f742073756363656564a2646970667358221220a9de638b2c34ffde997f38708a0df3b13e073e45a73aea7d68ca3d9f0cc63a6264736f6c63430007000033",
  "linkReferences": {},
  "deployedLinkReferences": {}
}