{
  "_format": "hh-sol-artifact-1",
  "contractName": "GovernorAlpha",
  "sourceName": "contracts/governance/GovernorAlpha.sol",
  "abi": [
    {
      "inputs": [
        {
          "internalType": "address",
          "name": "timelock_",
          "type": "address"
        },
        {
          "internalType": "address",
          "name": "LIME_",
          "type": "address"
        },
        {
          "internalType": "address",
          "name": "guardian_",
          "type": "address"
        }
      ],
      "stateMutability": "nonpayable",
      "type": "constructor"
    },
    {
      "anonymous": false,
      "inputs": [
        {
          "indexed": false,
          "internalType": "uint256",
          "name": "id",
          "type": "uint256"
        }
      ],
      "name": "ProposalCanceled",
      "type": "event"
    },
    {
      "anonymous": false,
      "inputs": [
        {
          "indexed": false,
          "internalType": "uint256",
          "name": "id",
          "type": "uint256"
        },
        {
          "indexed": false,
          "internalType": "address",
          "name": "proposer",
          "type": "address"
        },
        {
          "indexed": false,
          "internalType": "address[]",
          "name": "targets",
          "type": "address[]"
        },
        {
          "indexed": false,
          "internalType": "uint256[]",
          "name": "values",
          "type": "uint256[]"
        },
        {
          "indexed": false,
          "internalType": "string[]",
          "name": "signatures",
          "type": "string[]"
        },
        {
          "indexed": false,
          "internalType": "bytes[]",
          "name": "calldatas",
          "type": "bytes[]"
        },
        {
          "indexed": false,
          "internalType": "uint256",
          "name": "startBlock",
          "type": "uint256"
        },
        {
          "indexed": false,
          "internalType": "uint256",
          "name": "endBlock",
          "type": "uint256"
        },
        {
          "indexed": false,
          "internalType": "string",
          "name": "description",
          "type": "string"
        }
      ],
      "name": "ProposalCreated",
      "type": "event"
    },
    {
      "anonymous": false,
      "inputs": [
        {
          "indexed": false,
          "internalType": "uint256",
          "name": "id",
          "type": "uint256"
        }
      ],
      "name": "ProposalExecuted",
      "type": "event"
    },
    {
      "anonymous": false,
      "inputs": [
        {
          "indexed": false,
          "internalType": "uint256",
          "name": "id",
          "type": "uint256"
        },
        {
          "indexed": false,
          "internalType": "uint256",
          "name": "eta",
          "type": "uint256"
        }
      ],
      "name": "ProposalQueued",
      "type": "event"
    },
    {
      "anonymous": false,
      "inputs": [
        {
          "indexed": false,
          "internalType": "address",
          "name": "voter",
          "type": "address"
        },
        {
          "indexed": false,
          "internalType": "uint256",
          "name": "proposalId",
          "type": "uint256"
        },
        {
          "indexed": false,
          "internalType": "bool",
          "name": "support",
          "type": "bool"
        },
        {
          "indexed": false,
          "internalType": "uint256",
          "name": "votes",
          "type": "uint256"
        }
      ],
      "name": "VoteCast",
      "type": "event"
    },
    {
      "inputs": [],
      "name": "BALLOT_TYPEHASH",
      "outputs": [
        {
          "internalType": "bytes32",
          "name": "",
          "type": "bytes32"
        }
      ],
      "stateMutability": "view",
      "type": "function"
    },
    {
      "inputs": [],
      "name": "DOMAIN_TYPEHASH",
      "outputs": [
        {
          "internalType": "bytes32",
          "name": "",
          "type": "bytes32"
        }
      ],
      "stateMutability": "view",
      "type": "function"
    },
    {
      "inputs": [],
      "name": "LIME",
      "outputs": [
        {
          "internalType": "contract LIMEInterface",
          "name": "",
          "type": "address"
        }
      ],
      "stateMutability": "view",
      "type": "function"
    },
    {
      "inputs": [],
      "name": "__abdicate",
      "outputs": [],
      "stateMutability": "nonpayable",
      "type": "function"
    },
    {
      "inputs": [],
      "name": "__acceptAdmin",
      "outputs": [],
      "stateMutability": "nonpayable",
      "type": "function"
    },
    {
      "inputs": [
        {
          "internalType": "address",
          "name": "newPendingAdmin",
          "type": "address"
        },
        {
          "internalType": "uint256",
          "name": "eta",
          "type": "uint256"
        }
      ],
      "name": "__executeSetTimelockPendingAdmin",
      "outputs": [],
      "stateMutability": "nonpayable",
      "type": "function"
    },
    {
      "inputs": [
        {
          "internalType": "address",
          "name": "newPendingAdmin",
          "type": "address"
        },
        {
          "internalType": "uint256",
          "name": "eta",
          "type": "uint256"
        }
      ],
      "name": "__queueSetTimelockPendingAdmin",
      "outputs": [],
      "stateMutability": "nonpayable",
      "type": "function"
    },
    {
      "inputs": [
        {
          "internalType": "uint256",
          "name": "proposalId",
          "type": "uint256"
        }
      ],
      "name": "cancel",
      "outputs": [],
      "stateMutability": "nonpayable",
      "type": "function"
    },
    {
      "inputs": [
        {
          "internalType": "uint256",
          "name": "proposalId",
          "type": "uint256"
        },
        {
          "internalType": "bool",
          "name": "support",
          "type": "bool"
        }
      ],
      "name": "castVote",
      "outputs": [],
      "stateMutability": "nonpayable",
      "type": "function"
    },
    {
      "inputs": [
        {
          "internalType": "uint256",
          "name": "proposalId",
          "type": "uint256"
        },
        {
          "internalType": "bool",
          "name": "support",
          "type": "bool"
        },
        {
          "internalType": "uint8",
          "name": "v",
          "type": "uint8"
        },
        {
          "internalType": "bytes32",
          "name": "r",
          "type": "bytes32"
        },
        {
          "internalType": "bytes32",
          "name": "s",
          "type": "bytes32"
        }
      ],
      "name": "castVoteBySig",
      "outputs": [],
      "stateMutability": "nonpayable",
      "type": "function"
    },
    {
      "inputs": [
        {
          "internalType": "uint256",
          "name": "proposalId",
          "type": "uint256"
        }
      ],
      "name": "execute",
      "outputs": [],
      "stateMutability": "payable",
      "type": "function"
    },
    {
      "inputs": [
        {
          "internalType": "uint256",
          "name": "proposalId",
          "type": "uint256"
        }
      ],
      "name": "getActions",
      "outputs": [
        {
          "internalType": "address[]",
          "name": "targets",
          "type": "address[]"
        },
        {
          "internalType": "uint256[]",
          "name": "values",
          "type": "uint256[]"
        },
        {
          "internalType": "string[]",
          "name": "signatures",
          "type": "string[]"
        },
        {
          "internalType": "bytes[]",
          "name": "calldatas",
          "type": "bytes[]"
        }
      ],
      "stateMutability": "view",
      "type": "function"
    },
    {
      "inputs": [
        {
          "internalType": "uint256",
          "name": "proposalId",
          "type": "uint256"
        },
        {
          "internalType": "address",
          "name": "voter",
          "type": "address"
        }
      ],
      "name": "getReceipt",
      "outputs": [
        {
          "components": [
            {
              "internalType": "bool",
              "name": "hasVoted",
              "type": "bool"
            },
            {
              "internalType": "bool",
              "name": "support",
              "type": "bool"
            },
            {
              "internalType": "uint96",
              "name": "votes",
              "type": "uint96"
            }
          ],
          "internalType": "struct GovernorAlpha.Receipt",
          "name": "",
          "type": "tuple"
        }
      ],
      "stateMutability": "view",
      "type": "function"
    },
    {
      "inputs": [],
      "name": "guardian",
      "outputs": [
        {
          "internalType": "address",
          "name": "",
          "type": "address"
        }
      ],
      "stateMutability": "view",
      "type": "function"
    },
    {
      "inputs": [
        {
          "internalType": "address",
          "name": "",
          "type": "address"
        }
      ],
      "name": "latestProposalIds",
      "outputs": [
        {
          "internalType": "uint256",
          "name": "",
          "type": "uint256"
        }
      ],
      "stateMutability": "view",
      "type": "function"
    },
    {
      "inputs": [],
      "name": "name",
      "outputs": [
        {
          "internalType": "string",
          "name": "",
          "type": "string"
        }
      ],
      "stateMutability": "view",
      "type": "function"
    },
    {
      "inputs": [],
      "name": "proposalCount",
      "outputs": [
        {
          "internalType": "uint256",
          "name": "",
          "type": "uint256"
        }
      ],
      "stateMutability": "view",
      "type": "function"
    },
    {
      "inputs": [],
      "name": "proposalMaxOperations",
      "outputs": [
        {
          "internalType": "uint256",
          "name": "",
          "type": "uint256"
        }
      ],
      "stateMutability": "pure",
      "type": "function"
    },
    {
      "inputs": [],
      "name": "proposalThreshold",
      "outputs": [
        {
          "internalType": "uint256",
          "name": "",
          "type": "uint256"
        }
      ],
      "stateMutability": "pure",
      "type": "function"
    },
    {
      "inputs": [
        {
          "internalType": "uint256",
          "name": "",
          "type": "uint256"
        }
      ],
      "name": "proposals",
      "outputs": [
        {
          "internalType": "uint256",
          "name": "id",
          "type": "uint256"
        },
        {
          "internalType": "address",
          "name": "proposer",
          "type": "address"
        },
        {
          "internalType": "uint256",
          "name": "eta",
          "type": "uint256"
        },
        {
          "internalType": "uint256",
          "name": "startBlock",
          "type": "uint256"
        },
        {
          "internalType": "uint256",
          "name": "endBlock",
          "type": "uint256"
        },
        {
          "internalType": "uint256",
          "name": "forVotes",
          "type": "uint256"
        },
        {
          "internalType": "uint256",
          "name": "againstVotes",
          "type": "uint256"
        },
        {
          "internalType": "bool",
          "name": "canceled",
          "type": "bool"
        },
        {
          "internalType": "bool",
          "name": "executed",
          "type": "bool"
        }
      ],
      "stateMutability": "view",
      "type": "function"
    },
    {
      "inputs": [
        {
          "internalType": "address[]",
          "name": "targets",
          "type": "address[]"
        },
        {
          "internalType": "uint256[]",
          "name": "values",
          "type": "uint256[]"
        },
        {
          "internalType": "string[]",
          "name": "signatures",
          "type": "string[]"
        },
        {
          "internalType": "bytes[]",
          "name": "calldatas",
          "type": "bytes[]"
        },
        {
          "internalType": "string",
          "name": "description",
          "type": "string"
        }
      ],
      "name": "propose",
      "outputs": [
        {
          "internalType": "uint256",
          "name": "",
          "type": "uint256"
        }
      ],
      "stateMutability": "nonpayable",
      "type": "function"
    },
    {
      "inputs": [
        {
          "internalType": "uint256",
          "name": "proposalId",
          "type": "uint256"
        }
      ],
      "name": "queue",
      "outputs": [],
      "stateMutability": "nonpayable",
      "type": "function"
    },
    {
      "inputs": [],
      "name": "quorumVotes",
      "outputs": [
        {
          "internalType": "uint256",
          "name": "",
          "type": "uint256"
        }
      ],
      "stateMutability": "pure",
      "type": "function"
    },
    {
      "inputs": [
        {
          "internalType": "uint256",
          "name": "proposalId",
          "type": "uint256"
        }
      ],
      "name": "state",
      "outputs": [
        {
          "internalType": "enum GovernorAlpha.ProposalState",
          "name": "",
          "type": "uint8"
        }
      ],
      "stateMutability": "view",
      "type": "function"
    },
    {
      "inputs": [],
      "name": "timelock",
      "outputs": [
        {
          "internalType": "contract TimelockInterface",
          "name": "",
          "type": "address"
        }
      ],
      "stateMutability": "view",
      "type": "function"
    },
    {
      "inputs": [],
      "name": "votingDelay",
      "outputs": [
        {
          "internalType": "uint256",
          "name": "",
          "type": "uint256"
        }
      ],
      "stateMutability": "pure",
      "type": "function"
    },
    {
      "inputs": [],
      "name": "votingPeriod",
      "outputs": [
        {
          "internalType": "uint256",
          "name": "",
          "type": "uint256"
        }
      ],
      "stateMutability": "pure",
      "type": "function"
    }
  ],
  "bytecode": "0x60806040523480156200001157600080fd5b50604051620031a1380380620031a1833981016040819052620000349162000077565b600080546001600160a01b039485166001600160a01b031991821617909155600180549385169382169390931790925560028054919093169116179055620000e3565b6000806000606084860312156200008c578283fd5b83516200009981620000ca565b6020850151909350620000ac81620000ca565b6040850151909250620000bf81620000ca565b809150509250925092565b6001600160a01b0381168114620000e057600080fd5b50565b6130ae80620000f36000396000f3fe60806040526004361061019c5760003560e01c80634634c61f116100ec578063da35c6641161008a578063deaaa7cc11610064578063deaaa7cc14610461578063e23a9a5214610476578063ea8d2b79146104a3578063fe0d94c1146104b85761019c565b8063da35c6641461040c578063da95691a14610421578063ddf0b009146104415761019c565b806391500671116100c657806391500671146103ad578063b58131b0146103cd578063b9a61961146103e2578063d33219b4146103f75761019c565b80634634c61f14610363578063760fbc13146103835780637bdbe4d0146103985761019c565b806321f43e42116101595780633932abb1116101335780633932abb1146102df5780633e4f49e6146102f457806340e58ee514610321578063452a9320146103415761019c565b806321f43e421461027a57806324bc1a641461029a578063328dd982146102af5761019c565b8063013cf08b146101a157806302a251a3146101df57806306fdde031461020157806315373e3d1461022357806317977c611461024557806320606b7014610265575b600080fd5b3480156101ad57600080fd5b506101c16101bc366004612297565b6104cb565b6040516101d699989796959493929190612f6d565b60405180910390f35b3480156101eb57600080fd5b506101f4610524565b6040516101d691906126ba565b34801561020d57600080fd5b50610216610529565b6040516101d69190612731565b34801561022f57600080fd5b5061024361023e3660046122db565b61055b565b005b34801561025157600080fd5b506101f46102603660046120df565b61056a565b34801561027157600080fd5b506101f461057c565b34801561028657600080fd5b506102436102953660046120fa565b6105a0565b3480156102a657600080fd5b506101f4610687565b3480156102bb57600080fd5b506102cf6102ca366004612297565b610694565b6040516101d69493929190612662565b3480156102eb57600080fd5b506101f4610923565b34801561030057600080fd5b5061031461030f366004612297565b610928565b6040516101d6919061271d565b34801561032d57600080fd5b5061024361033c366004612297565b610ab8565b34801561034d57600080fd5b50610356610d21565b6040516101d69190612513565b34801561036f57600080fd5b5061024361037e36600461230a565b610d30565b34801561038f57600080fd5b50610243610ee2565b3480156103a457600080fd5b506101f4610f1e565b3480156103b957600080fd5b506102436103c83660046120fa565b610f23565b3480156103d957600080fd5b506101f4610ff8565b3480156103ee57600080fd5b50610243611004565b34801561040357600080fd5b50610356611089565b34801561041857600080fd5b506101f4611098565b34801561042d57600080fd5b506101f461043c366004612124565b61109e565b34801561044d57600080fd5b5061024361045c366004612297565b611405565b34801561046d57600080fd5b506101f461166f565b34801561048257600080fd5b506104966104913660046122af565b611693565b6040516101d69190612ea7565b3480156104af57600080fd5b50610356611702565b6102436104c6366004612297565b611711565b6004602052600090815260409020805460018201546002830154600784015460088501546009860154600a870154600b9097015495966001600160a01b0390951695939492939192909160ff8082169161010090041689565b609690565b604051806040016040528060168152602001755375626c696d6520476f7665726e6f7220416c70686160501b81525081565b6105663383836118d6565b5050565b60056020526000908152604090205481565b7f8cad95687ba82c2ce50e74f7b754645e5117c3a5bec8151c0726d5857980a86681565b6002546001600160a01b031633146105d35760405162461bcd60e51b81526004016105ca90612876565b60405180910390fd5b600080546040516001600160a01b0390911691630825f38f918391906105fd908790602001612513565b604051602081830303815290604052856040518563ffffffff1660e01b815260040161062c9493929190612540565b600060405180830381600087803b15801561064657600080fd5b505af115801561065a573d6000803e3d6000fd5b505050506040513d6000823e601f3d908101601f191682016040526106829190810190612224565b505050565b680ad78ebc5ac620000090565b6060806060806000600460008781526020019081526020016000209050806003018160040182600501836006018380548060200260200160405190810160405280929190818152602001828054801561071657602002820191906000526020600020905b81546001600160a01b031681526001909101906020018083116106f8575b505050505093508280548060200260200160405190810160405280929190818152602001828054801561076857602002820191906000526020600020905b815481526020019060010190808311610754575b5050505050925081805480602002602001604051908101604052809291908181526020016000905b8282101561083b5760008481526020908190208301805460408051601f60026000196101006001871615020190941693909304928301859004850281018501909152818152928301828280156108275780601f106107fc57610100808354040283529160200191610827565b820191906000526020600020905b81548152906001019060200180831161080a57829003601f168201915b505050505081526020019060010190610790565b50505050915080805480602002602001604051908101604052809291908181526020016000905b8282101561090d5760008481526020908190208301805460408051601f60026000196101006001871615020190941693909304928301859004850281018501909152818152928301828280156108f95780601f106108ce576101008083540402835291602001916108f9565b820191906000526020600020905b8154815290600101906020018083116108dc57829003601f168201915b505050505081526020019060010190610862565b5050505090509450945094509450509193509193565b600190565b6000816003541015801561093c5750600082115b6109585760405162461bcd60e51b81526004016105ca906128e8565b6000828152600460205260409020600b81015460ff161561097d576002915050610ab3565b80600701544311610992576000915050610ab3565b806008015443116109a7576001915050610ab3565b80600a015460110281600901546003021115806109ce57506109c7610687565b8160090154105b156109dd576003915050610ab3565b60028101546109f0576004915050610ab3565b600b810154610100900460ff1615610a0c576007915050610ab3565b610a9d816002015460008054906101000a90046001600160a01b03166001600160a01b031663c1a287e26040518163ffffffff1660e01b815260040160206040518083038186803b158015610a6057600080fd5b505afa158015610a74573d6000803e3d6000fd5b505050506040513d601f19601f82011682018060405250810190610a98919061220c565b611a9f565b4210610aad576006915050610ab3565b60059150505b919050565b6000610ac382610928565b90506007816007811115610ad357fe5b1415610af15760405162461bcd60e51b81526004016105ca90612d82565b60008281526004602052604090206002546001600160a01b0316331480610bbc5750610b1b610ff8565b60018054838201546001600160a01b039182169263782d6fe19290911690610b44904390611acb565b6040518363ffffffff1660e01b8152600401610b61929190612527565b60206040518083038186803b158015610b7957600080fd5b505afa158015610b8d573d6000803e3d6000fd5b505050506040513d601f19601f82011682018060405250810190610bb19190612360565b6001600160601b0316105b610bd85760405162461bcd60e51b81526004016105ca90612b4e565b600b8101805460ff1916600117905560005b6003820154811015610ce4576000546003830180546001600160a01b039092169163591fcdfe919084908110610c1c57fe5b6000918252602090912001546004850180546001600160a01b039092169185908110610c4457fe5b9060005260206000200154856005018581548110610c5e57fe5b90600052602060002001866006018681548110610c7757fe5b9060005260206000200187600201546040518663ffffffff1660e01b8152600401610ca6959493929190612629565b600060405180830381600087803b158015610cc057600080fd5b505af1158015610cd4573d6000803e3d6000fd5b505060019092019150610bea9050565b507f789cf55be980739dad1d0699b93b58e806b51c9d96619bfa8fe0a28abaa7b30c83604051610d1491906126ba565b60405180910390a1505050565b6002546001600160a01b031681565b6040805180820190915260168152755375626c696d6520476f7665726e6f7220416c70686160501b60209091015260007f8cad95687ba82c2ce50e74f7b754645e5117c3a5bec8151c0726d5857980a8667f96081aa270fb60210f3bf331e3524ff96029b0e2e4ade330461205f1da76d0bc610daa611af3565b30604051602001610dbe94939291906126c3565b60405160208183030381529060405280519060200120905060007f8e25870c07e0b0b3884c78da52790939a455c275406c44ae8b434b692fb916ee8787604051602001610e0d939291906126e7565b60405160208183030381529060405280519060200120905060008282604051602001610e3a9291906124f8565b604051602081830303815290604052805190602001209050600060018288888860405160008152602001604052604051610e7794939291906126ff565b6020604051602081039080840390855afa158015610e99573d6000803e3d6000fd5b5050604051601f1901519150506001600160a01b038116610ecc5760405162461bcd60e51b81526004016105ca90612cb0565b610ed7818a8a6118d6565b505050505050505050565b6002546001600160a01b03163314610f0c5760405162461bcd60e51b81526004016105ca90612e51565b600280546001600160a01b0319169055565b600a90565b6002546001600160a01b03163314610f4d5760405162461bcd60e51b81526004016105ca90612a01565b600080546040516001600160a01b0390911691633a66f90191839190610f77908790602001612513565b604051602081830303815290604052856040518563ffffffff1660e01b8152600401610fa69493929190612540565b602060405180830381600087803b158015610fc057600080fd5b505af1158015610fd4573d6000803e3d6000fd5b505050506040513d601f19601f82011682018060405250810190610682919061220c565b670de0b6b3a764000090565b6002546001600160a01b0316331461102e5760405162461bcd60e51b81526004016105ca90612744565b6000805460408051630e18b68160e01b815290516001600160a01b0390921692630e18b6819260048084019382900301818387803b15801561106f57600080fd5b505af1158015611083573d6000803e3d6000fd5b50505050565b6000546001600160a01b031681565b60035481565b60006110a8610ff8565b600180546001600160a01b03169063782d6fe19033906110c9904390611acb565b6040518363ffffffff1660e01b81526004016110e6929190612527565b60206040518083038186803b1580156110fe57600080fd5b505afa158015611112573d6000803e3d6000fd5b505050506040513d601f19601f820116820180604052508101906111369190612360565b6001600160601b03161161115c5760405162461bcd60e51b81526004016105ca90612c53565b8451865114801561116e575083518651145b801561117b575082518651145b6111975760405162461bcd60e51b81526004016105ca90612ae4565b85516111b55760405162461bcd60e51b81526004016105ca90612c07565b6111bd610f1e565b865111156111dd5760405162461bcd60e51b81526004016105ca90612a71565b33600090815260056020526040902054801561125a5760006111fe82610928565b9050600181600781111561120e57fe5b141561122c5760405162461bcd60e51b81526004016105ca90612cff565b600081600781111561123a57fe5b14156112585760405162461bcd60e51b81526004016105ca9061297e565b505b600061126843610a98610923565b9050600061127882610a98610524565b6003805460019081018083556000818152600460209081526040822092835592820180546001600160a01b0319163317905560028201558c51939450926112c4928401918d0190611c56565b5088516112da90600483019060208c0190611cbb565b5087516112f090600583019060208b0190611d02565b50865161130690600683019060208a0190611d5b565b5082816007018190555081816008018190555060008160090181905550600081600a0181905550600081600b0160006101000a81548160ff021916908315150217905550600081600b0160016101000a81548160ff0219169083151502179055508060000154600560008360010160009054906101000a90046001600160a01b03166001600160a01b03166001600160a01b03168152602001908152602001600020819055507f7d84a6263ae0d98d3329bd7b46bb4e8d6f98cd35a7adb45c274c8b7fd5ebd5e08160000154338c8c8c8c89898e6040516113ef99989796959493929190612ed5565b60405180910390a1549998505050505050505050565b600461141082610928565b600781111561141b57fe5b146114385760405162461bcd60e51b81526004016105ca906127a1565b600081815260046020818152604080842084548251630d48571f60e31b8152925191959461148d9442946001600160a01b0390931693636a42b8f8938084019390829003018186803b158015610a6057600080fd5b905060005b60038301548110156116355761162d8360030182815481106114b057fe5b6000918252602090912001546004850180546001600160a01b0390921691849081106114d857fe5b90600052602060002001548560050184815481106114f257fe5b600091825260209182902001805460408051601f60026000196101006001871615020190941693909304928301859004850281018501909152818152928301828280156115805780601f1061155557610100808354040283529160200191611580565b820191906000526020600020905b81548152906001019060200180831161156357829003601f168201915b505050505086600601858154811061159457fe5b600091825260209182902001805460408051601f60026000196101006001871615020190941693909304928301859004850281018501909152818152928301828280156116225780601f106115f757610100808354040283529160200191611622565b820191906000526020600020905b81548152906001019060200180831161160557829003601f168201915b505050505086611af7565b600101611492565b50600282018190556040517f9a2e42fd6722813d69113e7d0079d3d940171428df7373df9c7f7617cfda289290610d149085908490612fb9565b7f8e25870c07e0b0b3884c78da52790939a455c275406c44ae8b434b692fb916ee81565b61169b611db4565b5060008281526004602090815260408083206001600160a01b0385168452600c018252918290208251606081018452905460ff80821615158352610100820416151592820192909252620100009091046001600160601b0316918101919091525b92915050565b6001546001600160a01b031681565b600561171c82610928565b600781111561172757fe5b146117445760405162461bcd60e51b81526004016105ca9061280b565b6000818152600460205260408120600b8101805461ff001916610100179055905b600382015481101561189a576000546004830180546001600160a01b0390921691630825f38f91908490811061179757fe5b90600052602060002001548460030184815481106117b157fe5b6000918252602090912001546004860180546001600160a01b0390921691869081106117d957fe5b90600052602060002001548660050186815481106117f357fe5b9060005260206000200187600601878154811061180c57fe5b9060005260206000200188600201546040518763ffffffff1660e01b815260040161183b959493929190612629565b6000604051808303818588803b15801561185457600080fd5b505af1158015611868573d6000803e3d6000fd5b50505050506040513d6000823e601f3d908101601f191682016040526118919190810190612224565b50600101611765565b507f712ae1383f79ac853f8d882153778e0260ef8f03b504e2866e0593e04d2b291f826040516118ca91906126ba565b60405180910390a15050565b60016118e183610928565b60078111156118ec57fe5b146119095760405162461bcd60e51b81526004016105ca90612dd8565b60008281526004602090815260408083206001600160a01b0387168452600c8101909252909120805460ff16156119525760405162461bcd60e51b81526004016105ca90612931565b600154600783015460405163782d6fe160e01b81526000926001600160a01b03169163782d6fe191611988918a91600401612527565b60206040518083038186803b1580156119a057600080fd5b505afa1580156119b4573d6000803e3d6000fd5b505050506040513d601f19601f820116820180604052508101906119d89190612360565b90508315611a01576119f78360090154826001600160601b0316611a9f565b6009840155611a1e565b611a1883600a0154826001600160601b0316611a9f565b600a8401555b8154600160ff199091161761ff00191661010085151502176dffffffffffffffffffffffff00001916620100006001600160601b038316021782556040517f877856338e13f63d0c36822ff0ef736b80934cd90574a3a5bc9262c39d217c4690611a8f9088908890889086906125ac565b60405180910390a1505050505050565b600082820183811015611ac45760405162461bcd60e51b81526004016105ca90612ab9565b9392505050565b600082821115611aed5760405162461bcd60e51b81526004016105ca90612e22565b50900390565b4690565b6000546040516001600160a01b039091169063f2b0653790611b2590889088908890889088906020016125dd565b604051602081830303815290604052805190602001206040518263ffffffff1660e01b8152600401611b5791906126ba565b60206040518083038186803b158015611b6f57600080fd5b505afa158015611b83573d6000803e3d6000fd5b505050506040513d601f19601f82011682018060405250810190611ba791906121f0565b15611bc45760405162461bcd60e51b81526004016105ca90612b9d565b600054604051633a66f90160e01b81526001600160a01b0390911690633a66f90190611bfc90889088908890889088906004016125dd565b602060405180830381600087803b158015611c1657600080fd5b505af1158015611c2a573d6000803e3d6000fd5b505050506040513d601f19601f82011682018060405250810190611c4e919061220c565b505050505050565b828054828255906000526020600020908101928215611cab579160200282015b82811115611cab57825182546001600160a01b0319166001600160a01b03909116178255602090920191600190910190611c76565b50611cb7929150611dd4565b5090565b828054828255906000526020600020908101928215611cf6579160200282015b82811115611cf6578251825591602001919060010190611cdb565b50611cb7929150611df3565b828054828255906000526020600020908101928215611d4f579160200282015b82811115611d4f5782518051611d3f918491602090910190611e08565b5091602001919060010190611d22565b50611cb7929150611e75565b828054828255906000526020600020908101928215611da8579160200282015b82811115611da85782518051611d98918491602090910190611e08565b5091602001919060010190611d7b565b50611cb7929150611e92565b604080516060810182526000808252602082018190529181019190915290565b5b80821115611cb75780546001600160a01b0319168155600101611dd5565b5b80821115611cb75760008155600101611df4565b828054600181600116156101000203166002900490600052602060002090601f016020900481019282601f10611e4957805160ff1916838001178555611cf6565b82800160010185558215611cf65791820182811115611cf6578251825591602001919060010190611cdb565b80821115611cb7576000611e898282611eaf565b50600101611e75565b80821115611cb7576000611ea68282611eaf565b50600101611e92565b50805460018160011615610100020316600290046000825580601f10611ed55750611ef3565b601f016020900490600052602060002090810190611ef39190611df3565b50565b80356001600160a01b03811681146116fc57600080fd5b600082601f830112611f1d578081fd5b8135611f30611f2b82612fee565b612fc7565b818152915060208083019084810181840286018201871015611f5157600080fd5b60005b84811015611f7857611f668883611ef6565b84529282019290820190600101611f54565b505050505092915050565b600082601f830112611f93578081fd5b8135611fa1611f2b82612fee565b818152915060208083019084810160005b84811015611f7857611fc9888484358a0101612091565b84529282019290820190600101611fb2565b600082601f830112611feb578081fd5b8135611ff9611f2b82612fee565b818152915060208083019084810160005b84811015611f7857612021888484358a0101612091565b8452928201929082019060010161200a565b600082601f830112612043578081fd5b8135612051611f2b82612fee565b81815291506020808301908481018184028601820187101561207257600080fd5b60005b84811015611f7857813584529282019290820190600101612075565b600082601f8301126120a1578081fd5b81356120af611f2b8261300e565b91508082528360208285010111156120c657600080fd5b8060208401602084013760009082016020015292915050565b6000602082840312156120f0578081fd5b611ac48383611ef6565b6000806040838503121561210c578081fd5b6121168484611ef6565b946020939093013593505050565b600080600080600060a0868803121561213b578081fd5b853567ffffffffffffffff80821115612152578283fd5b61215e89838a01611f0d565b96506020880135915080821115612173578283fd5b61217f89838a01612033565b95506040880135915080821115612194578283fd5b6121a089838a01611fdb565b945060608801359150808211156121b5578283fd5b6121c189838a01611f83565b935060808801359150808211156121d6578283fd5b506121e388828901612091565b9150509295509295909350565b600060208284031215612201578081fd5b8151611ac48161306a565b60006020828403121561221d578081fd5b5051919050565b600060208284031215612235578081fd5b815167ffffffffffffffff81111561224b578182fd5b8201601f8101841361225b578182fd5b8051612269611f2b8261300e565b81815285602083850101111561227d578384fd5b61228e82602083016020860161303e565b95945050505050565b6000602082840312156122a8578081fd5b5035919050565b600080604083850312156122c1578182fd5b823591506122d28460208501611ef6565b90509250929050565b600080604083850312156122ed578182fd5b8235915060208301356122ff8161306a565b809150509250929050565b600080600080600060a08688031215612321578283fd5b8535945060208601356123338161306a565b9350604086013560ff81168114612348578384fd5b94979396509394606081013594506080013592915050565b600060208284031215612371578081fd5b81516001600160601b0381168114611ac4578182fd5b6000815180845260208085019450808401835b838110156123bf5781516001600160a01b03168752958201959082019060010161239a565b509495945050505050565b6000815180845260208085019450848183028601828601855b8581101561240d5783830389526123fb838351612449565b988501989250908401906001016123e3565b5090979650505050505050565b6000815180845260208085019450808401835b838110156123bf5781518752958201959082019060010161242d565b6000815180845261246181602086016020860161303e565b601f01601f19169290920160200192915050565b6000815460018082166000811461249357600181146124b1576124ef565b60028304607f16865260ff19831660208701526040860193506124ef565b600283048087526124c186613032565b60005b828110156124e55781546020828b01015284820191506020810190506124c4565b8801602001955050505b50505092915050565b61190160f01b81526002810192909252602282015260420190565b6001600160a01b0391909116815260200190565b6001600160a01b03929092168252602082015260400190565b600060018060a01b038616825284602083015260a06040830152601860a08301527f73657450656e64696e6741646d696e286164647265737329000000000000000060c083015260e0606083015261259b60e0830185612449565b905082608083015295945050505050565b6001600160a01b039490941684526020840192909252151560408301526001600160601b0316606082015260800190565b600060018060a01b038716825285602083015260a0604083015261260460a0830186612449565b82810360608401526126168186612449565b9150508260808301529695505050505050565b600060018060a01b038716825285602083015260a0604083015261265060a0830186612475565b82810360608401526126168186612475565b6000608082526126756080830187612387565b8281036020840152612687818761241a565b9050828103604084015261269b81866123ca565b905082810360608401526126af81856123ca565b979650505050505050565b90815260200190565b938452602084019290925260408301526001600160a01b0316606082015260800190565b92835260208301919091521515604082015260600190565b93845260ff9290921660208401526040830152606082015260800190565b602081016008831061272b57fe5b91905290565b600060208252611ac46020830184612449565b60208082526039908201527f476f7665726e6f72416c7068613a3a5f5f61636365707441646d696e3a20736560408201527f6e646572206d75737420626520676f7620677561726469616e00000000000000606082015260800190565b60208082526044908201527f476f7665726e6f72416c7068613a3a71756575653a2070726f706f73616c206360408201527f616e206f6e6c79206265207175657565642069662069742069732073756363656060820152631959195960e21b608082015260a00190565b60208082526045908201527f476f7665726e6f72416c7068613a3a657865637574653a2070726f706f73616c60408201527f2063616e206f6e6c7920626520657865637574656420696620697420697320716060820152641d595d595960da1b608082015260a00190565b6020808252604c908201527f476f7665726e6f72416c7068613a3a5f5f6578656375746553657454696d656c60408201527f6f636b50656e64696e6741646d696e3a2073656e646572206d7573742062652060608201526b33b7bb1033bab0b93234b0b760a11b608082015260a00190565b60208082526029908201527f476f7665726e6f72416c7068613a3a73746174653a20696e76616c69642070726040820152681bdc1bdcd85b081a5960ba1b606082015260800190565b6020808252602d908201527f476f7665726e6f72416c7068613a3a5f63617374566f74653a20766f7465722060408201526c185b1c9958591e481d9bdd1959609a1b606082015260800190565b60208082526059908201527f476f7665726e6f72416c7068613a3a70726f706f73653a206f6e65206c69766560408201527f2070726f706f73616c207065722070726f706f7365722c20666f756e6420616e60608201527f20616c72656164792070656e64696e672070726f706f73616c00000000000000608082015260a00190565b6020808252604a908201527f476f7665726e6f72416c7068613a3a5f5f717565756553657454696d656c6f6360408201527f6b50656e64696e6741646d696e3a2073656e646572206d75737420626520676f6060820152693b1033bab0b93234b0b760b11b608082015260a00190565b60208082526028908201527f476f7665726e6f72416c7068613a3a70726f706f73653a20746f6f206d616e7960408201526720616374696f6e7360c01b606082015260800190565b6020808252601190820152706164646974696f6e206f766572666c6f7760781b604082015260600190565b60208082526044908201527f476f7665726e6f72416c7068613a3a70726f706f73653a2070726f706f73616c60408201527f2066756e6374696f6e20696e666f726d6174696f6e206172697479206d69736d6060820152630c2e8c6d60e31b608082015260a00190565b6020808252602f908201527f476f7665726e6f72416c7068613a3a63616e63656c3a2070726f706f7365722060408201526e18589bdd99481d1a1c995cda1bdb19608a1b606082015260800190565b60208082526044908201527f476f7665726e6f72416c7068613a3a5f71756575654f725265766572743a207060408201527f726f706f73616c20616374696f6e20616c7265616479207175657565642061746060820152632065746160e01b608082015260a00190565b6020808252602c908201527f476f7665726e6f72416c7068613a3a70726f706f73653a206d7573742070726f60408201526b7669646520616374696f6e7360a01b606082015260800190565b6020808252603f908201527f476f7665726e6f72416c7068613a3a70726f706f73653a2070726f706f73657260408201527f20766f7465732062656c6f772070726f706f73616c207468726573686f6c6400606082015260800190565b6020808252602f908201527f476f7665726e6f72416c7068613a3a63617374566f746542795369673a20696e60408201526e76616c6964207369676e617475726560881b606082015260800190565b60208082526058908201527f476f7665726e6f72416c7068613a3a70726f706f73653a206f6e65206c69766560408201527f2070726f706f73616c207065722070726f706f7365722c20666f756e6420616e60608201527f20616c7265616479206163746976652070726f706f73616c0000000000000000608082015260a00190565b60208082526036908201527f476f7665726e6f72416c7068613a3a63616e63656c3a2063616e6e6f742063616040820152751b98d95b08195e1958dd5d1959081c1c9bdc1bdcd85b60521b606082015260800190565b6020808252602a908201527f476f7665726e6f72416c7068613a3a5f63617374566f74653a20766f74696e67604082015269081a5cc818db1bdcd95960b21b606082015260800190565b6020808252601590820152747375627472616374696f6e20756e646572666c6f7760581b604082015260600190565b60208082526036908201527f476f7665726e6f72416c7068613a3a5f5f61626469636174653a2073656e6465604082015275391036bab9ba1031329033b7bb1033bab0b93234b0b760511b606082015260800190565b8151151581526020808301511515908201526040918201516001600160601b03169181019190915260600190565b8981526001600160a01b038916602082015261012060408201819052600090612f008382018b612387565b90508281036060840152612f14818a61241a565b90508281036080840152612f2881896123ca565b905082810360a0840152612f3c81886123ca565b90508560c08401528460e0840152828103610100840152612f5d8185612449565b9c9b505050505050505050505050565b9889526001600160a01b0397909716602089015260408801959095526060870193909352608086019190915260a085015260c0840152151560e083015215156101008201526101200190565b918252602082015260400190565b60405181810167ffffffffffffffff81118282101715612fe657600080fd5b604052919050565b600067ffffffffffffffff821115613004578081fd5b5060209081020190565b600067ffffffffffffffff821115613024578081fd5b50601f01601f191660200190565b60009081526020902090565b60005b83811015613059578181015183820152602001613041565b838111156110835750506000910152565b8015158114611ef357600080fdfea26469706673582212200eba32c2b28e9e0464a2c7440bd0836f1b4ce42df6306ee2ed112c2d2228e08764736f6c63430007000033",
  "linkReferences": {},
  "deployedLinkReferences": {}
}