{
  "_format": "hh-sol-artifact-1",
  "contractName": "Repayments",
  "sourceName": "contracts/Repayments/Repayments.sol",
  "abi": [
    {
      "anonymous": false,
      "inputs": [
        {
          "indexed": false,
          "internalType": "address",
          "name": "poolID",
          "type": "address"
        },
        {
          "indexed": false,
          "internalType": "uint256",
          "name": "repayAmount",
          "type": "uint256"
        }
      ],
      "name": "InterestRepaid",
      "type": "event"
    },
    {
      "anonymous": false,
      "inputs": [
        {
          "indexed": false,
          "internalType": "address",
          "name": "poolID",
          "type": "address"
        }
      ],
      "name": "MissedRepaymentRepaid",
      "type": "event"
    },
    {
      "anonymous": false,
      "inputs": [
        {
          "indexed": true,
          "internalType": "address",
          "name": "previousOwner",
          "type": "address"
        },
        {
          "indexed": true,
          "internalType": "address",
          "name": "newOwner",
          "type": "address"
        }
      ],
      "name": "OwnershipTransferred",
      "type": "event"
    },
    {
      "anonymous": false,
      "inputs": [
        {
          "indexed": false,
          "internalType": "address",
          "name": "poolID",
          "type": "address"
        }
      ],
      "name": "PartialExtensionRepaymentMade",
      "type": "event"
    },
    {
      "inputs": [
        {
          "internalType": "address",
          "name": "poolID",
          "type": "address"
        }
      ],
      "name": "calculateRepayAmount",
      "outputs": [
        {
          "internalType": "uint256",
          "name": "",
          "type": "uint256"
        }
      ],
      "stateMutability": "view",
      "type": "function"
    },
    {
      "inputs": [
        {
          "internalType": "address",
          "name": "poolID",
          "type": "address"
        }
      ],
      "name": "getInterestCalculationVars",
      "outputs": [
        {
          "internalType": "uint256",
          "name": "",
          "type": "uint256"
        },
        {
          "internalType": "uint256",
          "name": "",
          "type": "uint256"
        }
      ],
      "stateMutability": "view",
      "type": "function"
    },
    {
      "inputs": [
        {
          "internalType": "address",
          "name": "poolID",
          "type": "address"
        }
      ],
      "name": "getTotalRepaidAmount",
      "outputs": [
        {
          "internalType": "uint256",
          "name": "",
          "type": "uint256"
        }
      ],
      "stateMutability": "view",
      "type": "function"
    },
    {
      "inputs": [
        {
          "internalType": "address",
          "name": "_owner",
          "type": "address"
        },
        {
          "internalType": "address",
          "name": "_poolFactory",
          "type": "address"
        },
        {
          "internalType": "uint256",
          "name": "_votingPassRatio",
          "type": "uint256"
        }
      ],
      "name": "initialize",
      "outputs": [],
      "stateMutability": "nonpayable",
      "type": "function"
    },
    {
      "inputs": [
        {
          "internalType": "uint256",
          "name": "numberOfTotalRepayments",
          "type": "uint256"
        },
        {
          "internalType": "uint256",
          "name": "repaymentInterval",
          "type": "uint256"
        },
        {
          "internalType": "uint256",
          "name": "borrowRate",
          "type": "uint256"
        },
        {
          "internalType": "uint256",
          "name": "loanStartTime",
          "type": "uint256"
        }
      ],
      "name": "initializeRepayment",
      "outputs": [],
      "stateMutability": "nonpayable",
      "type": "function"
    },
    {
      "inputs": [],
      "name": "owner",
      "outputs": [
        {
          "internalType": "address",
          "name": "",
          "type": "address"
        }
      ],
      "stateMutability": "view",
      "type": "function"
    },
    {
      "inputs": [],
      "name": "renounceOwnership",
      "outputs": [],
      "stateMutability": "nonpayable",
      "type": "function"
    },
    {
      "inputs": [
        {
          "internalType": "address",
          "name": "poolID",
          "type": "address"
        },
        {
          "internalType": "uint256",
          "name": "amount",
          "type": "uint256"
        },
        {
          "internalType": "address",
          "name": "asset",
          "type": "address"
        }
      ],
      "name": "repayAmount",
      "outputs": [],
      "stateMutability": "payable",
      "type": "function"
    },
    {
      "inputs": [
        {
          "internalType": "address",
          "name": "poolID",
          "type": "address"
        }
      ],
      "name": "repaymentExtended",
      "outputs": [],
      "stateMutability": "nonpayable",
      "type": "function"
    },
    {
      "inputs": [
        {
          "internalType": "address",
          "name": "newOwner",
          "type": "address"
        }
      ],
      "name": "transferOwnership",
      "outputs": [],
      "stateMutability": "nonpayable",
      "type": "function"
    },
    {
      "inputs": [],
      "name": "yearInSeconds",
      "outputs": [
        {
          "internalType": "uint256",
          "name": "",
          "type": "uint256"
        }
      ],
      "stateMutability": "view",
      "type": "function"
    }
  ],
  "bytecode": "0x608060405234801561001057600080fd5b50611796806100206000396000f3fe60806040526004361061009c5760003560e01c8063715018a611610064578063715018a6146101af5780638da5cb5b146101c4578063f2fde38b146101f5578063fe2b612d14610228578063ff894b811461025b578063ffe90fd5146102915761009c565b80631466e3ea146100a15780631794bb3c146100e65780634059d5961461012b5780635e3055ed1461014057806361656e551461017c575b600080fd5b3480156100ad57600080fd5b506100d4600480360360208110156100c457600080fd5b50356001600160a01b03166102dd565b60408051918252519081900360200190f35b3480156100f257600080fd5b506101296004803603606081101561010957600080fd5b506001600160a01b038135811691602081013590911690604001356102fb565b005b34801561013757600080fd5b506100d46103d1565b34801561014c57600080fd5b506101296004803603608081101561016357600080fd5b50803590602081013590604081013590606001356103d9565b34801561018857600080fd5b506101296004803603602081101561019f57600080fd5b50356001600160a01b03166104ea565b3480156101bb57600080fd5b506101296106d0565b3480156101d057600080fd5b506101d961078e565b604080516001600160a01b039092168252519081900360200190f35b34801561020157600080fd5b506101296004803603602081101561021857600080fd5b50356001600160a01b031661079d565b34801561023457600080fd5b506100d46004803603602081101561024b57600080fd5b50356001600160a01b03166108b2565b6101296004803603606081101561027157600080fd5b506001600160a01b03813581169160208101359160409091013516610995565b34801561029d57600080fd5b506102c4600480360360208110156102b457600080fd5b50356001600160a01b03166111e3565b6040805192835260208301919091528051918290030190f35b6001600160a01b03166000908152606a602052604090206003015490565b600054610100900460ff16806103145750610314611209565b80610322575060005460ff16155b61035d5760405162461bcd60e51b815260040180806020018281038252602e8152602001806116d6602e913960400191505060405180910390fd5b600054610100900460ff16158015610388576000805460ff1961ff0019909116610100171660011790555b61039061121a565b6103998461079d565b6067829055606b80546001600160a01b0319166001600160a01b03851617905580156103cb576000805461ff00191690555b50505050565b6301e1338081565b606b5460408051631746617960e31b815233600482015290516001600160a01b039092169163ba330bc891602480820192602092909190829003018186803b15801561042457600080fd5b505afa158015610438573d6000803e3d6000fd5b505050506040513d602081101561044e57600080fd5b505161048b5760405162461bcd60e51b81526004018080602001828103825260288152602001806116436028913960400191505060405180910390fd5b606854336000908152606a60205260409020600181019190915560695460028201558490556104ba83856112cc565b336000908152606a60205260409020600481019190915560058101939093556009830191909155600b9091015550565b606b60009054906101000a90046001600160a01b03166001600160a01b0316638da5cb5b6040518163ffffffff1660e01b815260040160206040518083038186803b15801561053857600080fd5b505afa15801561054c573d6000803e3d6000fd5b505050506040513d602081101561056257600080fd5b50516001600160a01b031633146105aa5760405162461bcd60e51b815260040180806020018281038252602e8152602001806116a8602e913960400191505060405180910390fd5b6001600160a01b0381166000818152606a60209081526040808320600801805460ff1916600117905580516362720d9160e11b8152905192939263c4e41b2292600480840193919291829003018186803b15801561060757600080fd5b505afa15801561061b573d6000803e3d6000fd5b505050506040513d602081101561063157600080fd5b50516001600160a01b0383166000908152606a60205260408120600901549192509061066e906301e13380906106689085906112cc565b9061132e565b6001600160a01b0384166000908152606a60205260408120600681015460059091015492935090916106ab9184916106a591611395565b906112cc565b6001600160a01b039094166000908152606a6020526040902060070193909355505050565b6106d86113f2565b6001600160a01b03166106e961078e565b6001600160a01b031614610744576040805162461bcd60e51b815260206004820181905260248201527f4f776e61626c653a2063616c6c6572206973206e6f7420746865206f776e6572604482015290519081900360640190fd5b6033546040516000916001600160a01b0316907f8be0079c531659141344cd1fd0a4f28419497f9722a3daafe3b4186f6b6457e0908390a3603380546001600160a01b0319169055565b6033546001600160a01b031690565b6107a56113f2565b6001600160a01b03166107b661078e565b6001600160a01b031614610811576040805162461bcd60e51b815260206004820181905260248201527f4f776e61626c653a2063616c6c6572206973206e6f7420746865206f776e6572604482015290519081900360640190fd5b6001600160a01b0381166108565760405162461bcd60e51b815260040180806020018281038252602681526020018061161d6026913960400191505060405180910390fd5b6033546040516001600160a01b038084169216907f8be0079c531659141344cd1fd0a4f28419497f9722a3daafe3b4186f6b6457e090600090a3603380546001600160a01b0319166001600160a01b0392909216919091179055565b600080826001600160a01b031663c4e41b226040518163ffffffff1660e01b815260040160206040518083038186803b1580156108ee57600080fd5b505afa158015610902573d6000803e3d6000fd5b505050506040513d602081101561091857600080fd5b50516001600160a01b0384166000908152606a60205260408120600901549192509061094f906301e13380906106689085906112cc565b6001600160a01b0385166000908152606a602052604081206006810154600590910154929350909161098c916109859190611395565b83906112cc565b95945050505050565b336000908152606a60205260409020546109f6576040805162461bcd60e51b815260206004820152601760248201527f506f6f6c206973206e6f7420496e6974696c69617a6564000000000000000000604482015290519081900360640190fd5b6000836001600160a01b031663acc1ab136040518163ffffffff1660e01b815260040160206040518083038186803b158015610a3157600080fd5b505afa158015610a45573d6000803e3d6000fd5b505050506040513d6020811015610a5b57600080fd5b5051905060018114610a9e5760405162461bcd60e51b815260040180806020018281038252602d8152602001806115f0602d913960400191505060405180910390fd5b6000806000866001600160a01b031663c4e41b226040518163ffffffff1660e01b815260040160206040518083038186803b158015610adc57600080fd5b505afa158015610af0573d6000803e3d6000fd5b505050506040513d6020811015610b0657600080fd5b50516001600160a01b0388166000908152606a6020526040902060090154909150610b3c906301e13380906106689084906112cc565b9250610b47876108b2565b6001600160a01b0388166000908152606a602052604090206008015490925060ff16610d705781861115610bac5760405162461bcd60e51b815260040180806020018281038252603d81526020018061166b603d913960400191505060405180910390fd5b6001600160a01b038516610bfd57348614610bf85760405162461bcd60e51b815260040180806020018281038252603c815260200180611725603c913960400191505060405180910390fd5b610c7f565b604080516323b872dd60e01b81523360048201523060248201526044810188905290516001600160a01b038716916323b872dd9160648083019260209291908290030181600087803b158015610c5257600080fd5b505af1158015610c66573d6000803e3d6000fd5b505050506040513d6020811015610c7c57600080fd5b50505b6000610c8b878561132e565b6001600160a01b0389166000908152606a60205260409020600581015460069091015491925090610cbc90836113f6565b1415610ce3576001600160a01b0388166000908152606a6020526040812060060155610d26565b6001600160a01b0388166000908152606a6020526040902060060154610d0990826113f6565b6001600160a01b0389166000908152606a60205260409020600601555b604080516001600160a01b038a1681526020810189905281517feff139234683b4c380101256c460e14460d28453ed77503b5eb3364e9d9b92c5929181900390910190a1506111da565b6001600160a01b0387166000908152606a6020526040902060070154861061105b576001600160a01b038516610de357348614610dde5760405162461bcd60e51b815260040180806020018281038252603c815260200180611725603c913960400191505060405180910390fd5b610e65565b604080516323b872dd60e01b81523360048201523060248201526044810188905290516001600160a01b038716916323b872dd9160648083019260209291908290030181600087803b158015610e3857600080fd5b505af1158015610e4c573d6000803e3d6000fd5b505050506040513d6020811015610e6257600080fd5b50505b6001600160a01b0387166000908152606a6020526040902060070154610e8c908790611395565b6001600160a01b0388166000818152606a6020908152604080832060078101939093556008909201805460ff19169055815192835290519298507f53eaa34118143d5089388582903dfde982db04b4c812ba1b4ca1e4730f6a922d92918290030190a1818610610f2d5760405162461bcd60e51b815260040180806020018281038252603d81526020018061166b603d913960400191505060405180910390fd5b6000610f39878561132e565b6001600160a01b0389166000908152606a60205260409020600581015460069091015491925090610f6a90836113f6565b1415610f91576001600160a01b0388166000908152606a6020526040812060060155610fd4565b6001600160a01b0388166000908152606a6020526040902060060154610fb790826113f6565b6001600160a01b0389166000908152606a60205260409020600601555b6001600160a01b0388166000908152606a6020526040902060030154610ffa90886113f6565b6001600160a01b0389166000818152606a602090815260409182902060030193909355805191825291810189905281517feff139234683b4c380101256c460e14460d28453ed77503b5eb3364e9d9b92c5929181900390910190a1506111da565b6001600160a01b0385166110ac573486146110a75760405162461bcd60e51b815260040180806020018281038252603c815260200180611725603c913960400191505060405180910390fd5b61112e565b604080516323b872dd60e01b81523360048201523060248201526044810188905290516001600160a01b038716916323b872dd9160648083019260209291908290030181600087803b15801561110157600080fd5b505af1158015611115573d6000803e3d6000fd5b505050506040513d602081101561112b57600080fd5b50505b6001600160a01b0387166000908152606a60205260409020600701546111549087611395565b6001600160a01b0388166000908152606a6020526040902060078101919091556003015461118290876113f6565b6001600160a01b0388166000818152606a6020908152604080832060030194909455835192835292519098507f1928ac57ea8d33255354e01df4a68e43e0854ad821ddce82076dcfcbd4be27c7929181900390910190a15b50505050505050565b6001600160a01b03166000908152606a6020526040902060068101546007909101549091565b600061121430611450565b15905090565b600054610100900460ff16806112335750611233611209565b80611241575060005460ff16155b61127c5760405162461bcd60e51b815260040180806020018281038252602e8152602001806116d6602e913960400191505060405180910390fd5b600054610100900460ff161580156112a7576000805460ff1961ff0019909116610100171660011790555b6112af611456565b6112b76114f6565b80156112c9576000805461ff00191690555b50565b6000826112db57506000611328565b828202828482816112e857fe5b04146113255760405162461bcd60e51b81526004018080602001828103825260218152602001806117046021913960400191505060405180910390fd5b90505b92915050565b6000808211611384576040805162461bcd60e51b815260206004820152601a60248201527f536166654d6174683a206469766973696f6e206279207a65726f000000000000604482015290519081900360640190fd5b81838161138d57fe5b049392505050565b6000828211156113ec576040805162461bcd60e51b815260206004820152601e60248201527f536166654d6174683a207375627472616374696f6e206f766572666c6f770000604482015290519081900360640190fd5b50900390565b3390565b600082820183811015611325576040805162461bcd60e51b815260206004820152601b60248201527f536166654d6174683a206164646974696f6e206f766572666c6f770000000000604482015290519081900360640190fd5b3b151590565b600054610100900460ff168061146f575061146f611209565b8061147d575060005460ff16155b6114b85760405162461bcd60e51b815260040180806020018281038252602e8152602001806116d6602e913960400191505060405180910390fd5b600054610100900460ff161580156112b7576000805460ff1961ff00199091166101001716600117905580156112c9576000805461ff001916905550565b600054610100900460ff168061150f575061150f611209565b8061151d575060005460ff16155b6115585760405162461bcd60e51b815260040180806020018281038252602e8152602001806116d6602e913960400191505060405180910390fd5b600054610100900460ff16158015611583576000805460ff1961ff0019909116610100171660011790555b600061158d6113f2565b603380546001600160a01b0319166001600160a01b038316908117909155604051919250906000907f8be0079c531659141344cd1fd0a4f28419497f9722a3daafe3b4186f6b6457e0908290a35080156112c9576000805461ff00191690555056fe52657061796d656e74733a7265706179416d6f756e7420506f6f6c2073686f756c64206265206163746976652e4f776e61626c653a206e6577206f776e657220697320746865207a65726f206164647265737352657061796d656e74733a3a6f6e6c7956616c6964506f6f6c202d20496e76616c696420506f6f6c52657061796d656e7473202d20616d6f756e742069732067726561746572207468616e20696e74657265737420647565207468697320706572696f642e52657061796d656e74733a3a72657061796d656e74457874656e646564202d20496e76616c69642063616c6c6572496e697469616c697a61626c653a20636f6e747261637420697320616c726561647920696e697469616c697a6564536166654d6174683a206d756c7469706c69636174696f6e206f766572666c6f7752657061796d656e74733a3a7265706179416d6f756e7420616d6f756e7420646f6573206e6f74206d61746368206d6573736167652076616c75652ea2646970667358221220dbcff906bf41b0fd1a2d1e30b4211ab3e01b37a8f5d57bce85cfd87b48b2682e64736f6c63430007000033",
  "linkReferences": {},
  "deployedLinkReferences": {}
}