{
  "_format": "hh-sol-artifact-1",
  "contractName": "YearnYield",
  "sourceName": "contracts/yield/YearnYield.sol",
  "abi": [
    {
      "anonymous": false,
      "inputs": [
        {
          "indexed": false,
          "internalType": "address",
          "name": "user",
          "type": "address"
        },
        {
          "indexed": false,
          "internalType": "address",
          "name": "investedTo",
          "type": "address"
        },
        {
          "indexed": false,
          "internalType": "uint256",
          "name": "lpTokensReceived",
          "type": "uint256"
        }
      ],
      "name": "LockedTokens",
      "type": "event"
    },
    {
      "anonymous": false,
      "inputs": [
        {
          "indexed": true,
          "internalType": "address",
          "name": "previousOwner",
          "type": "address"
        },
        {
          "indexed": true,
          "internalType": "address",
          "name": "newOwner",
          "type": "address"
        }
      ],
      "name": "OwnershipTransferred",
      "type": "event"
    },
    {
      "anonymous": false,
      "inputs": [
        {
          "indexed": false,
          "internalType": "address",
          "name": "investedTo",
          "type": "address"
        },
        {
          "indexed": false,
          "internalType": "uint256",
          "name": "collateralReceived",
          "type": "uint256"
        }
      ],
      "name": "UnlockedTokens",
      "type": "event"
    },
    {
      "inputs": [
        {
          "internalType": "address",
          "name": "_asset",
          "type": "address"
        },
        {
          "internalType": "address payable",
          "name": "_wallet",
          "type": "address"
        }
      ],
      "name": "emergencyWithdraw",
      "outputs": [
        {
          "internalType": "uint256",
          "name": "received",
          "type": "uint256"
        }
      ],
      "stateMutability": "nonpayable",
      "type": "function"
    },
    {
      "inputs": [
        {
          "internalType": "uint256",
          "name": "shares",
          "type": "uint256"
        },
        {
          "internalType": "address",
          "name": "asset",
          "type": "address"
        }
      ],
      "name": "getTokensForShares",
      "outputs": [
        {
          "internalType": "uint256",
          "name": "amount",
          "type": "uint256"
        }
      ],
      "stateMutability": "view",
      "type": "function"
    },
    {
      "inputs": [
        {
          "internalType": "address",
          "name": "_owner",
          "type": "address"
        },
        {
          "internalType": "address payable",
          "name": "_savingsAccount",
          "type": "address"
        }
      ],
      "name": "initialize",
      "outputs": [],
      "stateMutability": "nonpayable",
      "type": "function"
    },
    {
      "inputs": [
        {
          "internalType": "address",
          "name": "",
          "type": "address"
        }
      ],
      "name": "liquidityToken",
      "outputs": [
        {
          "internalType": "address",
          "name": "",
          "type": "address"
        }
      ],
      "stateMutability": "view",
      "type": "function"
    },
    {
      "inputs": [
        {
          "internalType": "address",
          "name": "user",
          "type": "address"
        },
        {
          "internalType": "address",
          "name": "asset",
          "type": "address"
        },
        {
          "internalType": "uint256",
          "name": "amount",
          "type": "uint256"
        }
      ],
      "name": "lockTokens",
      "outputs": [
        {
          "internalType": "uint256",
          "name": "sharesReceived",
          "type": "uint256"
        }
      ],
      "stateMutability": "payable",
      "type": "function"
    },
    {
      "inputs": [],
      "name": "owner",
      "outputs": [
        {
          "internalType": "address",
          "name": "",
          "type": "address"
        }
      ],
      "stateMutability": "view",
      "type": "function"
    },
    {
      "inputs": [],
      "name": "renounceOwnership",
      "outputs": [],
      "stateMutability": "nonpayable",
      "type": "function"
    },
    {
      "inputs": [],
      "name": "savingsAccount",
      "outputs": [
        {
          "internalType": "address payable",
          "name": "",
          "type": "address"
        }
      ],
      "stateMutability": "view",
      "type": "function"
    },
    {
      "inputs": [
        {
          "internalType": "address",
          "name": "newOwner",
          "type": "address"
        }
      ],
      "name": "transferOwnership",
      "outputs": [],
      "stateMutability": "nonpayable",
      "type": "function"
    },
    {
      "inputs": [
        {
          "internalType": "address",
          "name": "asset",
          "type": "address"
        },
        {
          "internalType": "uint256",
          "name": "amount",
          "type": "uint256"
        }
      ],
      "name": "unlockTokens",
      "outputs": [
        {
          "internalType": "uint256",
          "name": "received",
          "type": "uint256"
        }
      ],
      "stateMutability": "nonpayable",
      "type": "function"
    },
    {
      "inputs": [
        {
          "internalType": "address",
          "name": "asset",
          "type": "address"
        },
        {
          "internalType": "address",
          "name": "to",
          "type": "address"
        }
      ],
      "name": "updateProtocolAddresses",
      "outputs": [],
      "stateMutability": "nonpayable",
      "type": "function"
    },
    {
      "inputs": [
        {
          "internalType": "address payable",
          "name": "_savingsAccount",
          "type": "address"
        }
      ],
      "name": "updateSavingsAccount",
      "outputs": [],
      "stateMutability": "nonpayable",
      "type": "function"
    },
    {
      "stateMutability": "payable",
      "type": "receive"
    }
  ],
  "bytecode": "0x608060405234801561001057600080fd5b50611b2e806100206000396000f3fe6080604052600436106100ab5760003560e01c80636cf14f9d116100645780636cf14f9d1461023a578063715018a61461026d5780638da5cb5b146102825780639d564d9a14610297578063ecced623146102d0578063f2fde38b146102e5576100b2565b8063050470f1146100b75780631391abc7146100f45780634767ceee14610143578063485cc9551461018b57806359846d29146101c65780636382d9ad146101ff576100b2565b366100b257005b600080fd5b3480156100c357600080fd5b506100f2600480360360408110156100da57600080fd5b506001600160a01b0381358116916020013516610318565b005b34801561010057600080fd5b506101276004803603602081101561011757600080fd5b50356001600160a01b0316610451565b604080516001600160a01b039092168252519081900360200190f35b6101796004803603606081101561015957600080fd5b506001600160a01b0381358116916020810135909116906040013561046c565b60408051918252519081900360200190f35b34801561019757600080fd5b506100f2600480360360408110156101ae57600080fd5b506001600160a01b03813581169160200135166105fc565b3480156101d257600080fd5b50610179600480360360408110156101e957600080fd5b50803590602001356001600160a01b031661071e565b34801561020b57600080fd5b506101796004803603604081101561022257600080fd5b506001600160a01b03813581169160200135166107ef565b34801561024657600080fd5b506100f26004803603602081101561025d57600080fd5b50356001600160a01b03166109c8565b34801561027957600080fd5b506100f2610a9e565b34801561028e57600080fd5b50610127610b4a565b3480156102a357600080fd5b50610179600480360360408110156102ba57600080fd5b506001600160a01b038135169060200135610b59565b3480156102dc57600080fd5b50610127610d41565b3480156102f157600080fd5b506100f26004803603602081101561030857600080fd5b50356001600160a01b0316610d50565b610320610e53565b6001600160a01b0316610331610b4a565b6001600160a01b03161461037a576040805162461bcd60e51b81526020600482018190526024820152600080516020611aaf833981519152604482015290519081900360640190fd5b6001600160a01b0381166103cc576040805162461bcd60e51b8152602060048201526014602482015273496e766573743a207a65726f206164647265737360601b604482015290519081900360640190fd5b6001600160a01b0382811660009081526066602052604090205416156104235760405162461bcd60e51b81526004018080602001828103825260268152602001806119ed6026913960400191505060405180910390fd5b6001600160a01b03918216600090815260666020526040902080546001600160a01b03191691909216179055565b6066602052600090815260409020546001600160a01b031681565b6065546000906001600160a01b0316610483610e53565b6001600160a01b0316146104c85760405162461bcd60e51b8152600401808060200182810382526027815260200180611a136027913960400191505060405180910390fd5b8161050b576040805162461bcd60e51b815260206004820152600e60248201526d125b9d995cdd0e88185b5bdd5b9d60921b604482015290519081900360640190fd5b6001600160a01b038084166000818152606660205260409020549091169061058757823414610576576040805162461bcd60e51b8152602060048201526012602482015271125b9d995cdd0e8811551208185b5bdd5b9d60721b604482015290519081900360640190fd5b6105808184610e57565b91506105aa565b61059c6001600160a01b038516863086610fbd565b6105a784828561101d565b91505b604080516001600160a01b0380881682528316602082015280820184905290517f71538b5e30c18b86003771476b5887a8f118d796b2a4a2a5960e0ac1b10962d39181900360600190a1509392505050565b600054610100900460ff168061061557506106156111d5565b80610623575060005460ff16155b61065e5760405162461bcd60e51b815260040180806020018281038252602e815260200180611a60602e913960400191505060405180910390fd5b600054610100900460ff16158015610689576000805460ff1961ff0019909116610100171660011790555b6106916111e6565b61069a83610d50565b6001600160a01b0382166106ec576040805162461bcd60e51b8152602060048201526014602482015273496e766573743a207a65726f206164647265737360601b604482015290519081900360640190fd5b606580546001600160a01b0319166001600160a01b0384161790558015610719576000805461ff00191690555b505050565b60008261072d575060006107e9565b6107e6670de0b6b3a76400006107e08560666000876001600160a01b03166001600160a01b0316815260200190815260200160002060009054906101000a90046001600160a01b03166001600160a01b03166377c7b8fc6040518163ffffffff1660e01b815260040160206040518083038186803b1580156107ae57600080fd5b505afa1580156107c2573d6000803e3d6000fd5b505050506040513d60208110156107d857600080fd5b505190611298565b906112f1565b90505b92915050565b60006107f9610e53565b6001600160a01b031661080a610b4a565b6001600160a01b031614610853576040805162461bcd60e51b81526020600482018190526024820152600080516020611aaf833981519152604482015290519081900360640190fd5b6001600160a01b0380841660009081526066602090815260408083205481516370a0823160e01b8152306004820152915194169384926370a082319260248082019391829003018186803b1580156108aa57600080fd5b505afa1580156108be573d6000803e3d6000fd5b505050506040513d60208110156108d457600080fd5b505190506001600160a01b03851661092f576108f08282611358565b6040519093506001600160a01b0385169084156108fc029085906000818181858888f19350505050158015610929573d6000803e3d6000fd5b506109c0565b61093a8583836113cf565b9250846001600160a01b031663a9059cbb85856040518363ffffffff1660e01b815260040180836001600160a01b0316815260200182815260200192505050602060405180830381600087803b15801561099357600080fd5b505af11580156109a7573d6000803e3d6000fd5b505050506040513d60208110156109bd57600080fd5b50505b505092915050565b6109d0610e53565b6001600160a01b03166109e1610b4a565b6001600160a01b031614610a2a576040805162461bcd60e51b81526020600482018190526024820152600080516020611aaf833981519152604482015290519081900360640190fd5b6001600160a01b038116610a7c576040805162461bcd60e51b8152602060048201526014602482015273496e766573743a207a65726f206164647265737360601b604482015290519081900360640190fd5b606580546001600160a01b0319166001600160a01b0392909216919091179055565b610aa6610e53565b6001600160a01b0316610ab7610b4a565b6001600160a01b031614610b00576040805162461bcd60e51b81526020600482018190526024820152600080516020611aaf833981519152604482015290519081900360640190fd5b6033546040516000916001600160a01b0316907f8be0079c531659141344cd1fd0a4f28419497f9722a3daafe3b4186f6b6457e0908390a3603380546001600160a01b0319169055565b6033546001600160a01b031690565b6065546000906001600160a01b0316610b70610e53565b6001600160a01b031614610bb55760405162461bcd60e51b8152600401808060200182810382526027815260200180611a136027913960400191505060405180910390fd5b81610bf8576040805162461bcd60e51b815260206004820152600e60248201526d125b9d995cdd0e88185b5bdd5b9d60921b604482015290519081900360640190fd5b6001600160a01b0380841660008181526066602052604090205490911690610c6557610c248184611358565b6065546040519193506001600160a01b03169083156108fc029084906000818181858888f19350505050158015610c5f573d6000803e3d6000fd5b50610cf6565b610c708482856113cf565b6065546040805163a9059cbb60e01b81526001600160a01b0392831660048201526024810184905290519294509086169163a9059cbb916044808201926020929091908290030181600087803b158015610cc957600080fd5b505af1158015610cdd573d6000803e3d6000fd5b505050506040513d6020811015610cf357600080fd5b50505b604080516001600160a01b03861681526020810184905281517faf08a4db36432bb5cbbfdfcf5af1040246483dc0dae8a9616cc79816c432fee9929181900390910190a15092915050565b6065546001600160a01b031681565b610d58610e53565b6001600160a01b0316610d69610b4a565b6001600160a01b031614610db2576040805162461bcd60e51b81526020600482018190526024820152600080516020611aaf833981519152604482015290519081900360640190fd5b6001600160a01b038116610df75760405162461bcd60e51b81526004018080602001828103825260268152602001806119c76026913960400191505060405180910390fd5b6033546040516001600160a01b038084169216907f8be0079c531659141344cd1fd0a4f28419497f9722a3daafe3b4186f6b6457e090600090a3603380546001600160a01b0319166001600160a01b0392909216919091179055565b3390565b600080836001600160a01b03166370a08231306040518263ffffffff1660e01b815260040180826001600160a01b0316815260200191505060206040518083038186803b158015610ea757600080fd5b505afa158015610ebb573d6000803e3d6000fd5b505050506040513d6020811015610ed157600080fd5b50516040805163f6326fb360e01b815290519192506001600160a01b0386169163f6326fb3918691600480830192600092919082900301818588803b158015610f1957600080fd5b505af1158015610f2d573d6000803e3d6000fd5b5050505050610fb581856001600160a01b03166370a08231306040518263ffffffff1660e01b815260040180826001600160a01b0316815260200191505060206040518083038186803b158015610f8357600080fd5b505afa158015610f97573d6000803e3d6000fd5b505050506040513d6020811015610fad57600080fd5b505190611500565b949350505050565b604080516001600160a01b0380861660248301528416604482015260648082018490528251808303909101815260849091019091526020810180516001600160e01b03166323b872dd60e01b17905261101790859061155d565b50505050565b600080836001600160a01b03166370a08231306040518263ffffffff1660e01b815260040180826001600160a01b0316815260200191505060206040518083038186803b15801561106d57600080fd5b505afa158015611081573d6000803e3d6000fd5b505050506040513d602081101561109757600080fd5b50516040805163095ea7b360e01b81526001600160a01b0387811660048301526024820187905291519293509087169163095ea7b3916044808201926020929091908290030181600087803b1580156110ef57600080fd5b505af1158015611103573d6000803e3d6000fd5b505050506040513d602081101561111957600080fd5b50506040805163b6b55f2560e01b81526004810185905290516001600160a01b0386169163b6b55f2591602480830192600092919082900301818387803b15801561116357600080fd5b505af1158015611177573d6000803e3d6000fd5b505050506111cc81856001600160a01b03166370a08231306040518263ffffffff1660e01b815260040180826001600160a01b0316815260200191505060206040518083038186803b158015610f8357600080fd5b95945050505050565b60006111e03061160e565b15905090565b600054610100900460ff16806111ff57506111ff6111d5565b8061120d575060005460ff16155b6112485760405162461bcd60e51b815260040180806020018281038252602e815260200180611a60602e913960400191505060405180910390fd5b600054610100900460ff16158015611273576000805460ff1961ff0019909116610100171660011790555b61127b611614565b6112836116b4565b8015611295576000805461ff00191690555b50565b6000826112a7575060006107e9565b828202828482816112b457fe5b04146107e65760405162461bcd60e51b8152600401808060200182810382526021815260200180611a8e6021913960400191505060405180910390fd5b6000808211611347576040805162461bcd60e51b815260206004820152601a60248201527f536166654d6174683a206469766973696f6e206279207a65726f000000000000604482015290519081900360640190fd5b81838161135057fe5b049392505050565b600080479050836001600160a01b031663f14210a6846040518263ffffffff1660e01b815260040180828152602001915050600060405180830381600087803b1580156113a457600080fd5b505af11580156113b8573d6000803e3d6000fd5b50505050610fb5814761150090919063ffffffff16565b600080846001600160a01b03166370a08231306040518263ffffffff1660e01b815260040180826001600160a01b0316815260200191505060206040518083038186803b15801561141f57600080fd5b505afa158015611433573d6000803e3d6000fd5b505050506040513d602081101561144957600080fd5b505160408051632e1a7d4d60e01b81526004810186905290519192506001600160a01b03861691632e1a7d4d9160248082019260009290919082900301818387803b15801561149757600080fd5b505af11580156114ab573d6000803e3d6000fd5b505050506111cc81866001600160a01b03166370a08231306040518263ffffffff1660e01b815260040180826001600160a01b0316815260200191505060206040518083038186803b158015610f8357600080fd5b600082821115611557576040805162461bcd60e51b815260206004820152601e60248201527f536166654d6174683a207375627472616374696f6e206f766572666c6f770000604482015290519081900360640190fd5b50900390565b60606115b2826040518060400160405280602081526020017f5361666545524332303a206c6f772d6c6576656c2063616c6c206661696c6564815250856001600160a01b03166117ad9092919063ffffffff16565b805190915015610719578080602001905160208110156115d157600080fd5b50516107195760405162461bcd60e51b815260040180806020018281038252602a815260200180611acf602a913960400191505060405180910390fd5b3b151590565b600054610100900460ff168061162d575061162d6111d5565b8061163b575060005460ff16155b6116765760405162461bcd60e51b815260040180806020018281038252602e815260200180611a60602e913960400191505060405180910390fd5b600054610100900460ff16158015611283576000805460ff1961ff0019909116610100171660011790558015611295576000805461ff001916905550565b600054610100900460ff16806116cd57506116cd6111d5565b806116db575060005460ff16155b6117165760405162461bcd60e51b815260040180806020018281038252602e815260200180611a60602e913960400191505060405180910390fd5b600054610100900460ff16158015611741576000805460ff1961ff0019909116610100171660011790555b600061174b610e53565b603380546001600160a01b0319166001600160a01b038316908117909155604051919250906000907f8be0079c531659141344cd1fd0a4f28419497f9722a3daafe3b4186f6b6457e0908290a3508015611295576000805461ff001916905550565b60606117bc84846000856117c6565b90505b9392505050565b6060824710156118075760405162461bcd60e51b8152600401808060200182810382526026815260200180611a3a6026913960400191505060405180910390fd5b6118108561160e565b611861576040805162461bcd60e51b815260206004820152601d60248201527f416464726573733a2063616c6c20746f206e6f6e2d636f6e7472616374000000604482015290519081900360640190fd5b60006060866001600160a01b031685876040518082805190602001908083835b602083106118a05780518252601f199092019160209182019101611881565b6001836020036101000a03801982511681845116808217855250505050505090500191505060006040518083038185875af1925050503d8060008114611902576040519150601f19603f3d011682016040523d82523d6000602084013e611907565b606091505b5091509150611917828286611922565b979650505050505050565b606083156119315750816117bf565b8251156119415782518084602001fd5b8160405162461bcd60e51b81526004018080602001828103825283818151815260200191508051906020019080838360005b8381101561198b578181015183820152602001611973565b50505050905090810190601f1680156119b85780820380516001836020036101000a031916815260200191505b509250505060405180910390fdfe4f776e61626c653a206e6577206f776e657220697320746865207a65726f2061646472657373496e766573743a2043616e6e6f7420757064617465206578697374696e672061646472657373496e766573743a204f6e6c7920736176696e6773206163636f756e742063616e20696e766f6b65416464726573733a20696e73756666696369656e742062616c616e636520666f722063616c6c496e697469616c697a61626c653a20636f6e747261637420697320616c726561647920696e697469616c697a6564536166654d6174683a206d756c7469706c69636174696f6e206f766572666c6f774f776e61626c653a2063616c6c6572206973206e6f7420746865206f776e65725361666545524332303a204552433230206f7065726174696f6e20646964206e6f742073756363656564a26469706673582212203070aa2c54535f72075a14290c8159d72a67b9eeb398868bd205d1ad62ff55bf64736f6c63430007000033",
  "linkReferences": {},
  "deployedLinkReferences": {}
}