{
  "_format": "hh-sol-artifact-1",
  "contractName": "PriceOracle",
  "sourceName": "contracts/PriceOracle.sol",
  "abi": [
    {
      "anonymous": false,
      "inputs": [
        {
          "indexed": true,
          "internalType": "address",
          "name": "previousOwner",
          "type": "address"
        },
        {
          "indexed": true,
          "internalType": "address",
          "name": "newOwner",
          "type": "address"
        }
      ],
      "name": "OwnershipTransferred",
      "type": "event"
    },
    {
      "inputs": [
        {
          "internalType": "address",
          "name": "btoken",
          "type": "address"
        },
        {
          "internalType": "address",
          "name": "ctoken",
          "type": "address"
        }
      ],
      "name": "doesFeedExist",
      "outputs": [
        {
          "internalType": "bool",
          "name": "",
          "type": "bool"
        }
      ],
      "stateMutability": "view",
      "type": "function"
    },
    {
      "inputs": [
        {
          "internalType": "address",
          "name": "num",
          "type": "address"
        },
        {
          "internalType": "address",
          "name": "den",
          "type": "address"
        }
      ],
      "name": "getLatestPrice",
      "outputs": [
        {
          "internalType": "uint256",
          "name": "",
          "type": "uint256"
        }
      ],
      "stateMutability": "view",
      "type": "function"
    },
    {
      "inputs": [
        {
          "internalType": "address",
          "name": "_admin",
          "type": "address"
        }
      ],
      "name": "initialize",
      "outputs": [],
      "stateMutability": "nonpayable",
      "type": "function"
    },
    {
      "inputs": [],
      "name": "owner",
      "outputs": [
        {
          "internalType": "address",
          "name": "",
          "type": "address"
        }
      ],
      "stateMutability": "view",
      "type": "function"
    },
    {
      "inputs": [],
      "name": "renounceOwnership",
      "outputs": [],
      "stateMutability": "nonpayable",
      "type": "function"
    },
    {
      "inputs": [
        {
          "internalType": "address",
          "name": "btoken",
          "type": "address"
        },
        {
          "internalType": "address",
          "name": "ctoken",
          "type": "address"
        },
        {
          "internalType": "address",
          "name": "priceOracle1",
          "type": "address"
        },
        {
          "internalType": "address",
          "name": "priceOracle2",
          "type": "address"
        }
      ],
      "name": "setfeedAddress",
      "outputs": [],
      "stateMutability": "nonpayable",
      "type": "function"
    },
    {
      "inputs": [
        {
          "internalType": "address",
          "name": "newOwner",
          "type": "address"
        }
      ],
      "name": "transferOwnership",
      "outputs": [],
      "stateMutability": "nonpayable",
      "type": "function"
    }
  ],
  "bytecode": "0x608060405234801561001057600080fd5b50610a5f806100206000396000f3fe608060405234801561001057600080fd5b506004361061007d5760003560e01c8063715018a61161005b578063715018a6146101445780638da5cb5b1461014c578063c4d66de814610170578063f2fde38b146101965761007d565b806310603c11146100825780633992f94c146100c2578063633defbd14610102575b600080fd5b6100b06004803603604081101561009857600080fd5b506001600160a01b03813581169160200135166101bc565b60408051918252519081900360200190f35b610100600480360360808110156100d857600080fd5b506001600160a01b0381358116916020810135821691604082013581169160600135166102c4565b005b6101306004803603604081101561011857600080fd5b506001600160a01b03813581169160200135166103e0565b604080519115158252519081900360200190f35b6101006104a3565b610154610561565b604080516001600160a01b039092168252519081900360200190f35b6101006004803603602081101561018657600080fd5b50356001600160a01b0316610570565b610100600480360360208110156101ac57600080fd5b50356001600160a01b0316610624565b60408051606084811b6001600160601b03199081166020808501919091529185901b166034830152825180830360280181526048909201835281519181019190912060009081526066909152908120546001600160a01b0316806102515760405162461bcd60e51b81526004018080602001828103825260368152602001806109c66036913960400191505060405180910390fd5b6000816001600160a01b031663feaf968c6040518163ffffffff1660e01b815260040160a06040518083038186803b15801561028c57600080fd5b505afa1580156102a0573d6000803e3d6000fd5b505050506040513d60a08110156102b657600080fd5b506020015195945050505050565b6102cc610739565b6001600160a01b03166102dd610561565b6001600160a01b031614610338576040805162461bcd60e51b815260206004820181905260248201527f4f776e61626c653a2063616c6c6572206973206e6f7420746865206f776e6572604482015290519081900360640190fd5b60408051606095861b6001600160601b031990811660208084018290529690971b1660348201819052825180830360280181526048830184528051908701206000908152606680885284822080546001600160a01b03199081166001600160a01b03998a16179091556068850193909352607c840198909852835180840360700181526090909301845282519287019290922082529590945290922080549093169116179055565b60408051606084811b6001600160601b03199081166020808501919091529185901b166034830152825180830360280181526048909201835281519181019190912060009081526066909152908120546001600160a01b03161580159061049c575060408051606084811b6001600160601b03199081166020808501919091529187901b16603483015282518083036028018152604890920183528151918101919091206000908152606690915220546001600160a01b031615155b9392505050565b6104ab610739565b6001600160a01b03166104bc610561565b6001600160a01b031614610517576040805162461bcd60e51b815260206004820181905260248201527f4f776e61626c653a2063616c6c6572206973206e6f7420746865206f776e6572604482015290519081900360640190fd5b6033546040516000916001600160a01b0316907f8be0079c531659141344cd1fd0a4f28419497f9722a3daafe3b4186f6b6457e0908390a3603380546001600160a01b0319169055565b6033546001600160a01b031690565b600054610100900460ff1680610589575061058961073d565b80610597575060005460ff16155b6105d25760405162461bcd60e51b815260040180806020018281038252602e8152602001806109fc602e913960400191505060405180910390fd5b600054610100900460ff161580156105fd576000805460ff1961ff0019909116610100171660011790555b61060561074e565b61060e82610624565b8015610620576000805461ff00191690555b5050565b61062c610739565b6001600160a01b031661063d610561565b6001600160a01b031614610698576040805162461bcd60e51b815260206004820181905260248201527f4f776e61626c653a2063616c6c6572206973206e6f7420746865206f776e6572604482015290519081900360640190fd5b6001600160a01b0381166106dd5760405162461bcd60e51b81526004018080602001828103825260268152602001806109a06026913960400191505060405180910390fd5b6033546040516001600160a01b038084169216907f8be0079c531659141344cd1fd0a4f28419497f9722a3daafe3b4186f6b6457e090600090a3603380546001600160a01b0319166001600160a01b0392909216919091179055565b3390565b600061074830610800565b15905090565b600054610100900460ff1680610767575061076761073d565b80610775575060005460ff16155b6107b05760405162461bcd60e51b815260040180806020018281038252602e8152602001806109fc602e913960400191505060405180910390fd5b600054610100900460ff161580156107db576000805460ff1961ff0019909116610100171660011790555b6107e3610806565b6107eb6108a6565b80156107fd576000805461ff00191690555b50565b3b151590565b600054610100900460ff168061081f575061081f61073d565b8061082d575060005460ff16155b6108685760405162461bcd60e51b815260040180806020018281038252602e8152602001806109fc602e913960400191505060405180910390fd5b600054610100900460ff161580156107eb576000805460ff1961ff00199091166101001716600117905580156107fd576000805461ff001916905550565b600054610100900460ff16806108bf57506108bf61073d565b806108cd575060005460ff16155b6109085760405162461bcd60e51b815260040180806020018281038252602e8152602001806109fc602e913960400191505060405180910390fd5b600054610100900460ff16158015610933576000805460ff1961ff0019909116610100171660011790555b600061093d610739565b603380546001600160a01b0319166001600160a01b038316908117909155604051919250906000907f8be0079c531659141344cd1fd0a4f28419497f9722a3daafe3b4186f6b6457e0908290a35080156107fd576000805461ff00191690555056fe4f776e61626c653a206e6577206f776e657220697320746865207a65726f206164647265737350726963654f7261636c653a3a6765744c61746573745072696365202d205072696365204665656420646f65736e2774206578697374496e697469616c697a61626c653a20636f6e747261637420697320616c726561647920696e697469616c697a6564a264697066735822122002c14e6524f2accbbbb8907551dc98da0cce2718162fbf54898c0cacb4cad60b64736f6c63430007000033",
  "linkReferences": {},
  "deployedLinkReferences": {}
}